{
  "contractName": "Jobcoin",
  "abi": [
    {
      "inputs": [],
      "stateMutability": "nonpayable",
      "type": "constructor"
    },
    {
      "anonymous": false,
      "inputs": [
        {
          "indexed": true,
          "internalType": "address",
          "name": "owner",
          "type": "address"
        },
        {
          "indexed": true,
          "internalType": "address",
          "name": "spender",
          "type": "address"
        },
        {
          "indexed": false,
          "internalType": "uint256",
          "name": "value",
          "type": "uint256"
        }
      ],
      "name": "Approval",
      "type": "event"
    },
    {
      "anonymous": false,
      "inputs": [
        {
          "indexed": true,
          "internalType": "address",
          "name": "previousOwner",
          "type": "address"
        },
        {
          "indexed": true,
          "internalType": "address",
          "name": "newOwner",
          "type": "address"
        }
      ],
      "name": "OwnershipTransferred",
      "type": "event"
    },
    {
      "anonymous": false,
      "inputs": [
        {
          "indexed": true,
          "internalType": "address",
          "name": "from",
          "type": "address"
        },
        {
          "indexed": true,
          "internalType": "address",
          "name": "to",
          "type": "address"
        },
        {
          "indexed": false,
          "internalType": "uint256",
          "name": "value",
          "type": "uint256"
        }
      ],
      "name": "Transfer",
      "type": "event"
    },
    {
      "inputs": [
        {
          "internalType": "address",
          "name": "owner",
          "type": "address"
        },
        {
          "internalType": "address",
          "name": "spender",
          "type": "address"
        }
      ],
      "name": "allowance",
      "outputs": [
        {
          "internalType": "uint256",
          "name": "",
          "type": "uint256"
        }
      ],
      "stateMutability": "view",
      "type": "function"
    },
    {
      "inputs": [
        {
          "internalType": "address",
          "name": "spender",
          "type": "address"
        },
        {
          "internalType": "uint256",
          "name": "amount",
          "type": "uint256"
        }
      ],
      "name": "approve",
      "outputs": [
        {
          "internalType": "bool",
          "name": "",
          "type": "bool"
        }
      ],
      "stateMutability": "nonpayable",
      "type": "function"
    },
    {
      "inputs": [
        {
          "internalType": "address",
          "name": "account",
          "type": "address"
        }
      ],
      "name": "balanceOf",
      "outputs": [
        {
          "internalType": "uint256",
          "name": "",
          "type": "uint256"
        }
      ],
      "stateMutability": "view",
      "type": "function"
    },
    {
      "inputs": [],
      "name": "decimals",
      "outputs": [
        {
          "internalType": "uint8",
          "name": "",
          "type": "uint8"
        }
      ],
      "stateMutability": "view",
      "type": "function"
    },
    {
      "inputs": [
        {
          "internalType": "address",
          "name": "spender",
          "type": "address"
        },
        {
          "internalType": "uint256",
          "name": "subtractedValue",
          "type": "uint256"
        }
      ],
      "name": "decreaseAllowance",
      "outputs": [
        {
          "internalType": "bool",
          "name": "",
          "type": "bool"
        }
      ],
      "stateMutability": "nonpayable",
      "type": "function"
    },
    {
      "inputs": [
        {
          "internalType": "address",
          "name": "spender",
          "type": "address"
        },
        {
          "internalType": "uint256",
          "name": "addedValue",
          "type": "uint256"
        }
      ],
      "name": "increaseAllowance",
      "outputs": [
        {
          "internalType": "bool",
          "name": "",
          "type": "bool"
        }
      ],
      "stateMutability": "nonpayable",
      "type": "function"
    },
    {
      "inputs": [],
      "name": "name",
      "outputs": [
        {
          "internalType": "string",
          "name": "",
          "type": "string"
        }
      ],
      "stateMutability": "view",
      "type": "function"
    },
    {
      "inputs": [],
      "name": "owner",
      "outputs": [
        {
          "internalType": "address",
          "name": "",
          "type": "address"
        }
      ],
      "stateMutability": "view",
      "type": "function"
    },
    {
      "inputs": [],
      "name": "renounceOwnership",
      "outputs": [],
      "stateMutability": "nonpayable",
      "type": "function"
    },
    {
      "inputs": [],
      "name": "symbol",
      "outputs": [
        {
          "internalType": "string",
          "name": "",
          "type": "string"
        }
      ],
      "stateMutability": "view",
      "type": "function"
    },
    {
      "inputs": [],
      "name": "totalSupply",
      "outputs": [
        {
          "internalType": "uint256",
          "name": "",
          "type": "uint256"
        }
      ],
      "stateMutability": "view",
      "type": "function"
    },
    {
      "inputs": [
        {
          "internalType": "address",
          "name": "recipient",
          "type": "address"
        },
        {
          "internalType": "uint256",
          "name": "amount",
          "type": "uint256"
        }
      ],
      "name": "transfer",
      "outputs": [
        {
          "internalType": "bool",
          "name": "",
          "type": "bool"
        }
      ],
      "stateMutability": "nonpayable",
      "type": "function"
    },
    {
      "inputs": [
        {
          "internalType": "address",
          "name": "sender",
          "type": "address"
        },
        {
          "internalType": "address",
          "name": "recipient",
          "type": "address"
        },
        {
          "internalType": "uint256",
          "name": "amount",
          "type": "uint256"
        }
      ],
      "name": "transferFrom",
      "outputs": [
        {
          "internalType": "bool",
          "name": "",
          "type": "bool"
        }
      ],
      "stateMutability": "nonpayable",
      "type": "function"
    },
    {
      "inputs": [
        {
          "internalType": "address",
          "name": "newOwner",
          "type": "address"
        }
      ],
      "name": "transferOwnership",
      "outputs": [],
      "stateMutability": "nonpayable",
      "type": "function"
    },
    {
      "inputs": [],
      "name": "GetForTest",
      "outputs": [],
      "stateMutability": "nonpayable",
      "type": "function"
    },
    {
      "inputs": [],
      "name": "getAmountReward",
      "outputs": [
        {
          "internalType": "uint256",
          "name": "",
          "type": "uint256"
        }
      ],
      "stateMutability": "view",
      "type": "function"
    },
    {
      "inputs": [],
      "name": "getAmountVerifReward",
      "outputs": [
        {
          "internalType": "uint256",
          "name": "",
          "type": "uint256"
        }
      ],
      "stateMutability": "view",
      "type": "function"
    },
    {
      "inputs": [],
      "name": "getAmountVerifStake",
      "outputs": [
        {
          "internalType": "uint256",
          "name": "",
          "type": "uint256"
        }
      ],
      "stateMutability": "view",
      "type": "function"
    },
    {
      "inputs": [],
      "name": "isVerificator",
      "outputs": [
        {
          "internalType": "bool",
          "name": "res",
          "type": "bool"
        },
        {
          "internalType": "uint256",
          "name": "s",
          "type": "uint256"
        }
      ],
      "stateMutability": "view",
      "type": "function"
    },
    {
      "inputs": [],
      "name": "stakeOf",
      "outputs": [
        {
          "internalType": "uint256",
          "name": "",
          "type": "uint256"
        }
      ],
      "stateMutability": "view",
      "type": "function"
    },
    {
      "inputs": [],
      "name": "totalStakes",
      "outputs": [
        {
          "internalType": "uint256",
          "name": "",
          "type": "uint256"
        }
      ],
      "stateMutability": "view",
      "type": "function"
    },
    {
      "inputs": [],
      "name": "becomeVerificator",
      "outputs": [],
      "stateMutability": "nonpayable",
      "type": "function"
    },
    {
      "inputs": [],
      "name": "withdrawStake",
      "outputs": [],
      "stateMutability": "nonpayable",
      "type": "function"
    }
  ],
  "bytecode": "0x60806040523480156200001157600080fd5b506040518060400160405280600781526020017f4a6f62436f696e000000000000000000000000000000000000000000000000008152506040518060400160405280600381526020017f4a4243000000000000000000000000000000000000000000000000000000000081525081600390805190602001906200009692919062000307565b508060049080519060200190620000af92919062000307565b5050506000620000c46200019560201b60201c565b905080600560006101000a81548173ffffffffffffffffffffffffffffffffffffffff021916908373ffffffffffffffffffffffffffffffffffffffff1602179055508073ffffffffffffffffffffffffffffffffffffffff16600073ffffffffffffffffffffffffffffffffffffffff167f8be0079c531659141344cd1fd0a4f28419497f9722a3daafe3b4186f6b6457e060405160405180910390a350620001763360006200019d60201b60201c565b6064600681905550600a6007819055506103e860088190555062000555565b600033905090565b600073ffffffffffffffffffffffffffffffffffffffff168273ffffffffffffffffffffffffffffffffffffffff16141562000210576040517f08c379a000000000000000000000000000000000000000000000000000000000815260040162000207906200040a565b60405180910390fd5b62000224600083836200030260201b60201c565b80600260008282546200023891906200045a565b92505081905550806000808473ffffffffffffffffffffffffffffffffffffffff1673ffffffffffffffffffffffffffffffffffffffff16815260200190815260200160002060008282546200028f91906200045a565b925050819055508173ffffffffffffffffffffffffffffffffffffffff16600073ffffffffffffffffffffffffffffffffffffffff167fddf252ad1be2c89b69c2b068fc378daa952ba7f163c4a11628f55a4df523b3ef83604051620002f691906200042c565b60405180910390a35050565b505050565b8280546200031590620004c1565b90600052602060002090601f01602090048101928262000339576000855562000385565b82601f106200035457805160ff191683800117855562000385565b8280016001018555821562000385579182015b828111156200038457825182559160200191906001019062000367565b5b50905062000394919062000398565b5090565b5b80821115620003b357600081600090555060010162000399565b5090565b6000620003c6601f8362000449565b91507f45524332303a206d696e7420746f20746865207a65726f2061646472657373006000830152602082019050919050565b6200040481620004b7565b82525050565b600060208201905081810360008301526200042581620003b7565b9050919050565b6000602082019050620004436000830184620003f9565b92915050565b600082825260208201905092915050565b60006200046782620004b7565b91506200047483620004b7565b9250827fffffffffffffffffffffffffffffffffffffffffffffffffffffffffffffffff03821115620004ac57620004ab620004f7565b5b828201905092915050565b6000819050919050565b60006002820490506001821680620004da57607f821691505b60208210811415620004f157620004f062000526565b5b50919050565b7f4e487b7100000000000000000000000000000000000000000000000000000000600052601160045260246000fd5b7f4e487b7100000000000000000000000000000000000000000000000000000000600052602260045260246000fd5b61261f80620005656000396000f3fe608060405234801561001057600080fd5b506004361061014d5760003560e01c80638da5cb5b116100c3578063bf9befb11161007c578063bf9befb114610395578063bfd8f445146103b3578063d6960d12146103bd578063dd62ed3e146103db578063f2fde38b1461040b578063fe160181146104275761014d565b80638da5cb5b146102d157806395d89b41146102ef578063a457c2d71461030d578063a9059cbb1461033d578063bdde85281461036d578063bed9d8611461038b5761014d565b8063313ce56711610115578063313ce5671461020d578063395093511461022b578063588922261461025b57806370a0823114610279578063715018a6146102a957806389ba217f146102b35761014d565b806306fdde0314610152578063095ea7b31461017057806318160ddd146101a057806323b872dd146101be578063295e2f13146101ee575b600080fd5b61015a610431565b60405161016791906121b4565b60405180910390f35b61018a60048036038101906101859190611b1c565b6104c3565b6040516101979190612170565b60405180910390f35b6101a86104e1565b6040516101b591906123b6565b60405180910390f35b6101d860048036038101906101d39190611acd565b6104eb565b6040516101e59190612170565b60405180910390f35b6101f66105ec565b60405161020492919061218b565b60405180910390f35b6102156106c2565b60405161022291906123d1565b60405180910390f35b61024560048036038101906102409190611b1c565b6106cb565b6040516102529190612170565b60405180910390f35b610263610777565b60405161027091906123b6565b60405180910390f35b610293600480360381019061028e9190611a68565b610781565b6040516102a091906123b6565b60405180910390f35b6102b16107c9565b005b6102bb610906565b6040516102c891906123b6565b60405180910390f35b6102d9610910565b6040516102e69190612155565b60405180910390f35b6102f761093a565b60405161030491906121b4565b60405180910390f35b61032760048036038101906103229190611b1c565b6109cc565b6040516103349190612170565b60405180910390f35b61035760048036038101906103529190611b1c565b610ac0565b6040516103649190612170565b60405180910390f35b610375610ade565b60405161038291906123b6565b60405180910390f35b610393610ae8565b005b61039d610ba3565b6040516103aa91906123b6565b60405180910390f35b6103bb610c8e565b005b6103c5610c9c565b6040516103d291906123b6565b60405180910390f35b6103f560048036038101906103f09190611a91565b610d37565b60405161040291906123b6565b60405180910390f35b61042560048036038101906104209190611a68565b610dbe565b005b61042f610f6a565b005b6060600380546104409061251a565b80601f016020809104026020016040519081016040528092919081815260200182805461046c9061251a565b80156104b95780601f1061048e576101008083540402835291602001916104b9565b820191906000526020600020905b81548152906001019060200180831161049c57829003601f168201915b5050505050905090565b60006104d76104d06110b0565b84846110b8565b6001905092915050565b6000600254905090565b60006104f8848484611283565b6000600160008673ffffffffffffffffffffffffffffffffffffffff1673ffffffffffffffffffffffffffffffffffffffff16815260200190815260200160002060006105436110b0565b73ffffffffffffffffffffffffffffffffffffffff1673ffffffffffffffffffffffffffffffffffffffff168152602001908152602001600020549050828110156105c3576040517f08c379a00000000000000000000000000000000000000000000000000000000081526004016105ba906122b6565b60405180910390fd5b6105e0856105cf6110b0565b85846105db919061245e565b6110b8565b60019150509392505050565b600080600090505b6009805490508110156106b6576009818154811061063b577f4e487b7100000000000000000000000000000000000000000000000000000000600052603260045260246000fd5b9060005260206000200160009054906101000a900473ffffffffffffffffffffffffffffffffffffffff1673ffffffffffffffffffffffffffffffffffffffff163373ffffffffffffffffffffffffffffffffffffffff1614156106a257600191506106be565b6001816106af9190612408565b90506105f4565b600080915091505b9091565b60006012905090565b600061076d6106d86110b0565b8484600160006106e66110b0565b73ffffffffffffffffffffffffffffffffffffffff1673ffffffffffffffffffffffffffffffffffffffff16815260200190815260200160002060008873ffffffffffffffffffffffffffffffffffffffff1673ffffffffffffffffffffffffffffffffffffffff168152602001908152602001600020546107689190612408565b6110b8565b6001905092915050565b6000600654905090565b60008060008373ffffffffffffffffffffffffffffffffffffffff1673ffffffffffffffffffffffffffffffffffffffff168152602001908152602001600020549050919050565b6107d16110b0565b73ffffffffffffffffffffffffffffffffffffffff166107ef610910565b73ffffffffffffffffffffffffffffffffffffffff1614610845576040517f08c379a000000000000000000000000000000000000000000000000000000000815260040161083c906122d6565b60405180910390fd5b600073ffffffffffffffffffffffffffffffffffffffff16600560009054906101000a900473ffffffffffffffffffffffffffffffffffffffff1673ffffffffffffffffffffffffffffffffffffffff167f8be0079c531659141344cd1fd0a4f28419497f9722a3daafe3b4186f6b6457e060405160405180910390a36000600560006101000a81548173ffffffffffffffffffffffffffffffffffffffff021916908373ffffffffffffffffffffffffffffffffffffffff160217905550565b6000600854905090565b6000600560009054906101000a900473ffffffffffffffffffffffffffffffffffffffff16905090565b6060600480546109499061251a565b80601f01602080910402602001604051908101604052809291908181526020018280546109759061251a565b80156109c25780601f10610997576101008083540402835291602001916109c2565b820191906000526020600020905b8154815290600101906020018083116109a557829003601f168201915b5050505050905090565b600080600160006109db6110b0565b73ffffffffffffffffffffffffffffffffffffffff1673ffffffffffffffffffffffffffffffffffffffff16815260200190815260200160002060008573ffffffffffffffffffffffffffffffffffffffff1673ffffffffffffffffffffffffffffffffffffffff16815260200190815260200160002054905082811015610a98576040517f08c379a0000000000000000000000000000000000000000000000000000000008152600401610a8f90612376565b60405180910390fd5b610ab5610aa36110b0565b858584610ab0919061245e565b6110b8565b600191505092915050565b6000610ad4610acd6110b0565b8484611283565b6001905092915050565b6000600754905090565b6000610af26105ec565b5090506001151581151514610b3c576040517f08c379a0000000000000000000000000000000000000000000000000000000008152600401610b3390612256565b60405180910390fd5b6000610b46610c9c565b9050610b50611502565b6000600a60003373ffffffffffffffffffffffffffffffffffffffff1673ffffffffffffffffffffffffffffffffffffffff16815260200190815260200160002081905550610b9f3382611681565b5050565b6000806000905060005b600980549050811015610c8657610c70600a600060098481548110610bfb577f4e487b7100000000000000000000000000000000000000000000000000000000600052603260045260246000fd5b9060005260206000200160009054906101000a900473ffffffffffffffffffffffffffffffffffffffff1673ffffffffffffffffffffffffffffffffffffffff1673ffffffffffffffffffffffffffffffffffffffff16815260200190815260200160002054836117d590919063ffffffff16565b9150600181610c7f9190612408565b9050610bad565b508091505090565b610c9a336103e8611681565b565b600080610ca76105ec565b5090506001151581151514610cf1576040517f08c379a0000000000000000000000000000000000000000000000000000000008152600401610ce890612356565b60405180910390fd5b600a60003373ffffffffffffffffffffffffffffffffffffffff1673ffffffffffffffffffffffffffffffffffffffff1681526020019081526020016000205491505090565b6000600160008473ffffffffffffffffffffffffffffffffffffffff1673ffffffffffffffffffffffffffffffffffffffff16815260200190815260200160002060008373ffffffffffffffffffffffffffffffffffffffff1673ffffffffffffffffffffffffffffffffffffffff16815260200190815260200160002054905092915050565b610dc66110b0565b73ffffffffffffffffffffffffffffffffffffffff16610de4610910565b73ffffffffffffffffffffffffffffffffffffffff1614610e3a576040517f08c379a0000000000000000000000000000000000000000000000000000000008152600401610e31906122d6565b60405180910390fd5b600073ffffffffffffffffffffffffffffffffffffffff168173ffffffffffffffffffffffffffffffffffffffff161415610eaa576040517f08c379a0000000000000000000000000000000000000000000000000000000008152600401610ea190612216565b60405180910390fd5b8073ffffffffffffffffffffffffffffffffffffffff16600560009054906101000a900473ffffffffffffffffffffffffffffffffffffffff1673ffffffffffffffffffffffffffffffffffffffff167f8be0079c531659141344cd1fd0a4f28419497f9722a3daafe3b4186f6b6457e060405160405180910390a380600560006101000a81548173ffffffffffffffffffffffffffffffffffffffff021916908373ffffffffffffffffffffffffffffffffffffffff16021790555050565b6000610f746105ec565b5090508015610fb8576040517f08c379a0000000000000000000000000000000000000000000000000000000008152600401610faf90612296565b60405180910390fd5b610fc4336008546117eb565b6000600a60003373ffffffffffffffffffffffffffffffffffffffff1673ffffffffffffffffffffffffffffffffffffffff16815260200190815260200160002054141561101657611015336119bf565b5b61106a600854600a60003373ffffffffffffffffffffffffffffffffffffffff1673ffffffffffffffffffffffffffffffffffffffff168152602001908152602001600020546117d590919063ffffffff16565b600a60003373ffffffffffffffffffffffffffffffffffffffff1673ffffffffffffffffffffffffffffffffffffffff1681526020019081526020016000208190555050565b600033905090565b600073ffffffffffffffffffffffffffffffffffffffff168373ffffffffffffffffffffffffffffffffffffffff161415611128576040517f08c379a000000000000000000000000000000000000000000000000000000000815260040161111f90612336565b60405180910390fd5b600073ffffffffffffffffffffffffffffffffffffffff168273ffffffffffffffffffffffffffffffffffffffff161415611198576040517f08c379a000000000000000000000000000000000000000000000000000000000815260040161118f90612236565b60405180910390fd5b80600160008573ffffffffffffffffffffffffffffffffffffffff1673ffffffffffffffffffffffffffffffffffffffff16815260200190815260200160002060008473ffffffffffffffffffffffffffffffffffffffff1673ffffffffffffffffffffffffffffffffffffffff168152602001908152602001600020819055508173ffffffffffffffffffffffffffffffffffffffff168373ffffffffffffffffffffffffffffffffffffffff167f8c5be1e5ebec7d5bd14f71427d1e84f3dd0314c0f7b2291e5b200ac8c7c3b9258360405161127691906123b6565b60405180910390a3505050565b600073ffffffffffffffffffffffffffffffffffffffff168373ffffffffffffffffffffffffffffffffffffffff1614156112f3576040517f08c379a00000000000000000000000000000000000000000000000000000000081526004016112ea90612316565b60405180910390fd5b600073ffffffffffffffffffffffffffffffffffffffff168273ffffffffffffffffffffffffffffffffffffffff161415611363576040517f08c379a000000000000000000000000000000000000000000000000000000000815260040161135a906121d6565b60405180910390fd5b61136e838383611a39565b60008060008573ffffffffffffffffffffffffffffffffffffffff1673ffffffffffffffffffffffffffffffffffffffff168152602001908152602001600020549050818110156113f4576040517f08c379a00000000000000000000000000000000000000000000000000000000081526004016113eb90612276565b60405180910390fd5b8181611400919061245e565b6000808673ffffffffffffffffffffffffffffffffffffffff1673ffffffffffffffffffffffffffffffffffffffff16815260200190815260200160002081905550816000808573ffffffffffffffffffffffffffffffffffffffff1673ffffffffffffffffffffffffffffffffffffffff16815260200190815260200160002060008282546114909190612408565b925050819055508273ffffffffffffffffffffffffffffffffffffffff168473ffffffffffffffffffffffffffffffffffffffff167fddf252ad1be2c89b69c2b068fc378daa952ba7f163c4a11628f55a4df523b3ef846040516114f491906123b6565b60405180910390a350505050565b60008061150d6105ec565b91509150811561167d576009600160098054905061152b919061245e565b81548110611562577f4e487b7100000000000000000000000000000000000000000000000000000000600052603260045260246000fd5b9060005260206000200160009054906101000a900473ffffffffffffffffffffffffffffffffffffffff16600982815481106115c7577f4e487b7100000000000000000000000000000000000000000000000000000000600052603260045260246000fd5b9060005260206000200160006101000a81548173ffffffffffffffffffffffffffffffffffffffff021916908373ffffffffffffffffffffffffffffffffffffffff1602179055506009805480611647577f4e487b7100000000000000000000000000000000000000000000000000000000600052603160045260246000fd5b6001900381819060005260206000200160006101000a81549073ffffffffffffffffffffffffffffffffffffffff021916905590555b5050565b600073ffffffffffffffffffffffffffffffffffffffff168273ffffffffffffffffffffffffffffffffffffffff1614156116f1576040517f08c379a00000000000000000000000000000000000000000000000000000000081526004016116e890612396565b60405180910390fd5b6116fd60008383611a39565b806002600082825461170f9190612408565b92505081905550806000808473ffffffffffffffffffffffffffffffffffffffff1673ffffffffffffffffffffffffffffffffffffffff16815260200190815260200160002060008282546117649190612408565b925050819055508173ffffffffffffffffffffffffffffffffffffffff16600073ffffffffffffffffffffffffffffffffffffffff167fddf252ad1be2c89b69c2b068fc378daa952ba7f163c4a11628f55a4df523b3ef836040516117c991906123b6565b60405180910390a35050565b600081836117e39190612408565b905092915050565b600073ffffffffffffffffffffffffffffffffffffffff168273ffffffffffffffffffffffffffffffffffffffff16141561185b576040517f08c379a0000000000000000000000000000000000000000000000000000000008152600401611852906122f6565b60405180910390fd5b61186782600083611a39565b60008060008473ffffffffffffffffffffffffffffffffffffffff1673ffffffffffffffffffffffffffffffffffffffff168152602001908152602001600020549050818110156118ed576040517f08c379a00000000000000000000000000000000000000000000000000000000081526004016118e4906121f6565b60405180910390fd5b81816118f9919061245e565b6000808573ffffffffffffffffffffffffffffffffffffffff1673ffffffffffffffffffffffffffffffffffffffff16815260200190815260200160002081905550816002600082825461194d919061245e565b92505081905550600073ffffffffffffffffffffffffffffffffffffffff168373ffffffffffffffffffffffffffffffffffffffff167fddf252ad1be2c89b69c2b068fc378daa952ba7f163c4a11628f55a4df523b3ef846040516119b291906123b6565b60405180910390a3505050565b60006119c96105ec565b50905080611a35576009829080600181540180825580915050600190039060005260206000200160009091909190916101000a81548173ffffffffffffffffffffffffffffffffffffffff021916908373ffffffffffffffffffffffffffffffffffffffff1602179055505b5050565b505050565b600081359050611a4d816125bb565b92915050565b600081359050611a62816125d2565b92915050565b600060208284031215611a7a57600080fd5b6000611a8884828501611a3e565b91505092915050565b60008060408385031215611aa457600080fd5b6000611ab285828601611a3e565b9250506020611ac385828601611a3e565b9150509250929050565b600080600060608486031215611ae257600080fd5b6000611af086828701611a3e565b9350506020611b0186828701611a3e565b9250506040611b1286828701611a53565b9150509250925092565b60008060408385031215611b2f57600080fd5b6000611b3d85828601611a3e565b9250506020611b4e85828601611a53565b9150509250929050565b611b6181612492565b82525050565b611b70816124a4565b82525050565b6000611b81826123ec565b611b8b81856123f7565b9350611b9b8185602086016124e7565b611ba4816125aa565b840191505092915050565b6000611bbc6023836123f7565b91507f45524332303a207472616e7366657220746f20746865207a65726f206164647260008301527f65737300000000000000000000000000000000000000000000000000000000006020830152604082019050919050565b6000611c226022836123f7565b91507f45524332303a206275726e20616d6f756e7420657863656564732062616c616e60008301527f63650000000000000000000000000000000000000000000000000000000000006020830152604082019050919050565b6000611c886026836123f7565b91507f4f776e61626c653a206e6577206f776e657220697320746865207a65726f206160008301527f64647265737300000000000000000000000000000000000000000000000000006020830152604082019050919050565b6000611cee6022836123f7565b91507f45524332303a20617070726f766520746f20746865207a65726f20616464726560008301527f73730000000000000000000000000000000000000000000000000000000000006020830152604082019050919050565b6000611d54603a836123f7565b91507f596f7520617265206e6f742061207665726966696361746f722c20736f20796f60008301527f752063616e277420776974686472617720616e79207374616b650000000000006020830152604082019050919050565b6000611dba6026836123f7565b91507f45524332303a207472616e7366657220616d6f756e742065786365656473206260008301527f616c616e636500000000000000000000000000000000000000000000000000006020830152604082019050919050565b6000611e20601b836123f7565b91507f596f752061726520616c7265616479207665726966696361746f7200000000006000830152602082019050919050565b6000611e606028836123f7565b91507f45524332303a207472616e7366657220616d6f756e742065786365656473206160008301527f6c6c6f77616e63650000000000000000000000000000000000000000000000006020830152604082019050919050565b6000611ec66020836123f7565b91507f4f776e61626c653a2063616c6c6572206973206e6f7420746865206f776e65726000830152602082019050919050565b6000611f066021836123f7565b91507f45524332303a206275726e2066726f6d20746865207a65726f2061646472657360008301527f73000000000000000000000000000000000000000000000000000000000000006020830152604082019050919050565b6000611f6c6025836123f7565b91507f45524332303a207472616e736665722066726f6d20746865207a65726f20616460008301527f64726573730000000000000000000000000000000000000000000000000000006020830152604082019050919050565b6000611fd26024836123f7565b91507f45524332303a20617070726f76652066726f6d20746865207a65726f2061646460008301527f72657373000000000000000000000000000000000000000000000000000000006020830152604082019050919050565b60006120386031836123f7565b91507f596f7520617265206e6f74207665726966696361746f722c20736f20796f752060008301527f646f6e27742068617665207374616b652e0000000000000000000000000000006020830152604082019050919050565b600061209e6025836123f7565b91507f45524332303a2064656372656173656420616c6c6f77616e63652062656c6f7760008301527f207a65726f0000000000000000000000000000000000000000000000000000006020830152604082019050919050565b6000612104601f836123f7565b91507f45524332303a206d696e7420746f20746865207a65726f2061646472657373006000830152602082019050919050565b612140816124d0565b82525050565b61214f816124da565b82525050565b600060208201905061216a6000830184611b58565b92915050565b60006020820190506121856000830184611b67565b92915050565b60006040820190506121a06000830185611b67565b6121ad6020830184612137565b9392505050565b600060208201905081810360008301526121ce8184611b76565b905092915050565b600060208201905081810360008301526121ef81611baf565b9050919050565b6000602082019050818103600083015261220f81611c15565b9050919050565b6000602082019050818103600083015261222f81611c7b565b9050919050565b6000602082019050818103600083015261224f81611ce1565b9050919050565b6000602082019050818103600083015261226f81611d47565b9050919050565b6000602082019050818103600083015261228f81611dad565b9050919050565b600060208201905081810360008301526122af81611e13565b9050919050565b600060208201905081810360008301526122cf81611e53565b9050919050565b600060208201905081810360008301526122ef81611eb9565b9050919050565b6000602082019050818103600083015261230f81611ef9565b9050919050565b6000602082019050818103600083015261232f81611f5f565b9050919050565b6000602082019050818103600083015261234f81611fc5565b9050919050565b6000602082019050818103600083015261236f8161202b565b9050919050565b6000602082019050818103600083015261238f81612091565b9050919050565b600060208201905081810360008301526123af816120f7565b9050919050565b60006020820190506123cb6000830184612137565b92915050565b60006020820190506123e66000830184612146565b92915050565b600081519050919050565b600082825260208201905092915050565b6000612413826124d0565b915061241e836124d0565b9250827fffffffffffffffffffffffffffffffffffffffffffffffffffffffffffffffff038211156124535761245261254c565b5b828201905092915050565b6000612469826124d0565b9150612474836124d0565b9250828210156124875761248661254c565b5b828203905092915050565b600061249d826124b0565b9050919050565b60008115159050919050565b600073ffffffffffffffffffffffffffffffffffffffff82169050919050565b6000819050919050565b600060ff82169050919050565b60005b838110156125055780820151818401526020810190506124ea565b83811115612514576000848401525b50505050565b6000600282049050600182168061253257607f821691505b602082108114156125465761254561257b565b5b50919050565b7f4e487b7100000000000000000000000000000000000000000000000000000000600052601160045260246000fd5b7f4e487b7100000000000000000000000000000000000000000000000000000000600052602260045260246000fd5b6000601f19601f8301169050919050565b6125c481612492565b81146125cf57600080fd5b50565b6125db816124d0565b81146125e657600080fd5b5056fea264697066735822122064cd21ead9f4aa68fbbfcd92d762168599f2d0bfb6872ca74e2eb35564aca8c564736f6c63430008000033",
  "immutableReferences": {},
  "source": "pragma solidity ^0.8.0;\r\n\r\n// SPDX-License-Identifier: MIT\r\n\r\n\r\nimport \"@openzeppelin/contracts/token/ERC20/ERC20.sol\";\r\nimport \"@openzeppelin/contracts/utils/math/SafeMath.sol\";\r\n/**\r\n * @dev Wrappers over Solidity's arithmetic operations.\r\n *\r\n * NOTE: `SignedSafeMath` is no longer needed starting with Solidity 0.8. The compiler\r\n * now has built in overflow checking.\r\n */\r\nimport \"@openzeppelin/contracts/access/Ownable.sol\";\r\n\r\n\r\n\r\n\r\n\r\n\r\ncontract Jobcoin is ERC20, Ownable{\r\n\r\n    //inspired by https://github.com/HQ20/StakingToken\r\n\r\n    using SafeMath for uint;\r\n\r\n\r\n\r\n    uint256 internal amountReward;\r\n    uint256 internal rewardVerificator;\r\n    uint256 internal verifStake;\r\n\r\n\r\n\r\n    address[] internal verificators;\r\n    mapping(address=> uint256) internal stakes;\r\n\r\n\r\n\r\n\r\n    constructor() ERC20(\"JobCoin\", \"JBC\")Ownable() {\r\n        _mint(msg.sender, 0);\r\n        amountReward = 100;\r\n        rewardVerificator = 10;\r\n        verifStake = 1000;\r\n    }\r\n\r\n    /*\r\n    * To get jobcoin to test the dapp, only testnet function\r\n    *Get 1000 JBC to test the Verificator section\r\n    */\r\n    function GetForTest() public{\r\n        _mint(msg.sender, 1000);\r\n    }\r\n\r\n\r\n    /*\r\n  *         TrashTag warriors rewards\r\n  */\r\n\r\n    function rewardCoinTrashtagWarrior(address _to) internal {\r\n        _mint(_to, amountReward);\r\n    }\r\n\r\n\r\n    /*\r\n    Contract exceed 24KB, need to do saving\r\n\r\n    function setAmountReward(uint _newAmount)public onlyOwner{\r\n        amountReward = _newAmount;\r\n    }\r\n    */\r\n\r\n\r\n    function getAmountReward()public view returns(uint){\r\n        return amountReward;\r\n    }\r\n\r\n\r\n\r\n    /*\r\n   *         Verificators rewards\r\n   */\r\n\r\n    /*\r\n    Contract exceed 24KB, need to do saving\r\n\r\n    function setAmountVerifReward(uint _newAmount)public onlyOwner{\r\n        rewardVerificator = _newAmount;\r\n    }\r\n    */\r\n\r\n\r\n    function getAmountVerifReward()public view returns(uint){\r\n        return rewardVerificator;\r\n    }\r\n\r\n\r\n    /*\r\n    *         Verificators inital stake\r\n    */\r\n\r\n    /*\r\n    Contract exceed 24KB, need to do saving\r\n\r\n    function setAmountVerifStake(uint _newAmount)public onlyOwner{\r\n        verifStake = _newAmount;\r\n    }\r\n    */\r\n\r\n\r\n    function getAmountVerifStake()public view returns(uint){\r\n        return verifStake;\r\n    }\r\n\r\n\r\n\r\n    /*\r\n    * @notice A method to check if an address is a verificator.\r\n    * @param _address The address to verify.\r\n    * @return bool, uint256 Whether the address is a verificator,\r\n    * and if so its position in the verificator array.\r\n    */\r\n    function isVerificator()public view returns(bool res, uint s){\r\n\r\n        for(s=0; s< verificators.length; s+=1){\r\n            if(msg.sender == verificators[s]) return(true, s);\r\n        }\r\n        return(false, 0);\r\n    }\r\n\r\n    /**\r\n    * @notice A method to add the msg.sender.\r\n    *\r\n    */\r\n    function addVerificator(address _to)\r\n    internal\r\n    {\r\n        (bool _isVerificator, ) = isVerificator();\r\n        if(!_isVerificator) verificators.push(_to);\r\n    }\r\n\r\n    /*\r\n     * @notice A method to remove a msg.sender from verificator.\r\n     * @param  The verificator to remove.\r\n     */\r\n    function removeVerificator()\r\n    internal\r\n    {\r\n        (bool _isVerificator, uint s) = isVerificator();\r\n        if(_isVerificator){\r\n            verificators[s] = verificators[verificators.length - 1];\r\n            verificators.pop();\r\n        }\r\n    }\r\n\r\n    /*\r\n    * @notice A method to retrieve the stake for a verificator.\r\n    * @param msg.sender The verificator to retrieve the stake for.\r\n    * @return uint256 The amount of JobCoin staked.\r\n    */\r\n    function stakeOf()\r\n    public\r\n    view\r\n    returns(uint)\r\n    {\r\n        (bool _isVerificator,)= isVerificator();\r\n        require(_isVerificator == true, \"You are not verificator, so you don't have stake.\");\r\n        return stakes[msg.sender];\r\n    }\r\n\r\n\r\n    /**\r\n     * @notice A method to the aggregated stakes from all stakeholders.\r\n     * @return uint256 The aggregated stakes from all stakeholders.\r\n     */\r\n    function totalStakes()\r\n    public\r\n    view\r\n    returns(uint)\r\n    {\r\n        uint _totalStakes = 0;\r\n        for (uint s = 0; s < verificators.length; s += 1){\r\n            _totalStakes = _totalStakes.add(stakes[verificators[s]]);\r\n        }\r\n        return _totalStakes;\r\n    }\r\n\r\n\r\n    /*\r\n    * User become Verificator\r\n    * He stakes 1000 virtual Jobcoin on the contract\r\n    * He are now able to judge trashtags done by Trashtag Warriors\r\n    */\r\n    function becomeVerificator()\r\n    public\r\n    {\r\n        (bool _isVerificator,) = isVerificator();\r\n        require(!_isVerificator, \"You are already verificator\");\r\n        _burn(msg.sender ,verifStake); //will revert if the user tries to stake more tokens than he owns\r\n        if(stakes[msg.sender] == 0) addVerificator(msg.sender);\r\n        stakes[msg.sender] = stakes[msg.sender].add(verifStake);\r\n    }\r\n\r\n\r\n\r\n\r\n    //Create 10 Jobcoin on Verficators stake\r\n    function verificatorReward(address _verificator)internal  {\r\n        (bool _isVerificator,) = isVerificator();\r\n        if(_isVerificator){\r\n            stakes[_verificator]= stakes[_verificator].add(rewardVerificator);\r\n        }\r\n    }\r\n\r\n    //Destruct 20 Jobcoin on Verficators stake\r\n    function verificatorPenality(address _verificator) internal {\r\n        (bool _isVerificator, ) = isVerificator();\r\n        if(_isVerificator){\r\n            if(stakes[_verificator]>=0){\r\n                stakes[_verificator]= stakes[_verificator].sub(rewardVerificator.mul(2));\r\n            }\r\n        }\r\n    }\r\n\r\n\r\n    /*\r\n    * User is not able to judge Trashtag challenges anymore\r\n    * His Jobcoin stake is send to his CryptoWallet\r\n    */\r\n    function withdrawStake()public{\r\n        (bool _isVerificator,) = isVerificator();\r\n        require(_isVerificator == true, \"You are not a verificator, so you can't withdraw any stake\");\r\n        uint actualStake = stakeOf();\r\n        removeVerificator();\r\n        stakes[msg.sender] = 0;\r\n        _mint(msg.sender, actualStake);\r\n    }\r\n\r\n\r\n\r\n\r\n}\r\n",
  "sourcePath": "C:/Users/FourbeurFourmi/Desktop/Projet Eco Token/V1 React-Typescript/trash-tag-dapp/contracts/Jobcoin.sol",
  "compiler": {
    "name": "solc",
    "version": "0.8.0+commit.c7dfd78e.Emscripten.clang"
  },
  "schemaVersion": "3.3.4",
  "updatedAt": "2021-07-26T14:45:10.263Z",
  "devdoc": {
    "kind": "dev",
    "methods": {
      "allowance(address,address)": {
        "details": "See {IERC20-allowance}."
      },
      "approve(address,uint256)": {
        "details": "See {IERC20-approve}. Requirements: - `spender` cannot be the zero address."
      },
      "balanceOf(address)": {
        "details": "See {IERC20-balanceOf}."
      },
      "decimals()": {
        "details": "Returns the number of decimals used to get its user representation. For example, if `decimals` equals `2`, a balance of `505` tokens should be displayed to a user as `5,05` (`505 / 10 ** 2`). Tokens usually opt for a value of 18, imitating the relationship between Ether and Wei. This is the value {ERC20} uses, unless this function is overridden; NOTE: This information is only used for _display_ purposes: it in no way affects any of the arithmetic of the contract, including {IERC20-balanceOf} and {IERC20-transfer}."
      },
      "decreaseAllowance(address,uint256)": {
        "details": "Atomically decreases the allowance granted to `spender` by the caller. This is an alternative to {approve} that can be used as a mitigation for problems described in {IERC20-approve}. Emits an {Approval} event indicating the updated allowance. Requirements: - `spender` cannot be the zero address. - `spender` must have allowance for the caller of at least `subtractedValue`."
      },
      "increaseAllowance(address,uint256)": {
        "details": "Atomically increases the allowance granted to `spender` by the caller. This is an alternative to {approve} that can be used as a mitigation for problems described in {IERC20-approve}. Emits an {Approval} event indicating the updated allowance. Requirements: - `spender` cannot be the zero address."
      },
      "name()": {
        "details": "Returns the name of the token."
      },
      "owner()": {
        "details": "Returns the address of the current owner."
      },
      "renounceOwnership()": {
        "details": "Leaves the contract without owner. It will not be possible to call `onlyOwner` functions anymore. Can only be called by the current owner. NOTE: Renouncing ownership will leave the contract without an owner, thereby removing any functionality that is only available to the owner."
      },
      "symbol()": {
        "details": "Returns the symbol of the token, usually a shorter version of the name."
      },
      "totalStakes()": {
        "returns": {
          "_0": "uint256 The aggregated stakes from all stakeholders."
        }
      },
      "totalSupply()": {
        "details": "See {IERC20-totalSupply}."
      },
      "transfer(address,uint256)": {
        "details": "See {IERC20-transfer}. Requirements: - `recipient` cannot be the zero address. - the caller must have a balance of at least `amount`."
      },
      "transferFrom(address,address,uint256)": {
        "details": "See {IERC20-transferFrom}. Emits an {Approval} event indicating the updated allowance. This is not required by the EIP. See the note at the beginning of {ERC20}. Requirements: - `sender` and `recipient` cannot be the zero address. - `sender` must have a balance of at least `amount`. - the caller must have allowance for ``sender``'s tokens of at least `amount`."
      },
      "transferOwnership(address)": {
        "details": "Transfers ownership of the contract to a new account (`newOwner`). Can only be called by the current owner."
      }
    },
    "version": 1
  },
  "userdoc": {
    "kind": "user",
    "methods": {
      "totalStakes()": {
        "notice": "A method to the aggregated stakes from all stakeholders."
      }
    },
    "version": 1
  }
}