{
  "contractName": "Trashtag",
  "abi": [
    {
      "inputs": [],
      "stateMutability": "nonpayable",
      "type": "constructor"
    },
    {
      "anonymous": false,
      "inputs": [
        {
          "indexed": true,
          "internalType": "address",
          "name": "owner",
          "type": "address"
        },
        {
          "indexed": true,
          "internalType": "address",
          "name": "spender",
          "type": "address"
        },
        {
          "indexed": false,
          "internalType": "uint256",
          "name": "value",
          "type": "uint256"
        }
      ],
      "name": "Approval",
      "type": "event"
    },
    {
      "anonymous": false,
      "inputs": [
        {
          "indexed": true,
          "internalType": "address",
          "name": "account",
          "type": "address"
        },
        {
          "indexed": true,
          "internalType": "address",
          "name": "operator",
          "type": "address"
        },
        {
          "indexed": false,
          "internalType": "bool",
          "name": "approved",
          "type": "bool"
        }
      ],
      "name": "ApprovalForAll",
      "type": "event"
    },
    {
      "anonymous": false,
      "inputs": [
        {
          "indexed": true,
          "internalType": "address",
          "name": "previousOwner",
          "type": "address"
        },
        {
          "indexed": true,
          "internalType": "address",
          "name": "newOwner",
          "type": "address"
        }
      ],
      "name": "OwnershipTransferred",
      "type": "event"
    },
    {
      "anonymous": false,
      "inputs": [
        {
          "indexed": true,
          "internalType": "address",
          "name": "from",
          "type": "address"
        },
        {
          "indexed": true,
          "internalType": "address",
          "name": "to",
          "type": "address"
        },
        {
          "indexed": false,
          "internalType": "uint256",
          "name": "value",
          "type": "uint256"
        }
      ],
      "name": "Transfer",
      "type": "event"
    },
    {
      "anonymous": false,
      "inputs": [
        {
          "indexed": true,
          "internalType": "address",
          "name": "operator",
          "type": "address"
        },
        {
          "indexed": true,
          "internalType": "address",
          "name": "from",
          "type": "address"
        },
        {
          "indexed": true,
          "internalType": "address",
          "name": "to",
          "type": "address"
        },
        {
          "indexed": false,
          "internalType": "uint256[]",
          "name": "ids",
          "type": "uint256[]"
        },
        {
          "indexed": false,
          "internalType": "uint256[]",
          "name": "values",
          "type": "uint256[]"
        }
      ],
      "name": "TransferBatch",
      "type": "event"
    },
    {
      "anonymous": false,
      "inputs": [
        {
          "indexed": true,
          "internalType": "address",
          "name": "operator",
          "type": "address"
        },
        {
          "indexed": true,
          "internalType": "address",
          "name": "from",
          "type": "address"
        },
        {
          "indexed": true,
          "internalType": "address",
          "name": "to",
          "type": "address"
        },
        {
          "indexed": false,
          "internalType": "uint256",
          "name": "id",
          "type": "uint256"
        },
        {
          "indexed": false,
          "internalType": "uint256",
          "name": "value",
          "type": "uint256"
        }
      ],
      "name": "TransferSingle",
      "type": "event"
    },
    {
      "anonymous": false,
      "inputs": [
        {
          "indexed": false,
          "internalType": "string",
          "name": "value",
          "type": "string"
        },
        {
          "indexed": true,
          "internalType": "uint256",
          "name": "id",
          "type": "uint256"
        }
      ],
      "name": "URI",
      "type": "event"
    },
    {
      "inputs": [],
      "name": "GetForTest",
      "outputs": [],
      "stateMutability": "nonpayable",
      "type": "function"
    },
    {
      "inputs": [
        {
          "internalType": "address",
          "name": "owner",
          "type": "address"
        },
        {
          "internalType": "address",
          "name": "spender",
          "type": "address"
        }
      ],
      "name": "allowance",
      "outputs": [
        {
          "internalType": "uint256",
          "name": "",
          "type": "uint256"
        }
      ],
      "stateMutability": "view",
      "type": "function"
    },
    {
      "inputs": [
        {
          "internalType": "address",
          "name": "spender",
          "type": "address"
        },
        {
          "internalType": "uint256",
          "name": "amount",
          "type": "uint256"
        }
      ],
      "name": "approve",
      "outputs": [
        {
          "internalType": "bool",
          "name": "",
          "type": "bool"
        }
      ],
      "stateMutability": "nonpayable",
      "type": "function"
    },
    {
      "inputs": [
        {
          "internalType": "address",
          "name": "account",
          "type": "address"
        },
        {
          "internalType": "uint256",
          "name": "id",
          "type": "uint256"
        }
      ],
      "name": "balanceOf",
      "outputs": [
        {
          "internalType": "uint256",
          "name": "",
          "type": "uint256"
        }
      ],
      "stateMutability": "view",
      "type": "function"
    },
    {
      "inputs": [
        {
          "internalType": "address",
          "name": "account",
          "type": "address"
        }
      ],
      "name": "balanceOf",
      "outputs": [
        {
          "internalType": "uint256",
          "name": "",
          "type": "uint256"
        }
      ],
      "stateMutability": "view",
      "type": "function"
    },
    {
      "inputs": [
        {
          "internalType": "address[]",
          "name": "accounts",
          "type": "address[]"
        },
        {
          "internalType": "uint256[]",
          "name": "ids",
          "type": "uint256[]"
        }
      ],
      "name": "balanceOfBatch",
      "outputs": [
        {
          "internalType": "uint256[]",
          "name": "",
          "type": "uint256[]"
        }
      ],
      "stateMutability": "view",
      "type": "function"
    },
    {
      "inputs": [],
      "name": "becomeVerificator",
      "outputs": [],
      "stateMutability": "nonpayable",
      "type": "function"
    },
    {
      "inputs": [],
      "name": "decimals",
      "outputs": [
        {
          "internalType": "uint8",
          "name": "",
          "type": "uint8"
        }
      ],
      "stateMutability": "view",
      "type": "function"
    },
    {
      "inputs": [
        {
          "internalType": "address",
          "name": "spender",
          "type": "address"
        },
        {
          "internalType": "uint256",
          "name": "subtractedValue",
          "type": "uint256"
        }
      ],
      "name": "decreaseAllowance",
      "outputs": [
        {
          "internalType": "bool",
          "name": "",
          "type": "bool"
        }
      ],
      "stateMutability": "nonpayable",
      "type": "function"
    },
    {
      "inputs": [],
      "name": "getAmountReward",
      "outputs": [
        {
          "internalType": "uint256",
          "name": "",
          "type": "uint256"
        }
      ],
      "stateMutability": "view",
      "type": "function"
    },
    {
      "inputs": [],
      "name": "getAmountVerifReward",
      "outputs": [
        {
          "internalType": "uint256",
          "name": "",
          "type": "uint256"
        }
      ],
      "stateMutability": "view",
      "type": "function"
    },
    {
      "inputs": [],
      "name": "getAmountVerifStake",
      "outputs": [
        {
          "internalType": "uint256",
          "name": "",
          "type": "uint256"
        }
      ],
      "stateMutability": "view",
      "type": "function"
    },
    {
      "inputs": [
        {
          "internalType": "address",
          "name": "spender",
          "type": "address"
        },
        {
          "internalType": "uint256",
          "name": "addedValue",
          "type": "uint256"
        }
      ],
      "name": "increaseAllowance",
      "outputs": [
        {
          "internalType": "bool",
          "name": "",
          "type": "bool"
        }
      ],
      "stateMutability": "nonpayable",
      "type": "function"
    },
    {
      "inputs": [
        {
          "internalType": "address",
          "name": "account",
          "type": "address"
        },
        {
          "internalType": "address",
          "name": "operator",
          "type": "address"
        }
      ],
      "name": "isApprovedForAll",
      "outputs": [
        {
          "internalType": "bool",
          "name": "",
          "type": "bool"
        }
      ],
      "stateMutability": "view",
      "type": "function"
    },
    {
      "inputs": [],
      "name": "name",
      "outputs": [
        {
          "internalType": "string",
          "name": "",
          "type": "string"
        }
      ],
      "stateMutability": "view",
      "type": "function"
    },
    {
      "inputs": [],
      "name": "owner",
      "outputs": [
        {
          "internalType": "address",
          "name": "",
          "type": "address"
        }
      ],
      "stateMutability": "view",
      "type": "function"
    },
    {
      "inputs": [],
      "name": "renounceOwnership",
      "outputs": [],
      "stateMutability": "nonpayable",
      "type": "function"
    },
    {
      "inputs": [
        {
          "internalType": "address",
          "name": "from",
          "type": "address"
        },
        {
          "internalType": "address",
          "name": "to",
          "type": "address"
        },
        {
          "internalType": "uint256[]",
          "name": "ids",
          "type": "uint256[]"
        },
        {
          "internalType": "uint256[]",
          "name": "amounts",
          "type": "uint256[]"
        },
        {
          "internalType": "bytes",
          "name": "data",
          "type": "bytes"
        }
      ],
      "name": "safeBatchTransferFrom",
      "outputs": [],
      "stateMutability": "nonpayable",
      "type": "function"
    },
    {
      "inputs": [
        {
          "internalType": "address",
          "name": "from",
          "type": "address"
        },
        {
          "internalType": "address",
          "name": "to",
          "type": "address"
        },
        {
          "internalType": "uint256",
          "name": "id",
          "type": "uint256"
        },
        {
          "internalType": "uint256",
          "name": "amount",
          "type": "uint256"
        },
        {
          "internalType": "bytes",
          "name": "data",
          "type": "bytes"
        }
      ],
      "name": "safeTransferFrom",
      "outputs": [],
      "stateMutability": "nonpayable",
      "type": "function"
    },
    {
      "inputs": [
        {
          "internalType": "address",
          "name": "operator",
          "type": "address"
        },
        {
          "internalType": "bool",
          "name": "approved",
          "type": "bool"
        }
      ],
      "name": "setApprovalForAll",
      "outputs": [],
      "stateMutability": "nonpayable",
      "type": "function"
    },
    {
      "inputs": [],
      "name": "stakeOf",
      "outputs": [
        {
          "internalType": "uint256",
          "name": "",
          "type": "uint256"
        }
      ],
      "stateMutability": "view",
      "type": "function"
    },
    {
      "inputs": [
        {
          "internalType": "bytes4",
          "name": "interfaceId",
          "type": "bytes4"
        }
      ],
      "name": "supportsInterface",
      "outputs": [
        {
          "internalType": "bool",
          "name": "",
          "type": "bool"
        }
      ],
      "stateMutability": "view",
      "type": "function"
    },
    {
      "inputs": [],
      "name": "symbol",
      "outputs": [
        {
          "internalType": "string",
          "name": "",
          "type": "string"
        }
      ],
      "stateMutability": "view",
      "type": "function"
    },
    {
      "inputs": [],
      "name": "totalStakes",
      "outputs": [
        {
          "internalType": "uint256",
          "name": "",
          "type": "uint256"
        }
      ],
      "stateMutability": "view",
      "type": "function"
    },
    {
      "inputs": [],
      "name": "totalSupply",
      "outputs": [
        {
          "internalType": "uint256",
          "name": "",
          "type": "uint256"
        }
      ],
      "stateMutability": "view",
      "type": "function"
    },
    {
      "inputs": [
        {
          "internalType": "address",
          "name": "recipient",
          "type": "address"
        },
        {
          "internalType": "uint256",
          "name": "amount",
          "type": "uint256"
        }
      ],
      "name": "transfer",
      "outputs": [
        {
          "internalType": "bool",
          "name": "",
          "type": "bool"
        }
      ],
      "stateMutability": "nonpayable",
      "type": "function"
    },
    {
      "inputs": [
        {
          "internalType": "address",
          "name": "sender",
          "type": "address"
        },
        {
          "internalType": "address",
          "name": "recipient",
          "type": "address"
        },
        {
          "internalType": "uint256",
          "name": "amount",
          "type": "uint256"
        }
      ],
      "name": "transferFrom",
      "outputs": [
        {
          "internalType": "bool",
          "name": "",
          "type": "bool"
        }
      ],
      "stateMutability": "nonpayable",
      "type": "function"
    },
    {
      "inputs": [
        {
          "internalType": "address",
          "name": "newOwner",
          "type": "address"
        }
      ],
      "name": "transferOwnership",
      "outputs": [],
      "stateMutability": "nonpayable",
      "type": "function"
    },
    {
      "inputs": [
        {
          "internalType": "uint256",
          "name": "",
          "type": "uint256"
        }
      ],
      "name": "uri",
      "outputs": [
        {
          "internalType": "string",
          "name": "",
          "type": "string"
        }
      ],
      "stateMutability": "view",
      "type": "function"
    },
    {
      "inputs": [],
      "name": "withdrawStake",
      "outputs": [],
      "stateMutability": "nonpayable",
      "type": "function"
    },
    {
      "inputs": [
        {
          "internalType": "string",
          "name": "_uri",
          "type": "string"
        },
        {
          "internalType": "address",
          "name": "_to",
          "type": "address"
        }
      ],
      "name": "rewardTrashtagWarrior",
      "outputs": [],
      "stateMutability": "nonpayable",
      "type": "function"
    },
    {
      "inputs": [
        {
          "internalType": "address",
          "name": "_receiver",
          "type": "address"
        }
      ],
      "name": "getAmountNFT",
      "outputs": [
        {
          "internalType": "uint256",
          "name": "",
          "type": "uint256"
        }
      ],
      "stateMutability": "view",
      "type": "function"
    },
    {
      "inputs": [
        {
          "internalType": "uint256",
          "name": "_tokenId",
          "type": "uint256"
        }
      ],
      "name": "getURI",
      "outputs": [
        {
          "internalType": "string",
          "name": "",
          "type": "string"
        }
      ],
      "stateMutability": "view",
      "type": "function"
    }
  ],
  "bytecode": "0x60806040523480156200001157600080fd5b506040518060400160405280600781526020017f4a6f62436f696e000000000000000000000000000000000000000000000000008152506040518060400160405280600381526020017f4a42430000000000000000000000000000000000000000000000000000000000815250604051806020016040528060008152506200009f81620001b660201b60201c565b508160069080519060200190620000b892919062000345565b508060079080519060200190620000d192919062000345565b5050506000620000e6620001d260201b60201c565b905080600860006101000a81548173ffffffffffffffffffffffffffffffffffffffff021916908373ffffffffffffffffffffffffffffffffffffffff1602179055508073ffffffffffffffffffffffffffffffffffffffff16600073ffffffffffffffffffffffffffffffffffffffff167f8be0079c531659141344cd1fd0a4f28419497f9722a3daafe3b4186f6b6457e060405160405180910390a35062000198336000620001da60201b60201c565b6064600981905550600a80819055506103e8600b8190555062000593565b8060029080519060200190620001ce92919062000345565b5050565b600033905090565b600073ffffffffffffffffffffffffffffffffffffffff168273ffffffffffffffffffffffffffffffffffffffff1614156200024d576040517f08c379a0000000000000000000000000000000000000000000000000000000008152600401620002449062000448565b60405180910390fd5b62000261600083836200034060201b60201c565b806005600082825462000275919062000498565b9250508190555080600360008473ffffffffffffffffffffffffffffffffffffffff1673ffffffffffffffffffffffffffffffffffffffff1681526020019081526020016000206000828254620002cd919062000498565b925050819055508173ffffffffffffffffffffffffffffffffffffffff16600073ffffffffffffffffffffffffffffffffffffffff167fddf252ad1be2c89b69c2b068fc378daa952ba7f163c4a11628f55a4df523b3ef836040516200033491906200046a565b60405180910390a35050565b505050565b8280546200035390620004ff565b90600052602060002090601f016020900481019282620003775760008555620003c3565b82601f106200039257805160ff1916838001178555620003c3565b82800160010185558215620003c3579182015b82811115620003c2578251825591602001919060010190620003a5565b5b509050620003d29190620003d6565b5090565b5b80821115620003f1576000816000905550600101620003d7565b5090565b600062000404601f8362000487565b91507f45524332303a206d696e7420746f20746865207a65726f2061646472657373006000830152602082019050919050565b6200044281620004f5565b82525050565b600060208201905081810360008301526200046381620003f5565b9050919050565b600060208201905062000481600083018462000437565b92915050565b600082825260208201905092915050565b6000620004a582620004f5565b9150620004b283620004f5565b9250827fffffffffffffffffffffffffffffffffffffffffffffffffffffffffffffffff03821115620004ea57620004e962000535565b5b828201905092915050565b6000819050919050565b600060028204905060018216806200051857607f821691505b602082108114156200052f576200052e62000564565b5b50919050565b7f4e487b7100000000000000000000000000000000000000000000000000000000600052601160045260246000fd5b7f4e487b7100000000000000000000000000000000000000000000000000000000600052602260045260246000fd5b614e8080620005a36000396000f3fe608060405234801561001057600080fd5b50600436106101fa5760003560e01c80638d333c911161011a578063bf9befb1116100ad578063dd62ed3e1161007c578063dd62ed3e146105dd578063e985e9c51461060d578063f242432a1461063d578063f2fde38b14610659578063fe16018114610675576101fa565b8063bf9befb114610567578063bfd8f44514610585578063d6960d121461058f578063d7a3dff5146105ad576101fa565b8063a457c2d7116100e9578063a457c2d7146104df578063a9059cbb1461050f578063bdde85281461053f578063bed9d8611461055d576101fa565b80638d333c911461046b5780638da5cb5b1461048757806395d89b41146104a5578063a22cb465146104c3576101fa565b80632eb2c2d611610192578063588922261161016157806358892226146103f557806370a0823114610413578063715018a61461044357806389ba217f1461044d576101fa565b80632eb2c2d61461035b578063313ce5671461037757806339509351146103955780634e1273f4146103c5576101fa565b80630e89341c116101ce5780630e89341c146102ad57806318160ddd146102dd5780631aa347dc146102fb57806323b872dd1461032b576101fa565b8062fdd58e146101ff57806301ffc9a71461022f57806306fdde031461025f578063095ea7b31461027d575b600080fd5b610219600480360381019061021491906137c5565b61067f565b604051610226919061490c565b60405180910390f35b6102496004803603810190610244919061386d565b610748565b604051610256919061458f565b60405180910390f35b61026761082a565b60405161027491906145aa565b60405180910390f35b610297600480360381019061029291906137c5565b6108bc565b6040516102a4919061458f565b60405180910390f35b6102c760048036038101906102c29190613913565b6108da565b6040516102d491906145aa565b60405180910390f35b6102e561096e565b6040516102f2919061490c565b60405180910390f35b61031560048036038101906103109190613913565b610978565b60405161032291906145aa565b60405180910390f35b610345600480360381019061034091906136ab565b610a60565b604051610352919061458f565b60405180910390f35b610375600480360381019061037091906135ec565b610b61565b005b61037f610f57565b60405161038c9190614950565b60405180910390f35b6103af60048036038101906103aa91906137c5565b610f60565b6040516103bc919061458f565b60405180910390f35b6103df60048036038101906103da9190613801565b61100c565b6040516103ec9190614536565b60405180910390f35b6103fd6111bd565b60405161040a919061490c565b60405180910390f35b61042d60048036038101906104289190613587565b6111c7565b60405161043a919061490c565b60405180910390f35b61044b611210565b005b61045561134d565b604051610462919061490c565b60405180910390f35b610485600480360381019061048091906138bf565b611357565b005b61048f611476565b60405161049c9190614459565b60405180910390f35b6104ad6114a0565b6040516104ba91906145aa565b60405180910390f35b6104dd60048036038101906104d89190613789565b611532565b005b6104f960048036038101906104f491906137c5565b6116b3565b604051610506919061458f565b60405180910390f35b610529600480360381019061052491906137c5565b6117a7565b604051610536919061458f565b60405180910390f35b6105476117c5565b604051610554919061490c565b60405180910390f35b6105656117cf565b005b61056f61188c565b60405161057c919061490c565b60405180910390f35b61058d611977565b005b610597611985565b6040516105a4919061490c565b60405180910390f35b6105c760048036038101906105c29190613587565b611a21565b6040516105d4919061490c565b60405180910390f35b6105f760048036038101906105f291906135b0565b611a6a565b604051610604919061490c565b60405180910390f35b610627600480360381019061062291906135b0565b611af1565b604051610634919061458f565b60405180910390f35b610657600480360381019061065291906136fa565b611b85565b005b610673600480360381019061066e9190613587565b611e9d565b005b61067d612049565b005b60008073ffffffffffffffffffffffffffffffffffffffff168373ffffffffffffffffffffffffffffffffffffffff1614156106f0576040517f08c379a00000000000000000000000000000000000000000000000000000000081526004016106e79061464c565b60405180910390fd5b60008083815260200190815260200160002060008473ffffffffffffffffffffffffffffffffffffffff1673ffffffffffffffffffffffffffffffffffffffff16815260200190815260200160002054905092915050565b60007fd9b67a26000000000000000000000000000000000000000000000000000000007bffffffffffffffffffffffffffffffffffffffffffffffffffffffff1916827bffffffffffffffffffffffffffffffffffffffffffffffffffffffff1916148061081357507f0e89341c000000000000000000000000000000000000000000000000000000007bffffffffffffffffffffffffffffffffffffffffffffffffffffffff1916827bffffffffffffffffffffffffffffffffffffffffffffffffffffffff1916145b80610823575061082282612190565b5b9050919050565b60606006805461083990614c12565b80601f016020809104026020016040519081016040528092919081815260200182805461086590614c12565b80156108b25780601f10610887576101008083540402835291602001916108b2565b820191906000526020600020905b81548152906001019060200180831161089557829003601f168201915b5050505050905090565b60006108d06108c96121fa565b8484612202565b6001905092915050565b6060600280546108e990614c12565b80601f016020809104026020016040519081016040528092919081815260200182805461091590614c12565b80156109625780601f1061093757610100808354040283529160200191610962565b820191906000526020600020905b81548152906001019060200180831161094557829003601f168201915b50505050509050919050565b6000600554905090565b60606000600e60003373ffffffffffffffffffffffffffffffffffffffff1673ffffffffffffffffffffffffffffffffffffffff168152602001908152602001600020600084815260200190815260200160002080546109d790614c12565b80601f0160208091040260200160405190810160405280929190818152602001828054610a0390614c12565b8015610a505780601f10610a2557610100808354040283529160200191610a50565b820191906000526020600020905b815481529060010190602001808311610a3357829003601f168201915b5050505050905080915050919050565b6000610a6d8484846123cd565b6000600460008673ffffffffffffffffffffffffffffffffffffffff1673ffffffffffffffffffffffffffffffffffffffff1681526020019081526020016000206000610ab86121fa565b73ffffffffffffffffffffffffffffffffffffffff1673ffffffffffffffffffffffffffffffffffffffff16815260200190815260200160002054905082811015610b38576040517f08c379a0000000000000000000000000000000000000000000000000000000008152600401610b2f9061478c565b60405180910390fd5b610b5585610b446121fa565b8584610b509190614b1b565b612202565b60019150509392505050565b8151835114610ba5576040517f08c379a0000000000000000000000000000000000000000000000000000000008152600401610b9c9061488c565b60405180910390fd5b600073ffffffffffffffffffffffffffffffffffffffff168473ffffffffffffffffffffffffffffffffffffffff161415610c15576040517f08c379a0000000000000000000000000000000000000000000000000000000008152600401610c0c9061472c565b60405180910390fd5b610c1d6121fa565b73ffffffffffffffffffffffffffffffffffffffff168573ffffffffffffffffffffffffffffffffffffffff161480610c635750610c6285610c5d6121fa565b611af1565b5b610ca2576040517f08c379a0000000000000000000000000000000000000000000000000000000008152600401610c999061474c565b60405180910390fd5b6000610cac6121fa565b9050610cbc81878787878761264f565b60005b8451811015610ec2576000858281518110610d03577f4e487b7100000000000000000000000000000000000000000000000000000000600052603260045260246000fd5b602002602001015190506000858381518110610d48577f4e487b7100000000000000000000000000000000000000000000000000000000600052603260045260246000fd5b60200260200101519050600080600084815260200190815260200160002060008b73ffffffffffffffffffffffffffffffffffffffff1673ffffffffffffffffffffffffffffffffffffffff16815260200190815260200160002054905081811015610de9576040517f08c379a0000000000000000000000000000000000000000000000000000000008152600401610de09061476c565b60405180910390fd5b8181610df59190614b1b565b60008085815260200190815260200160002060008c73ffffffffffffffffffffffffffffffffffffffff1673ffffffffffffffffffffffffffffffffffffffff168152602001908152602001600020819055508160008085815260200190815260200160002060008b73ffffffffffffffffffffffffffffffffffffffff1673ffffffffffffffffffffffffffffffffffffffff1681526020019081526020016000206000828254610ea79190614ac5565b9250508190555050505080610ebb90614c44565b9050610cbf565b508473ffffffffffffffffffffffffffffffffffffffff168673ffffffffffffffffffffffffffffffffffffffff168273ffffffffffffffffffffffffffffffffffffffff167f4a39dc06d4c0dbc64b70af90fd698a233a518aa5d07e595d983b8c0526c8f7fb8787604051610f39929190614558565b60405180910390a4610f4f818787878787612657565b505050505050565b60006012905090565b6000611002610f6d6121fa565b848460046000610f7b6121fa565b73ffffffffffffffffffffffffffffffffffffffff1673ffffffffffffffffffffffffffffffffffffffff16815260200190815260200160002060008873ffffffffffffffffffffffffffffffffffffffff1673ffffffffffffffffffffffffffffffffffffffff16815260200190815260200160002054610ffd9190614ac5565b612202565b6001905092915050565b60608151835114611052576040517f08c379a00000000000000000000000000000000000000000000000000000000081526004016110499061484c565b60405180910390fd5b6000835167ffffffffffffffff811115611095577f4e487b7100000000000000000000000000000000000000000000000000000000600052604160045260246000fd5b6040519080825280602002602001820160405280156110c35781602001602082028036833780820191505090505b50905060005b84518110156111b25761115c85828151811061110e577f4e487b7100000000000000000000000000000000000000000000000000000000600052603260045260246000fd5b602002602001015185838151811061114f577f4e487b7100000000000000000000000000000000000000000000000000000000600052603260045260246000fd5b602002602001015161067f565b828281518110611195577f4e487b7100000000000000000000000000000000000000000000000000000000600052603260045260246000fd5b602002602001018181525050806111ab90614c44565b90506110c9565b508091505092915050565b6000600954905090565b6000600360008373ffffffffffffffffffffffffffffffffffffffff1673ffffffffffffffffffffffffffffffffffffffff168152602001908152602001600020549050919050565b6112186121fa565b73ffffffffffffffffffffffffffffffffffffffff16611236611476565b73ffffffffffffffffffffffffffffffffffffffff161461128c576040517f08c379a0000000000000000000000000000000000000000000000000000000008152600401611283906147ac565b60405180910390fd5b600073ffffffffffffffffffffffffffffffffffffffff16600860009054906101000a900473ffffffffffffffffffffffffffffffffffffffff1673ffffffffffffffffffffffffffffffffffffffff167f8be0079c531659141344cd1fd0a4f28419497f9722a3daafe3b4186f6b6457e060405160405180910390a36000600860006101000a81548173ffffffffffffffffffffffffffffffffffffffff021916908373ffffffffffffffffffffffffffffffffffffffff160217905550565b6000600b54905090565b600f60008273ffffffffffffffffffffffffffffffffffffffff1673ffffffffffffffffffffffffffffffffffffffff16815260200190815260200160002060008154809291906113a790614c44565b91905055506000600f60008373ffffffffffffffffffffffffffffffffffffffff1673ffffffffffffffffffffffffffffffffffffffff16815260200190815260200160002054905082600e60008473ffffffffffffffffffffffffffffffffffffffff1673ffffffffffffffffffffffffffffffffffffffff1681526020019081526020016000206000838152602001908152602001600020908051906020019061145492919061327f565b506114718282600160405180602001604052806000815250612827565b505050565b6000600860009054906101000a900473ffffffffffffffffffffffffffffffffffffffff16905090565b6060600780546114af90614c12565b80601f01602080910402602001604051908101604052809291908181526020018280546114db90614c12565b80156115285780601f106114fd57610100808354040283529160200191611528565b820191906000526020600020905b81548152906001019060200180831161150b57829003601f168201915b5050505050905090565b8173ffffffffffffffffffffffffffffffffffffffff166115516121fa565b73ffffffffffffffffffffffffffffffffffffffff1614156115a8576040517f08c379a000000000000000000000000000000000000000000000000000000000815260040161159f9061482c565b60405180910390fd5b80600160006115b56121fa565b73ffffffffffffffffffffffffffffffffffffffff1673ffffffffffffffffffffffffffffffffffffffff16815260200190815260200160002060008473ffffffffffffffffffffffffffffffffffffffff1673ffffffffffffffffffffffffffffffffffffffff16815260200190815260200160002060006101000a81548160ff0219169083151502179055508173ffffffffffffffffffffffffffffffffffffffff166116626121fa565b73ffffffffffffffffffffffffffffffffffffffff167f17307eab39ab6107e8899845ad3d59bd9653f200f220920489ca2b5937696c31836040516116a7919061458f565b60405180910390a35050565b600080600460006116c26121fa565b73ffffffffffffffffffffffffffffffffffffffff1673ffffffffffffffffffffffffffffffffffffffff16815260200190815260200160002060008573ffffffffffffffffffffffffffffffffffffffff1673ffffffffffffffffffffffffffffffffffffffff1681526020019081526020016000205490508281101561177f576040517f08c379a0000000000000000000000000000000000000000000000000000000008152600401611776906148cc565b60405180910390fd5b61179c61178a6121fa565b8585846117979190614b1b565b612202565b600191505092915050565b60006117bb6117b46121fa565b84846123cd565b6001905092915050565b6000600a54905090565b60006117da336129bd565b5090506001151581151514611824576040517f08c379a000000000000000000000000000000000000000000000000000000000815260040161181b906146ac565b60405180910390fd5b600061182e611985565b905061183933612a94565b6000600d60003373ffffffffffffffffffffffffffffffffffffffff1673ffffffffffffffffffffffffffffffffffffffff168152602001908152602001600020819055506118883382612c15565b5050565b6000806000905060005b600c8054905081101561196f57611959600d6000600c84815481106118e4577f4e487b7100000000000000000000000000000000000000000000000000000000600052603260045260246000fd5b9060005260206000200160009054906101000a900473ffffffffffffffffffffffffffffffffffffffff1673ffffffffffffffffffffffffffffffffffffffff1673ffffffffffffffffffffffffffffffffffffffff1681526020019081526020016000205483612d6a90919063ffffffff16565b91506001816119689190614ac5565b9050611896565b508091505090565b611983336103e8612c15565b565b600080611991336129bd565b50905060011515811515146119db576040517f08c379a00000000000000000000000000000000000000000000000000000000081526004016119d29061486c565b60405180910390fd5b600d60003373ffffffffffffffffffffffffffffffffffffffff1673ffffffffffffffffffffffffffffffffffffffff1681526020019081526020016000205491505090565b6000600f60008373ffffffffffffffffffffffffffffffffffffffff1673ffffffffffffffffffffffffffffffffffffffff168152602001908152602001600020549050919050565b6000600460008473ffffffffffffffffffffffffffffffffffffffff1673ffffffffffffffffffffffffffffffffffffffff16815260200190815260200160002060008373ffffffffffffffffffffffffffffffffffffffff1673ffffffffffffffffffffffffffffffffffffffff16815260200190815260200160002054905092915050565b6000600160008473ffffffffffffffffffffffffffffffffffffffff1673ffffffffffffffffffffffffffffffffffffffff16815260200190815260200160002060008373ffffffffffffffffffffffffffffffffffffffff1673ffffffffffffffffffffffffffffffffffffffff16815260200190815260200160002060009054906101000a900460ff16905092915050565b600073ffffffffffffffffffffffffffffffffffffffff168473ffffffffffffffffffffffffffffffffffffffff161415611bf5576040517f08c379a0000000000000000000000000000000000000000000000000000000008152600401611bec9061472c565b60405180910390fd5b611bfd6121fa565b73ffffffffffffffffffffffffffffffffffffffff168573ffffffffffffffffffffffffffffffffffffffff161480611c435750611c4285611c3d6121fa565b611af1565b5b611c82576040517f08c379a0000000000000000000000000000000000000000000000000000000008152600401611c79906146cc565b60405180910390fd5b6000611c8c6121fa565b9050611cac818787611c9d88612d80565b611ca688612d80565b8761264f565b600080600086815260200190815260200160002060008873ffffffffffffffffffffffffffffffffffffffff1673ffffffffffffffffffffffffffffffffffffffff16815260200190815260200160002054905083811015611d43576040517f08c379a0000000000000000000000000000000000000000000000000000000008152600401611d3a9061476c565b60405180910390fd5b8381611d4f9190614b1b565b60008087815260200190815260200160002060008973ffffffffffffffffffffffffffffffffffffffff1673ffffffffffffffffffffffffffffffffffffffff168152602001908152602001600020819055508360008087815260200190815260200160002060008873ffffffffffffffffffffffffffffffffffffffff1673ffffffffffffffffffffffffffffffffffffffff1681526020019081526020016000206000828254611e019190614ac5565b925050819055508573ffffffffffffffffffffffffffffffffffffffff168773ffffffffffffffffffffffffffffffffffffffff168373ffffffffffffffffffffffffffffffffffffffff167fc3d58168c5ae7397731d063d5bbf3d657854427343f4c083240f7aacaa2d0f628888604051611e7e929190614927565b60405180910390a4611e94828888888888612e46565b50505050505050565b611ea56121fa565b73ffffffffffffffffffffffffffffffffffffffff16611ec3611476565b73ffffffffffffffffffffffffffffffffffffffff1614611f19576040517f08c379a0000000000000000000000000000000000000000000000000000000008152600401611f10906147ac565b60405180910390fd5b600073ffffffffffffffffffffffffffffffffffffffff168173ffffffffffffffffffffffffffffffffffffffff161415611f89576040517f08c379a0000000000000000000000000000000000000000000000000000000008152600401611f809061466c565b60405180910390fd5b8073ffffffffffffffffffffffffffffffffffffffff16600860009054906101000a900473ffffffffffffffffffffffffffffffffffffffff1673ffffffffffffffffffffffffffffffffffffffff167f8be0079c531659141344cd1fd0a4f28419497f9722a3daafe3b4186f6b6457e060405160405180910390a380600860006101000a81548173ffffffffffffffffffffffffffffffffffffffff021916908373ffffffffffffffffffffffffffffffffffffffff16021790555050565b6000612054336129bd565b5090508015612098576040517f08c379a000000000000000000000000000000000000000000000000000000000815260040161208f9061470c565b60405180910390fd5b6120a433600b54613016565b6000600d60003373ffffffffffffffffffffffffffffffffffffffff1673ffffffffffffffffffffffffffffffffffffffff1681526020019081526020016000205414156120f6576120f5336131ec565b5b61214a600b54600d60003373ffffffffffffffffffffffffffffffffffffffff1673ffffffffffffffffffffffffffffffffffffffff16815260200190815260200160002054612d6a90919063ffffffff16565b600d60003373ffffffffffffffffffffffffffffffffffffffff1673ffffffffffffffffffffffffffffffffffffffff1681526020019081526020016000208190555050565b60007f01ffc9a7000000000000000000000000000000000000000000000000000000007bffffffffffffffffffffffffffffffffffffffffffffffffffffffff1916827bffffffffffffffffffffffffffffffffffffffffffffffffffffffff1916149050919050565b600033905090565b600073ffffffffffffffffffffffffffffffffffffffff168373ffffffffffffffffffffffffffffffffffffffff161415612272576040517f08c379a00000000000000000000000000000000000000000000000000000000081526004016122699061480c565b60405180910390fd5b600073ffffffffffffffffffffffffffffffffffffffff168273ffffffffffffffffffffffffffffffffffffffff1614156122e2576040517f08c379a00000000000000000000000000000000000000000000000000000000081526004016122d99061468c565b60405180910390fd5b80600460008573ffffffffffffffffffffffffffffffffffffffff1673ffffffffffffffffffffffffffffffffffffffff16815260200190815260200160002060008473ffffffffffffffffffffffffffffffffffffffff1673ffffffffffffffffffffffffffffffffffffffff168152602001908152602001600020819055508173ffffffffffffffffffffffffffffffffffffffff168373ffffffffffffffffffffffffffffffffffffffff167f8c5be1e5ebec7d5bd14f71427d1e84f3dd0314c0f7b2291e5b200ac8c7c3b925836040516123c0919061490c565b60405180910390a3505050565b600073ffffffffffffffffffffffffffffffffffffffff168373ffffffffffffffffffffffffffffffffffffffff16141561243d576040517f08c379a0000000000000000000000000000000000000000000000000000000008152600401612434906147ec565b60405180910390fd5b600073ffffffffffffffffffffffffffffffffffffffff168273ffffffffffffffffffffffffffffffffffffffff1614156124ad576040517f08c379a00000000000000000000000000000000000000000000000000000000081526004016124a4906145ec565b60405180910390fd5b6124b8838383613267565b6000600360008573ffffffffffffffffffffffffffffffffffffffff1673ffffffffffffffffffffffffffffffffffffffff1681526020019081526020016000205490508181101561253f576040517f08c379a0000000000000000000000000000000000000000000000000000000008152600401612536906146ec565b60405180910390fd5b818161254b9190614b1b565b600360008673ffffffffffffffffffffffffffffffffffffffff1673ffffffffffffffffffffffffffffffffffffffff1681526020019081526020016000208190555081600360008573ffffffffffffffffffffffffffffffffffffffff1673ffffffffffffffffffffffffffffffffffffffff16815260200190815260200160002060008282546125dd9190614ac5565b925050819055508273ffffffffffffffffffffffffffffffffffffffff168473ffffffffffffffffffffffffffffffffffffffff167fddf252ad1be2c89b69c2b068fc378daa952ba7f163c4a11628f55a4df523b3ef84604051612641919061490c565b60405180910390a350505050565b505050505050565b6126768473ffffffffffffffffffffffffffffffffffffffff1661326c565b1561281f578373ffffffffffffffffffffffffffffffffffffffff1663bc197c8187878686866040518663ffffffff1660e01b81526004016126bc959493929190614474565b602060405180830381600087803b1580156126d657600080fd5b505af192505050801561270757506040513d601f19601f820116820180604052508101906127049190613896565b60015b61279657612713614d38565b8061271e575061275b565b806040517f08c379a000000000000000000000000000000000000000000000000000000000815260040161275291906145aa565b60405180910390fd5b6040517f08c379a000000000000000000000000000000000000000000000000000000000815260040161278d906145cc565b60405180910390fd5b63bc197c8160e01b7bffffffffffffffffffffffffffffffffffffffffffffffffffffffff1916817bffffffffffffffffffffffffffffffffffffffffffffffffffffffff19161461281d576040517f08c379a00000000000000000000000000000000000000000000000000000000081526004016128149061460c565b60405180910390fd5b505b505050505050565b600073ffffffffffffffffffffffffffffffffffffffff168473ffffffffffffffffffffffffffffffffffffffff161415612897576040517f08c379a000000000000000000000000000000000000000000000000000000000815260040161288e906148ac565b60405180910390fd5b60006128a16121fa565b90506128c2816000876128b388612d80565b6128bc88612d80565b8761264f565b8260008086815260200190815260200160002060008773ffffffffffffffffffffffffffffffffffffffff1673ffffffffffffffffffffffffffffffffffffffff16815260200190815260200160002060008282546129219190614ac5565b925050819055508473ffffffffffffffffffffffffffffffffffffffff16600073ffffffffffffffffffffffffffffffffffffffff168273ffffffffffffffffffffffffffffffffffffffff167fc3d58168c5ae7397731d063d5bbf3d657854427343f4c083240f7aacaa2d0f62878760405161299f929190614927565b60405180910390a46129b681600087878787612e46565b5050505050565b600080600090505b600c80549050811015612a8757600c8181548110612a0c577f4e487b7100000000000000000000000000000000000000000000000000000000600052603260045260246000fd5b9060005260206000200160009054906101000a900473ffffffffffffffffffffffffffffffffffffffff1673ffffffffffffffffffffffffffffffffffffffff168373ffffffffffffffffffffffffffffffffffffffff161415612a735760019150612a8f565b600181612a809190614ac5565b90506129c5565b600080915091505b915091565b600080612aa0836129bd565b915091508115612c1057600c6001600c80549050612abe9190614b1b565b81548110612af5577f4e487b7100000000000000000000000000000000000000000000000000000000600052603260045260246000fd5b9060005260206000200160009054906101000a900473ffffffffffffffffffffffffffffffffffffffff16600c8281548110612b5a577f4e487b7100000000000000000000000000000000000000000000000000000000600052603260045260246000fd5b9060005260206000200160006101000a81548173ffffffffffffffffffffffffffffffffffffffff021916908373ffffffffffffffffffffffffffffffffffffffff160217905550600c805480612bda577f4e487b7100000000000000000000000000000000000000000000000000000000600052603160045260246000fd5b6001900381819060005260206000200160006101000a81549073ffffffffffffffffffffffffffffffffffffffff021916905590555b505050565b600073ffffffffffffffffffffffffffffffffffffffff168273ffffffffffffffffffffffffffffffffffffffff161415612c85576040517f08c379a0000000000000000000000000000000000000000000000000000000008152600401612c7c906148ec565b60405180910390fd5b612c9160008383613267565b8060056000828254612ca39190614ac5565b9250508190555080600360008473ffffffffffffffffffffffffffffffffffffffff1673ffffffffffffffffffffffffffffffffffffffff1681526020019081526020016000206000828254612cf99190614ac5565b925050819055508173ffffffffffffffffffffffffffffffffffffffff16600073ffffffffffffffffffffffffffffffffffffffff167fddf252ad1be2c89b69c2b068fc378daa952ba7f163c4a11628f55a4df523b3ef83604051612d5e919061490c565b60405180910390a35050565b60008183612d789190614ac5565b905092915050565b60606000600167ffffffffffffffff811115612dc5577f4e487b7100000000000000000000000000000000000000000000000000000000600052604160045260246000fd5b604051908082528060200260200182016040528015612df35781602001602082028036833780820191505090505b5090508281600081518110612e31577f4e487b7100000000000000000000000000000000000000000000000000000000600052603260045260246000fd5b60200260200101818152505080915050919050565b612e658473ffffffffffffffffffffffffffffffffffffffff1661326c565b1561300e578373ffffffffffffffffffffffffffffffffffffffff1663f23a6e6187878686866040518663ffffffff1660e01b8152600401612eab9594939291906144dc565b602060405180830381600087803b158015612ec557600080fd5b505af1925050508015612ef657506040513d601f19601f82011682018060405250810190612ef39190613896565b60015b612f8557612f02614d38565b80612f0d5750612f4a565b806040517f08c379a0000000000000000000000000000000000000000000000000000000008152600401612f4191906145aa565b60405180910390fd5b6040517f08c379a0000000000000000000000000000000000000000000000000000000008152600401612f7c906145cc565b60405180910390fd5b63f23a6e6160e01b7bffffffffffffffffffffffffffffffffffffffffffffffffffffffff1916817bffffffffffffffffffffffffffffffffffffffffffffffffffffffff19161461300c576040517f08c379a00000000000000000000000000000000000000000000000000000000081526004016130039061460c565b60405180910390fd5b505b505050505050565b600073ffffffffffffffffffffffffffffffffffffffff168273ffffffffffffffffffffffffffffffffffffffff161415613086576040517f08c379a000000000000000000000000000000000000000000000000000000000815260040161307d906147cc565b60405180910390fd5b61309282600083613267565b6000600360008473ffffffffffffffffffffffffffffffffffffffff1673ffffffffffffffffffffffffffffffffffffffff16815260200190815260200160002054905081811015613119576040517f08c379a00000000000000000000000000000000000000000000000000000000081526004016131109061462c565b60405180910390fd5b81816131259190614b1b565b600360008573ffffffffffffffffffffffffffffffffffffffff1673ffffffffffffffffffffffffffffffffffffffff16815260200190815260200160002081905550816005600082825461317a9190614b1b565b92505081905550600073ffffffffffffffffffffffffffffffffffffffff168373ffffffffffffffffffffffffffffffffffffffff167fddf252ad1be2c89b69c2b068fc378daa952ba7f163c4a11628f55a4df523b3ef846040516131df919061490c565b60405180910390a3505050565b60006131f7826129bd565b5090508061326357600c829080600181540180825580915050600190039060005260206000200160009091909190916101000a81548173ffffffffffffffffffffffffffffffffffffffff021916908373ffffffffffffffffffffffffffffffffffffffff1602179055505b5050565b505050565b600080823b905060008111915050919050565b82805461328b90614c12565b90600052602060002090601f0160209004810192826132ad57600085556132f4565b82601f106132c657805160ff19168380011785556132f4565b828001600101855582156132f4579182015b828111156132f35782518255916020019190600101906132d8565b5b5090506133019190613305565b5090565b5b8082111561331e576000816000905550600101613306565b5090565b60006133356133308461499c565b61496b565b9050808382526020820190508285602086028201111561335457600080fd5b60005b85811015613384578161336a8882613476565b845260208401935060208301925050600181019050613357565b5050509392505050565b60006133a161339c846149c8565b61496b565b905080838252602082019050828560208602820111156133c057600080fd5b60005b858110156133f057816133d68882613572565b8452602084019350602083019250506001810190506133c3565b5050509392505050565b600061340d613408846149f4565b61496b565b90508281526020810184848401111561342557600080fd5b613430848285614bd0565b509392505050565b600061344b61344684614a24565b61496b565b90508281526020810184848401111561346357600080fd5b61346e848285614bd0565b509392505050565b60008135905061348581614dee565b92915050565b600082601f83011261349c57600080fd5b81356134ac848260208601613322565b91505092915050565b600082601f8301126134c657600080fd5b81356134d684826020860161338e565b91505092915050565b6000813590506134ee81614e05565b92915050565b60008135905061350381614e1c565b92915050565b60008151905061351881614e1c565b92915050565b600082601f83011261352f57600080fd5b813561353f8482602086016133fa565b91505092915050565b600082601f83011261355957600080fd5b8135613569848260208601613438565b91505092915050565b60008135905061358181614e33565b92915050565b60006020828403121561359957600080fd5b60006135a784828501613476565b91505092915050565b600080604083850312156135c357600080fd5b60006135d185828601613476565b92505060206135e285828601613476565b9150509250929050565b600080600080600060a0868803121561360457600080fd5b600061361288828901613476565b955050602061362388828901613476565b945050604086013567ffffffffffffffff81111561364057600080fd5b61364c888289016134b5565b935050606086013567ffffffffffffffff81111561366957600080fd5b613675888289016134b5565b925050608086013567ffffffffffffffff81111561369257600080fd5b61369e8882890161351e565b9150509295509295909350565b6000806000606084860312156136c057600080fd5b60006136ce86828701613476565b93505060206136df86828701613476565b92505060406136f086828701613572565b9150509250925092565b600080600080600060a0868803121561371257600080fd5b600061372088828901613476565b955050602061373188828901613476565b945050604061374288828901613572565b935050606061375388828901613572565b925050608086013567ffffffffffffffff81111561377057600080fd5b61377c8882890161351e565b9150509295509295909350565b6000806040838503121561379c57600080fd5b60006137aa85828601613476565b92505060206137bb858286016134df565b9150509250929050565b600080604083850312156137d857600080fd5b60006137e685828601613476565b92505060206137f785828601613572565b9150509250929050565b6000806040838503121561381457600080fd5b600083013567ffffffffffffffff81111561382e57600080fd5b61383a8582860161348b565b925050602083013567ffffffffffffffff81111561385757600080fd5b613863858286016134b5565b9150509250929050565b60006020828403121561387f57600080fd5b600061388d848285016134f4565b91505092915050565b6000602082840312156138a857600080fd5b60006138b684828501613509565b91505092915050565b600080604083850312156138d257600080fd5b600083013567ffffffffffffffff8111156138ec57600080fd5b6138f885828601613548565b925050602061390985828601613476565b9150509250929050565b60006020828403121561392557600080fd5b600061393384828501613572565b91505092915050565b6000613948838361442c565b60208301905092915050565b61395d81614b4f565b82525050565b600061396e82614a64565b6139788185614a92565b935061398383614a54565b8060005b838110156139b457815161399b888261393c565b97506139a683614a85565b925050600181019050613987565b5085935050505092915050565b6139ca81614b61565b82525050565b60006139db82614a6f565b6139e58185614aa3565b93506139f5818560208601614bdf565b6139fe81614d1a565b840191505092915050565b6000613a1482614a7a565b613a1e8185614ab4565b9350613a2e818560208601614bdf565b613a3781614d1a565b840191505092915050565b6000613a4f603483614ab4565b91507f455243313135353a207472616e7366657220746f206e6f6e204552433131353560008301527f526563656976657220696d706c656d656e7465720000000000000000000000006020830152604082019050919050565b6000613ab5602383614ab4565b91507f45524332303a207472616e7366657220746f20746865207a65726f206164647260008301527f65737300000000000000000000000000000000000000000000000000000000006020830152604082019050919050565b6000613b1b602883614ab4565b91507f455243313135353a204552433131353552656365697665722072656a6563746560008301527f6420746f6b656e730000000000000000000000000000000000000000000000006020830152604082019050919050565b6000613b81602283614ab4565b91507f45524332303a206275726e20616d6f756e7420657863656564732062616c616e60008301527f63650000000000000000000000000000000000000000000000000000000000006020830152604082019050919050565b6000613be7602b83614ab4565b91507f455243313135353a2062616c616e636520717565727920666f7220746865207a60008301527f65726f20616464726573730000000000000000000000000000000000000000006020830152604082019050919050565b6000613c4d602683614ab4565b91507f4f776e61626c653a206e6577206f776e657220697320746865207a65726f206160008301527f64647265737300000000000000000000000000000000000000000000000000006020830152604082019050919050565b6000613cb3602283614ab4565b91507f45524332303a20617070726f766520746f20746865207a65726f20616464726560008301527f73730000000000000000000000000000000000000000000000000000000000006020830152604082019050919050565b6000613d19603a83614ab4565b91507f596f7520617265206e6f742061207665726966696361746f722c20736f20796f60008301527f752063616e277420776974686472617720616e79207374616b650000000000006020830152604082019050919050565b6000613d7f602983614ab4565b91507f455243313135353a2063616c6c6572206973206e6f74206f776e6572206e6f7260008301527f20617070726f76656400000000000000000000000000000000000000000000006020830152604082019050919050565b6000613de5602683614ab4565b91507f45524332303a207472616e7366657220616d6f756e742065786365656473206260008301527f616c616e636500000000000000000000000000000000000000000000000000006020830152604082019050919050565b6000613e4b601b83614ab4565b91507f596f752061726520616c7265616479207665726966696361746f7200000000006000830152602082019050919050565b6000613e8b602583614ab4565b91507f455243313135353a207472616e7366657220746f20746865207a65726f20616460008301527f64726573730000000000000000000000000000000000000000000000000000006020830152604082019050919050565b6000613ef1603283614ab4565b91507f455243313135353a207472616e736665722063616c6c6572206973206e6f742060008301527f6f776e6572206e6f7220617070726f76656400000000000000000000000000006020830152604082019050919050565b6000613f57602a83614ab4565b91507f455243313135353a20696e73756666696369656e742062616c616e636520666f60008301527f72207472616e73666572000000000000000000000000000000000000000000006020830152604082019050919050565b6000613fbd602883614ab4565b91507f45524332303a207472616e7366657220616d6f756e742065786365656473206160008301527f6c6c6f77616e63650000000000000000000000000000000000000000000000006020830152604082019050919050565b6000614023602083614ab4565b91507f4f776e61626c653a2063616c6c6572206973206e6f7420746865206f776e65726000830152602082019050919050565b6000614063602183614ab4565b91507f45524332303a206275726e2066726f6d20746865207a65726f2061646472657360008301527f73000000000000000000000000000000000000000000000000000000000000006020830152604082019050919050565b60006140c9602583614ab4565b91507f45524332303a207472616e736665722066726f6d20746865207a65726f20616460008301527f64726573730000000000000000000000000000000000000000000000000000006020830152604082019050919050565b600061412f602483614ab4565b91507f45524332303a20617070726f76652066726f6d20746865207a65726f2061646460008301527f72657373000000000000000000000000000000000000000000000000000000006020830152604082019050919050565b6000614195602983614ab4565b91507f455243313135353a2073657474696e6720617070726f76616c2073746174757360008301527f20666f722073656c6600000000000000000000000000000000000000000000006020830152604082019050919050565b60006141fb602983614ab4565b91507f455243313135353a206163636f756e747320616e6420696473206c656e67746860008301527f206d69736d6174636800000000000000000000000000000000000000000000006020830152604082019050919050565b6000614261603183614ab4565b91507f596f7520617265206e6f74207665726966696361746f722c20736f20796f752060008301527f646f6e27742068617665207374616b652e0000000000000000000000000000006020830152604082019050919050565b60006142c7602883614ab4565b91507f455243313135353a2069647320616e6420616d6f756e7473206c656e6774682060008301527f6d69736d617463680000000000000000000000000000000000000000000000006020830152604082019050919050565b600061432d602183614ab4565b91507f455243313135353a206d696e7420746f20746865207a65726f2061646472657360008301527f73000000000000000000000000000000000000000000000000000000000000006020830152604082019050919050565b6000614393602583614ab4565b91507f45524332303a2064656372656173656420616c6c6f77616e63652062656c6f7760008301527f207a65726f0000000000000000000000000000000000000000000000000000006020830152604082019050919050565b60006143f9601f83614ab4565b91507f45524332303a206d696e7420746f20746865207a65726f2061646472657373006000830152602082019050919050565b61443581614bb9565b82525050565b61444481614bb9565b82525050565b61445381614bc3565b82525050565b600060208201905061446e6000830184613954565b92915050565b600060a0820190506144896000830188613954565b6144966020830187613954565b81810360408301526144a88186613963565b905081810360608301526144bc8185613963565b905081810360808301526144d081846139d0565b90509695505050505050565b600060a0820190506144f16000830188613954565b6144fe6020830187613954565b61450b604083018661443b565b614518606083018561443b565b818103608083015261452a81846139d0565b90509695505050505050565b600060208201905081810360008301526145508184613963565b905092915050565b600060408201905081810360008301526145728185613963565b905081810360208301526145868184613963565b90509392505050565b60006020820190506145a460008301846139c1565b92915050565b600060208201905081810360008301526145c48184613a09565b905092915050565b600060208201905081810360008301526145e581613a42565b9050919050565b6000602082019050818103600083015261460581613aa8565b9050919050565b6000602082019050818103600083015261462581613b0e565b9050919050565b6000602082019050818103600083015261464581613b74565b9050919050565b6000602082019050818103600083015261466581613bda565b9050919050565b6000602082019050818103600083015261468581613c40565b9050919050565b600060208201905081810360008301526146a581613ca6565b9050919050565b600060208201905081810360008301526146c581613d0c565b9050919050565b600060208201905081810360008301526146e581613d72565b9050919050565b6000602082019050818103600083015261470581613dd8565b9050919050565b6000602082019050818103600083015261472581613e3e565b9050919050565b6000602082019050818103600083015261474581613e7e565b9050919050565b6000602082019050818103600083015261476581613ee4565b9050919050565b6000602082019050818103600083015261478581613f4a565b9050919050565b600060208201905081810360008301526147a581613fb0565b9050919050565b600060208201905081810360008301526147c581614016565b9050919050565b600060208201905081810360008301526147e581614056565b9050919050565b60006020820190508181036000830152614805816140bc565b9050919050565b6000602082019050818103600083015261482581614122565b9050919050565b6000602082019050818103600083015261484581614188565b9050919050565b60006020820190508181036000830152614865816141ee565b9050919050565b6000602082019050818103600083015261488581614254565b9050919050565b600060208201905081810360008301526148a5816142ba565b9050919050565b600060208201905081810360008301526148c581614320565b9050919050565b600060208201905081810360008301526148e581614386565b9050919050565b60006020820190508181036000830152614905816143ec565b9050919050565b6000602082019050614921600083018461443b565b92915050565b600060408201905061493c600083018561443b565b614949602083018461443b565b9392505050565b6000602082019050614965600083018461444a565b92915050565b6000604051905081810181811067ffffffffffffffff8211171561499257614991614ceb565b5b8060405250919050565b600067ffffffffffffffff8211156149b7576149b6614ceb565b5b602082029050602081019050919050565b600067ffffffffffffffff8211156149e3576149e2614ceb565b5b602082029050602081019050919050565b600067ffffffffffffffff821115614a0f57614a0e614ceb565b5b601f19601f8301169050602081019050919050565b600067ffffffffffffffff821115614a3f57614a3e614ceb565b5b601f19601f8301169050602081019050919050565b6000819050602082019050919050565b600081519050919050565b600081519050919050565b600081519050919050565b6000602082019050919050565b600082825260208201905092915050565b600082825260208201905092915050565b600082825260208201905092915050565b6000614ad082614bb9565b9150614adb83614bb9565b9250827fffffffffffffffffffffffffffffffffffffffffffffffffffffffffffffffff03821115614b1057614b0f614c8d565b5b828201905092915050565b6000614b2682614bb9565b9150614b3183614bb9565b925082821015614b4457614b43614c8d565b5b828203905092915050565b6000614b5a82614b99565b9050919050565b60008115159050919050565b60007fffffffff0000000000000000000000000000000000000000000000000000000082169050919050565b600073ffffffffffffffffffffffffffffffffffffffff82169050919050565b6000819050919050565b600060ff82169050919050565b82818337600083830152505050565b60005b83811015614bfd578082015181840152602081019050614be2565b83811115614c0c576000848401525b50505050565b60006002820490506001821680614c2a57607f821691505b60208210811415614c3e57614c3d614cbc565b5b50919050565b6000614c4f82614bb9565b91507fffffffffffffffffffffffffffffffffffffffffffffffffffffffffffffffff821415614c8257614c81614c8d565b5b600182019050919050565b7f4e487b7100000000000000000000000000000000000000000000000000000000600052601160045260246000fd5b7f4e487b7100000000000000000000000000000000000000000000000000000000600052602260045260246000fd5b7f4e487b7100000000000000000000000000000000000000000000000000000000600052604160045260246000fd5b6000601f19601f8301169050919050565b60008160e01c9050919050565b600060443d1015614d4857614deb565b60046000803e614d59600051614d2b565b6308c379a08114614d6a5750614deb565b60405160043d036004823e80513d602482011167ffffffffffffffff82111715614d9657505050614deb565b808201805167ffffffffffffffff811115614db5575050505050614deb565b8060208301013d8501811115614dd057505050505050614deb565b614dd982614d1a565b60208401016040528296505050505050505b90565b614df781614b4f565b8114614e0257600080fd5b50565b614e0e81614b61565b8114614e1957600080fd5b50565b614e2581614b6d565b8114614e3057600080fd5b50565b614e3c81614bb9565b8114614e4757600080fd5b5056fea2646970667358221220aa5370f7daf835ebd3b25e6b40ac1d0bd9c1ba01742c3efa461d0d4f957162a264736f6c63430008000033",
  "immutableReferences": {},
  "source": "pragma solidity ^0.8.0;\r\n\r\n// SPDX-License-Identifier: MIT\r\n\r\nimport \"@openzeppelin/contracts/token/ERC1155/ERC1155.sol\";\r\nimport \"./Jobcoin.sol\";\r\n\r\n\r\n\r\ncontract Trashtag is ERC1155, Jobcoin{\r\n\r\n\r\n\r\n\r\n    mapping(address => mapping(uint256 => string)) tokenURI;\r\n    mapping(address => uint) NFTAmount;\r\n\r\n\r\n\r\n\r\n    constructor() public ERC1155(\"\") {\r\n    }\r\n\r\n\r\n\r\n    //This function will be an OnlyOwner in the production version\r\n    function rewardTrashtagWarrior(string memory _uri, address _to)public {\r\n\r\n\r\n        //id 0 is for the coin, so NFT's id start at 1\r\n        NFTAmount[_to] ++;\r\n\r\n        //Id's of toeken is determined by the amount store in struct\r\n        uint id = NFTAmount[_to];\r\n\r\n        tokenURI[_to][id] = _uri;\r\n\r\n        _mint(_to, id, 1, \"\"); //NFT\r\n\r\n    }\r\n\r\n\r\n\r\n    function getAmountNFT(address _receiver) public view returns(uint){\r\n        return NFTAmount[_receiver];\r\n    }\r\n\r\n\r\n\r\n\r\n    function getURI(uint _tokenId)public view returns(string memory){\r\n        string memory hashURI = tokenURI[msg.sender][_tokenId];\r\n        return hashURI;\r\n    }\r\n}\r\n\r\n\r\n\r\n\r\n\r\n",
  "sourcePath": "C:/Users/FourbeurFourmi/Desktop/Projet Eco Token/V1 React-Typescript/trash-tag-dapp/contracts/Trashtag.sol",
  "compiler": {
    "name": "solc",
    "version": "0.8.0+commit.c7dfd78e.Emscripten.clang"
  },
  "schemaVersion": "3.3.4",
  "updatedAt": "2021-07-26T12:36:18.318Z",
  "devdoc": {
    "kind": "dev",
    "methods": {
      "allowance(address,address)": {
        "details": "See {IERC20-allowance}."
      },
      "approve(address,uint256)": {
        "details": "See {IERC20-approve}. Requirements: - `spender` cannot be the zero address."
      },
      "balanceOf(address)": {
        "details": "See {IERC20-balanceOf}."
      },
      "balanceOf(address,uint256)": {
        "details": "See {IERC1155-balanceOf}. Requirements: - `account` cannot be the zero address."
      },
      "balanceOfBatch(address[],uint256[])": {
        "details": "See {IERC1155-balanceOfBatch}. Requirements: - `accounts` and `ids` must have the same length."
      },
      "decimals()": {
        "details": "Returns the number of decimals used to get its user representation. For example, if `decimals` equals `2`, a balance of `505` tokens should be displayed to a user as `5,05` (`505 / 10 ** 2`). Tokens usually opt for a value of 18, imitating the relationship between Ether and Wei. This is the value {ERC20} uses, unless this function is overridden; NOTE: This information is only used for _display_ purposes: it in no way affects any of the arithmetic of the contract, including {IERC20-balanceOf} and {IERC20-transfer}."
      },
      "decreaseAllowance(address,uint256)": {
        "details": "Atomically decreases the allowance granted to `spender` by the caller. This is an alternative to {approve} that can be used as a mitigation for problems described in {IERC20-approve}. Emits an {Approval} event indicating the updated allowance. Requirements: - `spender` cannot be the zero address. - `spender` must have allowance for the caller of at least `subtractedValue`."
      },
      "increaseAllowance(address,uint256)": {
        "details": "Atomically increases the allowance granted to `spender` by the caller. This is an alternative to {approve} that can be used as a mitigation for problems described in {IERC20-approve}. Emits an {Approval} event indicating the updated allowance. Requirements: - `spender` cannot be the zero address."
      },
      "isApprovedForAll(address,address)": {
        "details": "See {IERC1155-isApprovedForAll}."
      },
      "name()": {
        "details": "Returns the name of the token."
      },
      "owner()": {
        "details": "Returns the address of the current owner."
      },
      "renounceOwnership()": {
        "details": "Leaves the contract without owner. It will not be possible to call `onlyOwner` functions anymore. Can only be called by the current owner. NOTE: Renouncing ownership will leave the contract without an owner, thereby removing any functionality that is only available to the owner."
      },
      "safeBatchTransferFrom(address,address,uint256[],uint256[],bytes)": {
        "details": "See {IERC1155-safeBatchTransferFrom}."
      },
      "safeTransferFrom(address,address,uint256,uint256,bytes)": {
        "details": "See {IERC1155-safeTransferFrom}."
      },
      "setApprovalForAll(address,bool)": {
        "details": "See {IERC1155-setApprovalForAll}."
      },
      "supportsInterface(bytes4)": {
        "details": "See {IERC165-supportsInterface}."
      },
      "symbol()": {
        "details": "Returns the symbol of the token, usually a shorter version of the name."
      },
      "totalStakes()": {
        "returns": {
          "_0": "uint256 The aggregated stakes from all stakeholders."
        }
      },
      "totalSupply()": {
        "details": "See {IERC20-totalSupply}."
      },
      "transfer(address,uint256)": {
        "details": "See {IERC20-transfer}. Requirements: - `recipient` cannot be the zero address. - the caller must have a balance of at least `amount`."
      },
      "transferFrom(address,address,uint256)": {
        "details": "See {IERC20-transferFrom}. Emits an {Approval} event indicating the updated allowance. This is not required by the EIP. See the note at the beginning of {ERC20}. Requirements: - `sender` and `recipient` cannot be the zero address. - `sender` must have a balance of at least `amount`. - the caller must have allowance for ``sender``'s tokens of at least `amount`."
      },
      "transferOwnership(address)": {
        "details": "Transfers ownership of the contract to a new account (`newOwner`). Can only be called by the current owner."
      },
      "uri(uint256)": {
        "details": "See {IERC1155MetadataURI-uri}. This implementation returns the same URI for *all* token types. It relies on the token type ID substitution mechanism https://eips.ethereum.org/EIPS/eip-1155#metadata[defined in the EIP]. Clients calling this function must replace the `\\{id\\}` substring with the actual token type ID."
      }
    },
    "version": 1
  },
  "userdoc": {
    "kind": "user",
    "methods": {
      "totalStakes()": {
        "notice": "A method to the aggregated stakes from all stakeholders."
      }
    },
    "version": 1
  }
}