{
  "contractName": "TrashtagDAPP",
  "abi": [
    {
      "anonymous": false,
      "inputs": [
        {
          "indexed": true,
          "internalType": "address",
          "name": "owner",
          "type": "address"
        },
        {
          "indexed": true,
          "internalType": "address",
          "name": "spender",
          "type": "address"
        },
        {
          "indexed": false,
          "internalType": "uint256",
          "name": "value",
          "type": "uint256"
        }
      ],
      "name": "Approval",
      "type": "event"
    },
    {
      "anonymous": false,
      "inputs": [
        {
          "indexed": true,
          "internalType": "address",
          "name": "account",
          "type": "address"
        },
        {
          "indexed": true,
          "internalType": "address",
          "name": "operator",
          "type": "address"
        },
        {
          "indexed": false,
          "internalType": "bool",
          "name": "approved",
          "type": "bool"
        }
      ],
      "name": "ApprovalForAll",
      "type": "event"
    },
    {
      "anonymous": false,
      "inputs": [
        {
          "indexed": true,
          "internalType": "address",
          "name": "previousOwner",
          "type": "address"
        },
        {
          "indexed": true,
          "internalType": "address",
          "name": "newOwner",
          "type": "address"
        }
      ],
      "name": "OwnershipTransferred",
      "type": "event"
    },
    {
      "anonymous": false,
      "inputs": [
        {
          "indexed": true,
          "internalType": "address",
          "name": "from",
          "type": "address"
        },
        {
          "indexed": true,
          "internalType": "address",
          "name": "to",
          "type": "address"
        },
        {
          "indexed": false,
          "internalType": "uint256",
          "name": "value",
          "type": "uint256"
        }
      ],
      "name": "Transfer",
      "type": "event"
    },
    {
      "anonymous": false,
      "inputs": [
        {
          "indexed": true,
          "internalType": "address",
          "name": "operator",
          "type": "address"
        },
        {
          "indexed": true,
          "internalType": "address",
          "name": "from",
          "type": "address"
        },
        {
          "indexed": true,
          "internalType": "address",
          "name": "to",
          "type": "address"
        },
        {
          "indexed": false,
          "internalType": "uint256[]",
          "name": "ids",
          "type": "uint256[]"
        },
        {
          "indexed": false,
          "internalType": "uint256[]",
          "name": "values",
          "type": "uint256[]"
        }
      ],
      "name": "TransferBatch",
      "type": "event"
    },
    {
      "anonymous": false,
      "inputs": [
        {
          "indexed": true,
          "internalType": "address",
          "name": "operator",
          "type": "address"
        },
        {
          "indexed": true,
          "internalType": "address",
          "name": "from",
          "type": "address"
        },
        {
          "indexed": true,
          "internalType": "address",
          "name": "to",
          "type": "address"
        },
        {
          "indexed": false,
          "internalType": "uint256",
          "name": "id",
          "type": "uint256"
        },
        {
          "indexed": false,
          "internalType": "uint256",
          "name": "value",
          "type": "uint256"
        }
      ],
      "name": "TransferSingle",
      "type": "event"
    },
    {
      "anonymous": false,
      "inputs": [
        {
          "indexed": false,
          "internalType": "string",
          "name": "value",
          "type": "string"
        },
        {
          "indexed": true,
          "internalType": "uint256",
          "name": "id",
          "type": "uint256"
        }
      ],
      "name": "URI",
      "type": "event"
    },
    {
      "inputs": [],
      "name": "GetForTest",
      "outputs": [],
      "stateMutability": "nonpayable",
      "type": "function"
    },
    {
      "inputs": [
        {
          "internalType": "address",
          "name": "owner",
          "type": "address"
        },
        {
          "internalType": "address",
          "name": "spender",
          "type": "address"
        }
      ],
      "name": "allowance",
      "outputs": [
        {
          "internalType": "uint256",
          "name": "",
          "type": "uint256"
        }
      ],
      "stateMutability": "view",
      "type": "function",
      "constant": true
    },
    {
      "inputs": [
        {
          "internalType": "address",
          "name": "spender",
          "type": "address"
        },
        {
          "internalType": "uint256",
          "name": "amount",
          "type": "uint256"
        }
      ],
      "name": "approve",
      "outputs": [
        {
          "internalType": "bool",
          "name": "",
          "type": "bool"
        }
      ],
      "stateMutability": "nonpayable",
      "type": "function"
    },
    {
      "inputs": [
        {
          "internalType": "address",
          "name": "account",
          "type": "address"
        },
        {
          "internalType": "uint256",
          "name": "id",
          "type": "uint256"
        }
      ],
      "name": "balanceOf",
      "outputs": [
        {
          "internalType": "uint256",
          "name": "",
          "type": "uint256"
        }
      ],
      "stateMutability": "view",
      "type": "function",
      "constant": true
    },
    {
      "inputs": [
        {
          "internalType": "address",
          "name": "account",
          "type": "address"
        }
      ],
      "name": "balanceOf",
      "outputs": [
        {
          "internalType": "uint256",
          "name": "",
          "type": "uint256"
        }
      ],
      "stateMutability": "view",
      "type": "function",
      "constant": true
    },
    {
      "inputs": [
        {
          "internalType": "address[]",
          "name": "accounts",
          "type": "address[]"
        },
        {
          "internalType": "uint256[]",
          "name": "ids",
          "type": "uint256[]"
        }
      ],
      "name": "balanceOfBatch",
      "outputs": [
        {
          "internalType": "uint256[]",
          "name": "",
          "type": "uint256[]"
        }
      ],
      "stateMutability": "view",
      "type": "function",
      "constant": true
    },
    {
      "inputs": [],
      "name": "becomeVerificator",
      "outputs": [],
      "stateMutability": "nonpayable",
      "type": "function"
    },
    {
      "inputs": [],
      "name": "decimals",
      "outputs": [
        {
          "internalType": "uint8",
          "name": "",
          "type": "uint8"
        }
      ],
      "stateMutability": "view",
      "type": "function",
      "constant": true
    },
    {
      "inputs": [
        {
          "internalType": "address",
          "name": "spender",
          "type": "address"
        },
        {
          "internalType": "uint256",
          "name": "subtractedValue",
          "type": "uint256"
        }
      ],
      "name": "decreaseAllowance",
      "outputs": [
        {
          "internalType": "bool",
          "name": "",
          "type": "bool"
        }
      ],
      "stateMutability": "nonpayable",
      "type": "function"
    },
    {
      "inputs": [
        {
          "internalType": "address",
          "name": "_receiver",
          "type": "address"
        }
      ],
      "name": "getAmountNFT",
      "outputs": [
        {
          "internalType": "uint256",
          "name": "",
          "type": "uint256"
        }
      ],
      "stateMutability": "view",
      "type": "function",
      "constant": true
    },
    {
      "inputs": [],
      "name": "getAmountReward",
      "outputs": [
        {
          "internalType": "uint256",
          "name": "",
          "type": "uint256"
        }
      ],
      "stateMutability": "view",
      "type": "function",
      "constant": true
    },
    {
      "inputs": [],
      "name": "getAmountVerifReward",
      "outputs": [
        {
          "internalType": "uint256",
          "name": "",
          "type": "uint256"
        }
      ],
      "stateMutability": "view",
      "type": "function",
      "constant": true
    },
    {
      "inputs": [],
      "name": "getAmountVerifStake",
      "outputs": [
        {
          "internalType": "uint256",
          "name": "",
          "type": "uint256"
        }
      ],
      "stateMutability": "view",
      "type": "function",
      "constant": true
    },
    {
      "inputs": [
        {
          "internalType": "uint256",
          "name": "_tokenId",
          "type": "uint256"
        }
      ],
      "name": "getURI",
      "outputs": [
        {
          "internalType": "string",
          "name": "",
          "type": "string"
        }
      ],
      "stateMutability": "view",
      "type": "function",
      "constant": true
    },
    {
      "inputs": [
        {
          "internalType": "address",
          "name": "spender",
          "type": "address"
        },
        {
          "internalType": "uint256",
          "name": "addedValue",
          "type": "uint256"
        }
      ],
      "name": "increaseAllowance",
      "outputs": [
        {
          "internalType": "bool",
          "name": "",
          "type": "bool"
        }
      ],
      "stateMutability": "nonpayable",
      "type": "function"
    },
    {
      "inputs": [
        {
          "internalType": "address",
          "name": "account",
          "type": "address"
        },
        {
          "internalType": "address",
          "name": "operator",
          "type": "address"
        }
      ],
      "name": "isApprovedForAll",
      "outputs": [
        {
          "internalType": "bool",
          "name": "",
          "type": "bool"
        }
      ],
      "stateMutability": "view",
      "type": "function",
      "constant": true
    },
    {
      "inputs": [],
      "name": "isVerificator",
      "outputs": [
        {
          "internalType": "bool",
          "name": "res",
          "type": "bool"
        },
        {
          "internalType": "uint256",
          "name": "s",
          "type": "uint256"
        }
      ],
      "stateMutability": "view",
      "type": "function",
      "constant": true
    },
    {
      "inputs": [],
      "name": "name",
      "outputs": [
        {
          "internalType": "string",
          "name": "",
          "type": "string"
        }
      ],
      "stateMutability": "view",
      "type": "function",
      "constant": true
    },
    {
      "inputs": [],
      "name": "owner",
      "outputs": [
        {
          "internalType": "address",
          "name": "",
          "type": "address"
        }
      ],
      "stateMutability": "view",
      "type": "function",
      "constant": true
    },
    {
      "inputs": [],
      "name": "renounceOwnership",
      "outputs": [],
      "stateMutability": "nonpayable",
      "type": "function"
    },
    {
      "inputs": [
        {
          "internalType": "string",
          "name": "_uri",
          "type": "string"
        },
        {
          "internalType": "address",
          "name": "_to",
          "type": "address"
        }
      ],
      "name": "rewardTrashtagWarrior",
      "outputs": [],
      "stateMutability": "nonpayable",
      "type": "function"
    },
    {
      "inputs": [
        {
          "internalType": "address",
          "name": "from",
          "type": "address"
        },
        {
          "internalType": "address",
          "name": "to",
          "type": "address"
        },
        {
          "internalType": "uint256[]",
          "name": "ids",
          "type": "uint256[]"
        },
        {
          "internalType": "uint256[]",
          "name": "amounts",
          "type": "uint256[]"
        },
        {
          "internalType": "bytes",
          "name": "data",
          "type": "bytes"
        }
      ],
      "name": "safeBatchTransferFrom",
      "outputs": [],
      "stateMutability": "nonpayable",
      "type": "function"
    },
    {
      "inputs": [
        {
          "internalType": "address",
          "name": "from",
          "type": "address"
        },
        {
          "internalType": "address",
          "name": "to",
          "type": "address"
        },
        {
          "internalType": "uint256",
          "name": "id",
          "type": "uint256"
        },
        {
          "internalType": "uint256",
          "name": "amount",
          "type": "uint256"
        },
        {
          "internalType": "bytes",
          "name": "data",
          "type": "bytes"
        }
      ],
      "name": "safeTransferFrom",
      "outputs": [],
      "stateMutability": "nonpayable",
      "type": "function"
    },
    {
      "inputs": [
        {
          "internalType": "address",
          "name": "operator",
          "type": "address"
        },
        {
          "internalType": "bool",
          "name": "approved",
          "type": "bool"
        }
      ],
      "name": "setApprovalForAll",
      "outputs": [],
      "stateMutability": "nonpayable",
      "type": "function"
    },
    {
      "inputs": [],
      "name": "stakeOf",
      "outputs": [
        {
          "internalType": "uint256",
          "name": "",
          "type": "uint256"
        }
      ],
      "stateMutability": "view",
      "type": "function",
      "constant": true
    },
    {
      "inputs": [
        {
          "internalType": "bytes4",
          "name": "interfaceId",
          "type": "bytes4"
        }
      ],
      "name": "supportsInterface",
      "outputs": [
        {
          "internalType": "bool",
          "name": "",
          "type": "bool"
        }
      ],
      "stateMutability": "view",
      "type": "function",
      "constant": true
    },
    {
      "inputs": [],
      "name": "symbol",
      "outputs": [
        {
          "internalType": "string",
          "name": "",
          "type": "string"
        }
      ],
      "stateMutability": "view",
      "type": "function",
      "constant": true
    },
    {
      "inputs": [],
      "name": "totalStakes",
      "outputs": [
        {
          "internalType": "uint256",
          "name": "",
          "type": "uint256"
        }
      ],
      "stateMutability": "view",
      "type": "function",
      "constant": true
    },
    {
      "inputs": [],
      "name": "totalSupply",
      "outputs": [
        {
          "internalType": "uint256",
          "name": "",
          "type": "uint256"
        }
      ],
      "stateMutability": "view",
      "type": "function",
      "constant": true
    },
    {
      "inputs": [
        {
          "internalType": "address",
          "name": "recipient",
          "type": "address"
        },
        {
          "internalType": "uint256",
          "name": "amount",
          "type": "uint256"
        }
      ],
      "name": "transfer",
      "outputs": [
        {
          "internalType": "bool",
          "name": "",
          "type": "bool"
        }
      ],
      "stateMutability": "nonpayable",
      "type": "function"
    },
    {
      "inputs": [
        {
          "internalType": "address",
          "name": "sender",
          "type": "address"
        },
        {
          "internalType": "address",
          "name": "recipient",
          "type": "address"
        },
        {
          "internalType": "uint256",
          "name": "amount",
          "type": "uint256"
        }
      ],
      "name": "transferFrom",
      "outputs": [
        {
          "internalType": "bool",
          "name": "",
          "type": "bool"
        }
      ],
      "stateMutability": "nonpayable",
      "type": "function"
    },
    {
      "inputs": [
        {
          "internalType": "address",
          "name": "newOwner",
          "type": "address"
        }
      ],
      "name": "transferOwnership",
      "outputs": [],
      "stateMutability": "nonpayable",
      "type": "function"
    },
    {
      "inputs": [
        {
          "internalType": "uint256",
          "name": "",
          "type": "uint256"
        }
      ],
      "name": "uri",
      "outputs": [
        {
          "internalType": "string",
          "name": "",
          "type": "string"
        }
      ],
      "stateMutability": "view",
      "type": "function",
      "constant": true
    },
    {
      "inputs": [],
      "name": "withdrawStake",
      "outputs": [],
      "stateMutability": "nonpayable",
      "type": "function"
    },
    {
      "inputs": [
        {
          "internalType": "string",
          "name": "_uri",
          "type": "string"
        },
        {
          "internalType": "address",
          "name": "_to",
          "type": "address"
        }
      ],
      "name": "NFTCreationForTest",
      "outputs": [],
      "stateMutability": "nonpayable",
      "type": "function"
    },
    {
      "inputs": [
        {
          "internalType": "string",
          "name": "_uri",
          "type": "string"
        }
      ],
      "name": "NeedToBeValidate",
      "outputs": [],
      "stateMutability": "nonpayable",
      "type": "function"
    },
    {
      "inputs": [],
      "name": "WaitingTobeValidate",
      "outputs": [
        {
          "internalType": "string",
          "name": "",
          "type": "string"
        }
      ],
      "stateMutability": "view",
      "type": "function",
      "constant": true
    },
    {
      "inputs": [],
      "name": "getWaitingList",
      "outputs": [
        {
          "internalType": "address",
          "name": "",
          "type": "address"
        }
      ],
      "stateMutability": "view",
      "type": "function",
      "constant": true
    },
    {
      "inputs": [
        {
          "internalType": "bool",
          "name": "_judgment",
          "type": "bool"
        }
      ],
      "name": "Verify",
      "outputs": [
        {
          "internalType": "bool",
          "name": "",
          "type": "bool"
        }
      ],
      "stateMutability": "nonpayable",
      "type": "function"
    }
  ],
  "bytecode": "0x60806040523480156200001157600080fd5b506040518060400160405280600781526020017f4a6f62436f696e000000000000000000000000000000000000000000000000008152506040518060400160405280600381526020017f4a42430000000000000000000000000000000000000000000000000000000000815250604051806020016040528060008152506200009f81620001b660201b60201c565b508160069080519060200190620000b892919062000345565b508060079080519060200190620000d192919062000345565b5050506000620000e6620001d260201b60201c565b905080600860006101000a81548173ffffffffffffffffffffffffffffffffffffffff021916908373ffffffffffffffffffffffffffffffffffffffff1602179055508073ffffffffffffffffffffffffffffffffffffffff16600073ffffffffffffffffffffffffffffffffffffffff167f8be0079c531659141344cd1fd0a4f28419497f9722a3daafe3b4186f6b6457e060405160405180910390a35062000198336000620001da60201b60201c565b6064600981905550600a80819055506103e8600b8190555062000593565b8060029080519060200190620001ce92919062000345565b5050565b600033905090565b600073ffffffffffffffffffffffffffffffffffffffff168273ffffffffffffffffffffffffffffffffffffffff1614156200024d576040517f08c379a0000000000000000000000000000000000000000000000000000000008152600401620002449062000448565b60405180910390fd5b62000261600083836200034060201b60201c565b806005600082825462000275919062000498565b9250508190555080600360008473ffffffffffffffffffffffffffffffffffffffff1673ffffffffffffffffffffffffffffffffffffffff1681526020019081526020016000206000828254620002cd919062000498565b925050819055508173ffffffffffffffffffffffffffffffffffffffff16600073ffffffffffffffffffffffffffffffffffffffff167fddf252ad1be2c89b69c2b068fc378daa952ba7f163c4a11628f55a4df523b3ef836040516200033491906200046a565b60405180910390a35050565b505050565b8280546200035390620004ff565b90600052602060002090601f016020900481019282620003775760008555620003c3565b82601f106200039257805160ff1916838001178555620003c3565b82800160010185558215620003c3579182015b82811115620003c2578251825591602001919060010190620003a5565b5b509050620003d29190620003d6565b5090565b5b80821115620003f1576000816000905550600101620003d7565b5090565b600062000404601f8362000487565b91507f45524332303a206d696e7420746f20746865207a65726f2061646472657373006000830152602082019050919050565b6200044281620004f5565b82525050565b600060208201905081810360008301526200046381620003f5565b9050919050565b600060208201905062000481600083018462000437565b92915050565b600082825260208201905092915050565b6000620004a582620004f5565b9150620004b283620004f5565b9250827fffffffffffffffffffffffffffffffffffffffffffffffffffffffffffffffff03821115620004ea57620004e962000535565b5b828201905092915050565b6000819050919050565b600060028204905060018216806200051857607f821691505b602082108114156200052f576200052e62000564565b5b50919050565b7f4e487b7100000000000000000000000000000000000000000000000000000000600052601160045260246000fd5b7f4e487b7100000000000000000000000000000000000000000000000000000000600052602260045260246000fd5b615c7780620005a36000396000f3fe608060405234801561001057600080fd5b506004361061023c5760003560e01c806389ba217f1161013b578063bf9befb1116100b8578063e3421c601161007c578063e3421c60146106f6578063e985e9c514610712578063f242432a14610742578063f2fde38b1461075e578063fe1601811461077a5761023c565b8063bf9befb114610650578063bfd8f4451461066e578063d6960d1214610678578063d7a3dff514610696578063dd62ed3e146106c65761023c565b8063a22cb465116100ff578063a22cb465146105ac578063a457c2d7146105c8578063a9059cbb146105f8578063bdde852814610628578063bed9d861146106465761023c565b806389ba217f146105065780638d333c91146105245780638da5cb5b1461054057806395d89b411461055e578063a0c1fc381461057c5761023c565b8063295e2f13116101c9578063588922261161018d578063588922261461047457806368604d731461049257806370a08231146104ae578063715018a6146104de57806379107e1d146104e85761023c565b8063295e2f13146103bb5780632eb2c2d6146103da578063313ce567146103f657806339509351146104145780634e1273f4146104445761023c565b8063095ea7b311610210578063095ea7b3146102dd5780630e89341c1461030d57806318160ddd1461033d5780631aa347dc1461035b57806323b872dd1461038b5761023c565b8062fdd58e1461024157806301ffc9a71461027157806306fdde03146102a1578063078d8cf8146102bf575b600080fd5b61025b600480360381019061025691906143cf565b610784565b604051610268919061560d565b60405180910390f35b61028b600480360381019061028691906144a0565b61084d565b6040516102989190615247565b60405180910390f35b6102a961092f565b6040516102b6919061528b565b60405180910390f35b6102c76109c1565b6040516102d49190615111565b60405180910390f35b6102f760048036038101906102f291906143cf565b610aeb565b6040516103049190615247565b60405180910390f35b6103276004803603810190610322919061458b565b610b09565b604051610334919061528b565b60405180910390f35b610345610b9d565b604051610352919061560d565b60405180910390f35b6103756004803603810190610370919061458b565b610ba7565b604051610382919061528b565b60405180910390f35b6103a560048036038101906103a091906142b5565b610c8f565b6040516103b29190615247565b60405180910390f35b6103c3610d90565b6040516103d1929190615262565b60405180910390f35b6103f460048036038101906103ef91906141f6565b610e66565b005b6103fe61125c565b60405161040b9190615651565b60405180910390f35b61042e600480360381019061042991906143cf565b611265565b60405161043b9190615247565b60405180910390f35b61045e6004803603810190610459919061440b565b611311565b60405161046b91906151ee565b60405180910390f35b61047c6114c2565b604051610489919061560d565b60405180910390f35b6104ac60048036038101906104a791906144f2565b6114cc565b005b6104c860048036038101906104c39190614191565b611571565b6040516104d5919061560d565b60405180910390f35b6104e66115ba565b005b6104f06116f7565b6040516104fd919061528b565b60405180910390f35b61050e6118b8565b60405161051b919061560d565b60405180910390f35b61053e60048036038101906105399190614537565b6118c2565b005b6105486119e1565b6040516105559190615111565b60405180910390f35b610566611a0b565b604051610573919061528b565b60405180910390f35b61059660048036038101906105919190614477565b611a9d565b6040516105a39190615247565b60405180910390f35b6105c660048036038101906105c19190614393565b611f28565b005b6105e260048036038101906105dd91906143cf565b6120a9565b6040516105ef9190615247565b60405180910390f35b610612600480360381019061060d91906143cf565b61219d565b60405161061f9190615247565b60405180910390f35b6106306121bb565b60405161063d919061560d565b60405180910390f35b61064e6121c5565b005b610658612280565b604051610665919061560d565b60405180910390f35b61067661236b565b005b610680612379565b60405161068d919061560d565b60405180910390f35b6106b060048036038101906106ab9190614191565b612414565b6040516106bd919061560d565b60405180910390f35b6106e060048036038101906106db91906141ba565b61245d565b6040516106ed919061560d565b60405180910390f35b610710600480360381019061070b9190614537565b6124e4565b005b61072c600480360381019061072791906141ba565b6124fb565b6040516107399190615247565b60405180910390f35b61075c60048036038101906107579190614304565b61258f565b005b61077860048036038101906107739190614191565b6128a7565b005b610782612a53565b005b60008073ffffffffffffffffffffffffffffffffffffffff168373ffffffffffffffffffffffffffffffffffffffff1614156107f5576040517f08c379a00000000000000000000000000000000000000000000000000000000081526004016107ec9061532d565b60405180910390fd5b60008083815260200190815260200160002060008473ffffffffffffffffffffffffffffffffffffffff1673ffffffffffffffffffffffffffffffffffffffff16815260200190815260200160002054905092915050565b60007fd9b67a26000000000000000000000000000000000000000000000000000000007bffffffffffffffffffffffffffffffffffffffffffffffffffffffff1916827bffffffffffffffffffffffffffffffffffffffffffffffffffffffff1916148061091857507f0e89341c000000000000000000000000000000000000000000000000000000007bffffffffffffffffffffffffffffffffffffffffffffffffffffffff1916827bffffffffffffffffffffffffffffffffffffffffffffffffffffffff1916145b80610928575061092782612b99565b5b9050919050565b60606006805461093e906159c0565b80601f016020809104026020016040519081016040528092919081815260200182805461096a906159c0565b80156109b75780601f1061098c576101008083540402835291602001916109b7565b820191906000526020600020905b81548152906001019060200180831161099a57829003601f168201915b5050505050905090565b6000806109cc610d90565b5090506001151581151514610a16576040517f08c379a0000000000000000000000000000000000000000000000000000000008152600401610a0d9061544d565b60405180910390fd5b6000601360003373ffffffffffffffffffffffffffffffffffffffff1673ffffffffffffffffffffffffffffffffffffffff1681526020019081526020016000205490506000601180549050905080821015610ae057600060118381548110610aa8577f4e487b7100000000000000000000000000000000000000000000000000000000600052603260045260246000fd5b9060005260206000200160009054906101000a900473ffffffffffffffffffffffffffffffffffffffff169050809450505050610ae7565b6000935050505b5090565b6000610aff610af8612c03565b8484612c0b565b6001905092915050565b606060028054610b18906159c0565b80601f0160208091040260200160405190810160405280929190818152602001828054610b44906159c0565b8015610b915780601f10610b6657610100808354040283529160200191610b91565b820191906000526020600020905b815481529060010190602001808311610b7457829003601f168201915b50505050509050919050565b6000600554905090565b60606000600e60003373ffffffffffffffffffffffffffffffffffffffff1673ffffffffffffffffffffffffffffffffffffffff16815260200190815260200160002060008481526020019081526020016000208054610c06906159c0565b80601f0160208091040260200160405190810160405280929190818152602001828054610c32906159c0565b8015610c7f5780601f10610c5457610100808354040283529160200191610c7f565b820191906000526020600020905b815481529060010190602001808311610c6257829003601f168201915b5050505050905080915050919050565b6000610c9c848484612dd6565b6000600460008673ffffffffffffffffffffffffffffffffffffffff1673ffffffffffffffffffffffffffffffffffffffff1681526020019081526020016000206000610ce7612c03565b73ffffffffffffffffffffffffffffffffffffffff1673ffffffffffffffffffffffffffffffffffffffff16815260200190815260200160002054905082811015610d67576040517f08c379a0000000000000000000000000000000000000000000000000000000008152600401610d5e9061548d565b60405180910390fd5b610d8485610d73612c03565b8584610d7f9190615876565b612c0b565b60019150509392505050565b600080600090505b600c80549050811015610e5a57600c8181548110610ddf577f4e487b7100000000000000000000000000000000000000000000000000000000600052603260045260246000fd5b9060005260206000200160009054906101000a900473ffffffffffffffffffffffffffffffffffffffff1673ffffffffffffffffffffffffffffffffffffffff163373ffffffffffffffffffffffffffffffffffffffff161415610e465760019150610e62565b600181610e5391906157c6565b9050610d98565b600080915091505b9091565b8151835114610eaa576040517f08c379a0000000000000000000000000000000000000000000000000000000008152600401610ea19061558d565b60405180910390fd5b600073ffffffffffffffffffffffffffffffffffffffff168473ffffffffffffffffffffffffffffffffffffffff161415610f1a576040517f08c379a0000000000000000000000000000000000000000000000000000000008152600401610f119061540d565b60405180910390fd5b610f22612c03565b73ffffffffffffffffffffffffffffffffffffffff168573ffffffffffffffffffffffffffffffffffffffff161480610f685750610f6785610f62612c03565b6124fb565b5b610fa7576040517f08c379a0000000000000000000000000000000000000000000000000000000008152600401610f9e9061542d565b60405180910390fd5b6000610fb1612c03565b9050610fc1818787878787613058565b60005b84518110156111c7576000858281518110611008577f4e487b7100000000000000000000000000000000000000000000000000000000600052603260045260246000fd5b60200260200101519050600085838151811061104d577f4e487b7100000000000000000000000000000000000000000000000000000000600052603260045260246000fd5b60200260200101519050600080600084815260200190815260200160002060008b73ffffffffffffffffffffffffffffffffffffffff1673ffffffffffffffffffffffffffffffffffffffff168152602001908152602001600020549050818110156110ee576040517f08c379a00000000000000000000000000000000000000000000000000000000081526004016110e59061546d565b60405180910390fd5b81816110fa9190615876565b60008085815260200190815260200160002060008c73ffffffffffffffffffffffffffffffffffffffff1673ffffffffffffffffffffffffffffffffffffffff168152602001908152602001600020819055508160008085815260200190815260200160002060008b73ffffffffffffffffffffffffffffffffffffffff1673ffffffffffffffffffffffffffffffffffffffff16815260200190815260200160002060008282546111ac91906157c6565b92505081905550505050806111c090615a3b565b9050610fc4565b508473ffffffffffffffffffffffffffffffffffffffff168673ffffffffffffffffffffffffffffffffffffffff168273ffffffffffffffffffffffffffffffffffffffff167f4a39dc06d4c0dbc64b70af90fd698a233a518aa5d07e595d983b8c0526c8f7fb878760405161123e929190615210565b60405180910390a4611254818787878787613060565b505050505050565b60006012905090565b6000611307611272612c03565b848460046000611280612c03565b73ffffffffffffffffffffffffffffffffffffffff1673ffffffffffffffffffffffffffffffffffffffff16815260200190815260200160002060008873ffffffffffffffffffffffffffffffffffffffff1673ffffffffffffffffffffffffffffffffffffffff1681526020019081526020016000205461130291906157c6565b612c0b565b6001905092915050565b60608151835114611357576040517f08c379a000000000000000000000000000000000000000000000000000000000815260040161134e9061554d565b60405180910390fd5b6000835167ffffffffffffffff81111561139a577f4e487b7100000000000000000000000000000000000000000000000000000000600052604160045260246000fd5b6040519080825280602002602001820160405280156113c85781602001602082028036833780820191505090505b50905060005b84518110156114b757611461858281518110611413577f4e487b7100000000000000000000000000000000000000000000000000000000600052603260045260246000fd5b6020026020010151858381518110611454577f4e487b7100000000000000000000000000000000000000000000000000000000600052603260045260246000fd5b6020026020010151610784565b82828151811061149a577f4e487b7100000000000000000000000000000000000000000000000000000000600052603260045260246000fd5b602002602001018181525050806114b090615a3b565b90506113ce565b508091505092915050565b6000600954905090565b6011339080600181540180825580915050600190039060005260206000200160009091909190916101000a81548173ffffffffffffffffffffffffffffffffffffffff021916908373ffffffffffffffffffffffffffffffffffffffff160217905550601282829091806001815401808255809150506001900390600052602060002001600090919290919290919290919250919061156c929190613db9565b505050565b6000600360008373ffffffffffffffffffffffffffffffffffffffff1673ffffffffffffffffffffffffffffffffffffffff168152602001908152602001600020549050919050565b6115c2612c03565b73ffffffffffffffffffffffffffffffffffffffff166115e06119e1565b73ffffffffffffffffffffffffffffffffffffffff1614611636576040517f08c379a000000000000000000000000000000000000000000000000000000000815260040161162d906154ad565b60405180910390fd5b600073ffffffffffffffffffffffffffffffffffffffff16600860009054906101000a900473ffffffffffffffffffffffffffffffffffffffff1673ffffffffffffffffffffffffffffffffffffffff167f8be0079c531659141344cd1fd0a4f28419497f9722a3daafe3b4186f6b6457e060405160405180910390a36000600860006101000a81548173ffffffffffffffffffffffffffffffffffffffff021916908373ffffffffffffffffffffffffffffffffffffffff160217905550565b60606000611703610d90565b509050600115158115151461174d576040517f08c379a00000000000000000000000000000000000000000000000000000000081526004016117449061544d565b60405180910390fd5b6000601360003373ffffffffffffffffffffffffffffffffffffffff1673ffffffffffffffffffffffffffffffffffffffff168152602001908152602001600020549050600060118054905090508082101561187957601282815481106117dd577f4e487b7100000000000000000000000000000000000000000000000000000000600052603260045260246000fd5b9060005260206000200180546117f2906159c0565b80601f016020809104026020016040519081016040528092919081815260200182805461181e906159c0565b801561186b5780601f106118405761010080835404028352916020019161186b565b820191906000526020600020905b81548152906001019060200180831161184e57829003601f168201915b5050505050935050506118b4565b6040518060400160405280600181526020017f3000000000000000000000000000000000000000000000000000000000000000815250935050505b5090565b6000600b54905090565b600f60008273ffffffffffffffffffffffffffffffffffffffff1673ffffffffffffffffffffffffffffffffffffffff168152602001908152602001600020600081548092919061191290615a3b565b91905055506000600f60008373ffffffffffffffffffffffffffffffffffffffff1673ffffffffffffffffffffffffffffffffffffffff16815260200190815260200160002054905082600e60008473ffffffffffffffffffffffffffffffffffffffff1673ffffffffffffffffffffffffffffffffffffffff168152602001908152602001600020600083815260200190815260200160002090805190602001906119bf929190613e3f565b506119dc8282600160405180602001604052806000815250613230565b505050565b6000600860009054906101000a900473ffffffffffffffffffffffffffffffffffffffff16905090565b606060078054611a1a906159c0565b80601f0160208091040260200160405190810160405280929190818152602001828054611a46906159c0565b8015611a935780601f10611a6857610100808354040283529160200191611a93565b820191906000526020600020905b815481529060010190602001808311611a7657829003601f168201915b5050505050905090565b600080611aa8610d90565b5090506001151581151514611af2576040517f08c379a0000000000000000000000000000000000000000000000000000000008152600401611ae99061544d565b60405180910390fd5b6000601360003373ffffffffffffffffffffffffffffffffffffffff1673ffffffffffffffffffffffffffffffffffffffff168152602001908152602001600020549050601180549050811015611f1c57600060118281548110611b7f577f4e487b7100000000000000000000000000000000000000000000000000000000600052603260045260246000fd5b9060005260206000200160009054906101000a900473ffffffffffffffffffffffffffffffffffffffff169050601360003373ffffffffffffffffffffffffffffffffffffffff1673ffffffffffffffffffffffffffffffffffffffff1681526020019081526020016000206000815480929190611bfc90615a3b565b91905055506000611c0c82612414565b90508080611c1990615a3b565b9150508515611e2357601560008373ffffffffffffffffffffffffffffffffffffffff1673ffffffffffffffffffffffffffffffffffffffff16815260200190815260200160002060008281526020019081526020016000206000815480929190611c83906159f2565b91905055506000601560008473ffffffffffffffffffffffffffffffffffffffff1673ffffffffffffffffffffffffffffffffffffffff16815260200190815260200160002060008381526020019081526020016000205490506005811415611dcc57600060128581548110611d22577f4e487b7100000000000000000000000000000000000000000000000000000000600052603260045260246000fd5b906000526020600020018054611d37906159c0565b80601f0160208091040260200160405190810160405280929190818152602001828054611d63906159c0565b8015611db05780601f10611d8557610100808354040283529160200191611db0565b820191906000526020600020905b815481529060010190602001808311611d9357829003601f168201915b50505050509050611dc181856133c6565b611dca336133dd565b505b6008811480611ddb5750600e81145b15611dee57611de9336133dd565b611e21565b7ffffffffffffffffffffffffffffffffffffffffffffffffffffffffffffffff6811215611e2057611e1f3361348c565b5b5b505b85611f1057601560008373ffffffffffffffffffffffffffffffffffffffff1673ffffffffffffffffffffffffffffffffffffffff16815260200190815260200160002060008281526020019081526020016000206000815480929190611e8990615977565b91905055506000601560008473ffffffffffffffffffffffffffffffffffffffff1673ffffffffffffffffffffffffffffffffffffffff16815260200190815260200160002060008381526020019081526020016000205490506005811315611efa57611ef53361348c565b611f0e565b6014811215611f0d57611f0c336133dd565b5b5b505b60019450505050611f22565b60009250505b50919050565b8173ffffffffffffffffffffffffffffffffffffffff16611f47612c03565b73ffffffffffffffffffffffffffffffffffffffff161415611f9e576040517f08c379a0000000000000000000000000000000000000000000000000000000008152600401611f959061552d565b60405180910390fd5b8060016000611fab612c03565b73ffffffffffffffffffffffffffffffffffffffff1673ffffffffffffffffffffffffffffffffffffffff16815260200190815260200160002060008473ffffffffffffffffffffffffffffffffffffffff1673ffffffffffffffffffffffffffffffffffffffff16815260200190815260200160002060006101000a81548160ff0219169083151502179055508173ffffffffffffffffffffffffffffffffffffffff16612058612c03565b73ffffffffffffffffffffffffffffffffffffffff167f17307eab39ab6107e8899845ad3d59bd9653f200f220920489ca2b5937696c318360405161209d9190615247565b60405180910390a35050565b600080600460006120b8612c03565b73ffffffffffffffffffffffffffffffffffffffff1673ffffffffffffffffffffffffffffffffffffffff16815260200190815260200160002060008573ffffffffffffffffffffffffffffffffffffffff1673ffffffffffffffffffffffffffffffffffffffff16815260200190815260200160002054905082811015612175576040517f08c379a000000000000000000000000000000000000000000000000000000000815260040161216c906155cd565b60405180910390fd5b612192612180612c03565b85858461218d9190615876565b612c0b565b600191505092915050565b60006121b16121aa612c03565b8484612dd6565b6001905092915050565b6000600a54905090565b60006121cf610d90565b5090506001151581151514612219576040517f08c379a00000000000000000000000000000000000000000000000000000000081526004016122109061538d565b60405180910390fd5b6000612223612379565b905061222d613596565b6000600d60003373ffffffffffffffffffffffffffffffffffffffff1673ffffffffffffffffffffffffffffffffffffffff1681526020019081526020016000208190555061227c3382613715565b5050565b6000806000905060005b600c805490508110156123635761234d600d6000600c84815481106122d8577f4e487b7100000000000000000000000000000000000000000000000000000000600052603260045260246000fd5b9060005260206000200160009054906101000a900473ffffffffffffffffffffffffffffffffffffffff1673ffffffffffffffffffffffffffffffffffffffff1673ffffffffffffffffffffffffffffffffffffffff168152602001908152602001600020548361386a90919063ffffffff16565b915060018161235c91906157c6565b905061228a565b508091505090565b612377336103e8613715565b565b600080612384610d90565b50905060011515811515146123ce576040517f08c379a00000000000000000000000000000000000000000000000000000000081526004016123c59061556d565b60405180910390fd5b600d60003373ffffffffffffffffffffffffffffffffffffffff1673ffffffffffffffffffffffffffffffffffffffff1681526020019081526020016000205491505090565b6000600f60008373ffffffffffffffffffffffffffffffffffffffff1673ffffffffffffffffffffffffffffffffffffffff168152602001908152602001600020549050919050565b6000600460008473ffffffffffffffffffffffffffffffffffffffff1673ffffffffffffffffffffffffffffffffffffffff16815260200190815260200160002060008373ffffffffffffffffffffffffffffffffffffffff1673ffffffffffffffffffffffffffffffffffffffff16815260200190815260200160002054905092915050565b6124ee82826118c2565b6124f781613880565b5050565b6000600160008473ffffffffffffffffffffffffffffffffffffffff1673ffffffffffffffffffffffffffffffffffffffff16815260200190815260200160002060008373ffffffffffffffffffffffffffffffffffffffff1673ffffffffffffffffffffffffffffffffffffffff16815260200190815260200160002060009054906101000a900460ff16905092915050565b600073ffffffffffffffffffffffffffffffffffffffff168473ffffffffffffffffffffffffffffffffffffffff1614156125ff576040517f08c379a00000000000000000000000000000000000000000000000000000000081526004016125f69061540d565b60405180910390fd5b612607612c03565b73ffffffffffffffffffffffffffffffffffffffff168573ffffffffffffffffffffffffffffffffffffffff16148061264d575061264c85612647612c03565b6124fb565b5b61268c576040517f08c379a0000000000000000000000000000000000000000000000000000000008152600401612683906153ad565b60405180910390fd5b6000612696612c03565b90506126b68187876126a78861388f565b6126b08861388f565b87613058565b600080600086815260200190815260200160002060008873ffffffffffffffffffffffffffffffffffffffff1673ffffffffffffffffffffffffffffffffffffffff1681526020019081526020016000205490508381101561274d576040517f08c379a00000000000000000000000000000000000000000000000000000000081526004016127449061546d565b60405180910390fd5b83816127599190615876565b60008087815260200190815260200160002060008973ffffffffffffffffffffffffffffffffffffffff1673ffffffffffffffffffffffffffffffffffffffff168152602001908152602001600020819055508360008087815260200190815260200160002060008873ffffffffffffffffffffffffffffffffffffffff1673ffffffffffffffffffffffffffffffffffffffff168152602001908152602001600020600082825461280b91906157c6565b925050819055508573ffffffffffffffffffffffffffffffffffffffff168773ffffffffffffffffffffffffffffffffffffffff168373ffffffffffffffffffffffffffffffffffffffff167fc3d58168c5ae7397731d063d5bbf3d657854427343f4c083240f7aacaa2d0f628888604051612888929190615628565b60405180910390a461289e828888888888613955565b50505050505050565b6128af612c03565b73ffffffffffffffffffffffffffffffffffffffff166128cd6119e1565b73ffffffffffffffffffffffffffffffffffffffff1614612923576040517f08c379a000000000000000000000000000000000000000000000000000000000815260040161291a906154ad565b60405180910390fd5b600073ffffffffffffffffffffffffffffffffffffffff168173ffffffffffffffffffffffffffffffffffffffff161415612993576040517f08c379a000000000000000000000000000000000000000000000000000000000815260040161298a9061534d565b60405180910390fd5b8073ffffffffffffffffffffffffffffffffffffffff16600860009054906101000a900473ffffffffffffffffffffffffffffffffffffffff1673ffffffffffffffffffffffffffffffffffffffff167f8be0079c531659141344cd1fd0a4f28419497f9722a3daafe3b4186f6b6457e060405160405180910390a380600860006101000a81548173ffffffffffffffffffffffffffffffffffffffff021916908373ffffffffffffffffffffffffffffffffffffffff16021790555050565b6000612a5d610d90565b5090508015612aa1576040517f08c379a0000000000000000000000000000000000000000000000000000000008152600401612a98906153ed565b60405180910390fd5b612aad33600b54613b25565b6000600d60003373ffffffffffffffffffffffffffffffffffffffff1673ffffffffffffffffffffffffffffffffffffffff168152602001908152602001600020541415612aff57612afe33613cfb565b5b612b53600b54600d60003373ffffffffffffffffffffffffffffffffffffffff1673ffffffffffffffffffffffffffffffffffffffff1681526020019081526020016000205461386a90919063ffffffff16565b600d60003373ffffffffffffffffffffffffffffffffffffffff1673ffffffffffffffffffffffffffffffffffffffff1681526020019081526020016000208190555050565b60007f01ffc9a7000000000000000000000000000000000000000000000000000000007bffffffffffffffffffffffffffffffffffffffffffffffffffffffff1916827bffffffffffffffffffffffffffffffffffffffffffffffffffffffff1916149050919050565b600033905090565b600073ffffffffffffffffffffffffffffffffffffffff168373ffffffffffffffffffffffffffffffffffffffff161415612c7b576040517f08c379a0000000000000000000000000000000000000000000000000000000008152600401612c729061550d565b60405180910390fd5b600073ffffffffffffffffffffffffffffffffffffffff168273ffffffffffffffffffffffffffffffffffffffff161415612ceb576040517f08c379a0000000000000000000000000000000000000000000000000000000008152600401612ce29061536d565b60405180910390fd5b80600460008573ffffffffffffffffffffffffffffffffffffffff1673ffffffffffffffffffffffffffffffffffffffff16815260200190815260200160002060008473ffffffffffffffffffffffffffffffffffffffff1673ffffffffffffffffffffffffffffffffffffffff168152602001908152602001600020819055508173ffffffffffffffffffffffffffffffffffffffff168373ffffffffffffffffffffffffffffffffffffffff167f8c5be1e5ebec7d5bd14f71427d1e84f3dd0314c0f7b2291e5b200ac8c7c3b92583604051612dc9919061560d565b60405180910390a3505050565b600073ffffffffffffffffffffffffffffffffffffffff168373ffffffffffffffffffffffffffffffffffffffff161415612e46576040517f08c379a0000000000000000000000000000000000000000000000000000000008152600401612e3d906154ed565b60405180910390fd5b600073ffffffffffffffffffffffffffffffffffffffff168273ffffffffffffffffffffffffffffffffffffffff161415612eb6576040517f08c379a0000000000000000000000000000000000000000000000000000000008152600401612ead906152cd565b60405180910390fd5b612ec1838383613d75565b6000600360008573ffffffffffffffffffffffffffffffffffffffff1673ffffffffffffffffffffffffffffffffffffffff16815260200190815260200160002054905081811015612f48576040517f08c379a0000000000000000000000000000000000000000000000000000000008152600401612f3f906153cd565b60405180910390fd5b8181612f549190615876565b600360008673ffffffffffffffffffffffffffffffffffffffff1673ffffffffffffffffffffffffffffffffffffffff1681526020019081526020016000208190555081600360008573ffffffffffffffffffffffffffffffffffffffff1673ffffffffffffffffffffffffffffffffffffffff1681526020019081526020016000206000828254612fe691906157c6565b925050819055508273ffffffffffffffffffffffffffffffffffffffff168473ffffffffffffffffffffffffffffffffffffffff167fddf252ad1be2c89b69c2b068fc378daa952ba7f163c4a11628f55a4df523b3ef8460405161304a919061560d565b60405180910390a350505050565b505050505050565b61307f8473ffffffffffffffffffffffffffffffffffffffff16613d7a565b15613228578373ffffffffffffffffffffffffffffffffffffffff1663bc197c8187878686866040518663ffffffff1660e01b81526004016130c595949392919061512c565b602060405180830381600087803b1580156130df57600080fd5b505af192505050801561311057506040513d601f19601f8201168201806040525081019061310d91906144c9565b60015b61319f5761311c615b2f565b806131275750613164565b806040517f08c379a000000000000000000000000000000000000000000000000000000000815260040161315b919061528b565b60405180910390fd5b6040517f08c379a0000000000000000000000000000000000000000000000000000000008152600401613196906152ad565b60405180910390fd5b63bc197c8160e01b7bffffffffffffffffffffffffffffffffffffffffffffffffffffffff1916817bffffffffffffffffffffffffffffffffffffffffffffffffffffffff191614613226576040517f08c379a000000000000000000000000000000000000000000000000000000000815260040161321d906152ed565b60405180910390fd5b505b505050505050565b600073ffffffffffffffffffffffffffffffffffffffff168473ffffffffffffffffffffffffffffffffffffffff1614156132a0576040517f08c379a0000000000000000000000000000000000000000000000000000000008152600401613297906155ad565b60405180910390fd5b60006132aa612c03565b90506132cb816000876132bc8861388f565b6132c58861388f565b87613058565b8260008086815260200190815260200160002060008773ffffffffffffffffffffffffffffffffffffffff1673ffffffffffffffffffffffffffffffffffffffff168152602001908152602001600020600082825461332a91906157c6565b925050819055508473ffffffffffffffffffffffffffffffffffffffff16600073ffffffffffffffffffffffffffffffffffffffff168273ffffffffffffffffffffffffffffffffffffffff167fc3d58168c5ae7397731d063d5bbf3d657854427343f4c083240f7aacaa2d0f6287876040516133a8929190615628565b60405180910390a46133bf81600087878787613955565b5050505050565b6133d082826118c2565b6133d981613880565b5050565b60006133e7610d90565b509050801561348857613444600a54600d60008573ffffffffffffffffffffffffffffffffffffffff1673ffffffffffffffffffffffffffffffffffffffff1681526020019081526020016000205461386a90919063ffffffff16565b600d60008473ffffffffffffffffffffffffffffffffffffffff1673ffffffffffffffffffffffffffffffffffffffff168152602001908152602001600020819055505b5050565b6000613496610d90565b5090508015613592576000600d60008473ffffffffffffffffffffffffffffffffffffffff1673ffffffffffffffffffffffffffffffffffffffff16815260200190815260200160002054106135915761354d6134ff6002600a54613d8d90919063ffffffff16565b600d60008573ffffffffffffffffffffffffffffffffffffffff1673ffffffffffffffffffffffffffffffffffffffff16815260200190815260200160002054613da390919063ffffffff16565b600d60008473ffffffffffffffffffffffffffffffffffffffff1673ffffffffffffffffffffffffffffffffffffffff168152602001908152602001600020819055505b5b5050565b6000806135a1610d90565b91509150811561371157600c6001600c805490506135bf9190615876565b815481106135f6577f4e487b7100000000000000000000000000000000000000000000000000000000600052603260045260246000fd5b9060005260206000200160009054906101000a900473ffffffffffffffffffffffffffffffffffffffff16600c828154811061365b577f4e487b7100000000000000000000000000000000000000000000000000000000600052603260045260246000fd5b9060005260206000200160006101000a81548173ffffffffffffffffffffffffffffffffffffffff021916908373ffffffffffffffffffffffffffffffffffffffff160217905550600c8054806136db577f4e487b7100000000000000000000000000000000000000000000000000000000600052603160045260246000fd5b6001900381819060005260206000200160006101000a81549073ffffffffffffffffffffffffffffffffffffffff021916905590555b5050565b600073ffffffffffffffffffffffffffffffffffffffff168273ffffffffffffffffffffffffffffffffffffffff161415613785576040517f08c379a000000000000000000000000000000000000000000000000000000000815260040161377c906155ed565b60405180910390fd5b61379160008383613d75565b80600560008282546137a391906157c6565b9250508190555080600360008473ffffffffffffffffffffffffffffffffffffffff1673ffffffffffffffffffffffffffffffffffffffff16815260200190815260200160002060008282546137f991906157c6565b925050819055508173ffffffffffffffffffffffffffffffffffffffff16600073ffffffffffffffffffffffffffffffffffffffff167fddf252ad1be2c89b69c2b068fc378daa952ba7f163c4a11628f55a4df523b3ef8360405161385e919061560d565b60405180910390a35050565b6000818361387891906157c6565b905092915050565b61388c81600954613715565b50565b60606000600167ffffffffffffffff8111156138d4577f4e487b7100000000000000000000000000000000000000000000000000000000600052604160045260246000fd5b6040519080825280602002602001820160405280156139025781602001602082028036833780820191505090505b5090508281600081518110613940577f4e487b7100000000000000000000000000000000000000000000000000000000600052603260045260246000fd5b60200260200101818152505080915050919050565b6139748473ffffffffffffffffffffffffffffffffffffffff16613d7a565b15613b1d578373ffffffffffffffffffffffffffffffffffffffff1663f23a6e6187878686866040518663ffffffff1660e01b81526004016139ba959493929190615194565b602060405180830381600087803b1580156139d457600080fd5b505af1925050508015613a0557506040513d601f19601f82011682018060405250810190613a0291906144c9565b60015b613a9457613a11615b2f565b80613a1c5750613a59565b806040517f08c379a0000000000000000000000000000000000000000000000000000000008152600401613a50919061528b565b60405180910390fd5b6040517f08c379a0000000000000000000000000000000000000000000000000000000008152600401613a8b906152ad565b60405180910390fd5b63f23a6e6160e01b7bffffffffffffffffffffffffffffffffffffffffffffffffffffffff1916817bffffffffffffffffffffffffffffffffffffffffffffffffffffffff191614613b1b576040517f08c379a0000000000000000000000000000000000000000000000000000000008152600401613b12906152ed565b60405180910390fd5b505b505050505050565b600073ffffffffffffffffffffffffffffffffffffffff168273ffffffffffffffffffffffffffffffffffffffff161415613b95576040517f08c379a0000000000000000000000000000000000000000000000000000000008152600401613b8c906154cd565b60405180910390fd5b613ba182600083613d75565b6000600360008473ffffffffffffffffffffffffffffffffffffffff1673ffffffffffffffffffffffffffffffffffffffff16815260200190815260200160002054905081811015613c28576040517f08c379a0000000000000000000000000000000000000000000000000000000008152600401613c1f9061530d565b60405180910390fd5b8181613c349190615876565b600360008573ffffffffffffffffffffffffffffffffffffffff1673ffffffffffffffffffffffffffffffffffffffff168152602001908152602001600020819055508160056000828254613c899190615876565b92505081905550600073ffffffffffffffffffffffffffffffffffffffff168373ffffffffffffffffffffffffffffffffffffffff167fddf252ad1be2c89b69c2b068fc378daa952ba7f163c4a11628f55a4df523b3ef84604051613cee919061560d565b60405180910390a3505050565b6000613d05610d90565b50905080613d7157600c829080600181540180825580915050600190039060005260206000200160009091909190916101000a81548173ffffffffffffffffffffffffffffffffffffffff021916908373ffffffffffffffffffffffffffffffffffffffff1602179055505b5050565b505050565b600080823b905060008111915050919050565b60008183613d9b919061581c565b905092915050565b60008183613db19190615876565b905092915050565b828054613dc5906159c0565b90600052602060002090601f016020900481019282613de75760008555613e2e565b82601f10613e0057803560ff1916838001178555613e2e565b82800160010185558215613e2e579182015b82811115613e2d578235825591602001919060010190613e12565b5b509050613e3b9190613ec5565b5090565b828054613e4b906159c0565b90600052602060002090601f016020900481019282613e6d5760008555613eb4565b82601f10613e8657805160ff1916838001178555613eb4565b82800160010185558215613eb4579182015b82811115613eb3578251825591602001919060010190613e98565b5b509050613ec19190613ec5565b5090565b5b80821115613ede576000816000905550600101613ec6565b5090565b6000613ef5613ef08461569d565b61566c565b90508083825260208201905082856020860282011115613f1457600080fd5b60005b85811015613f445781613f2a8882614036565b845260208401935060208301925050600181019050613f17565b5050509392505050565b6000613f61613f5c846156c9565b61566c565b90508083825260208201905082856020860282011115613f8057600080fd5b60005b85811015613fb05781613f96888261417c565b845260208401935060208301925050600181019050613f83565b5050509392505050565b6000613fcd613fc8846156f5565b61566c565b905082815260208101848484011115613fe557600080fd5b613ff0848285615935565b509392505050565b600061400b61400684615725565b61566c565b90508281526020810184848401111561402357600080fd5b61402e848285615935565b509392505050565b60008135905061404581615be5565b92915050565b600082601f83011261405c57600080fd5b813561406c848260208601613ee2565b91505092915050565b600082601f83011261408657600080fd5b8135614096848260208601613f4e565b91505092915050565b6000813590506140ae81615bfc565b92915050565b6000813590506140c381615c13565b92915050565b6000815190506140d881615c13565b92915050565b600082601f8301126140ef57600080fd5b81356140ff848260208601613fba565b91505092915050565b60008083601f84011261411a57600080fd5b8235905067ffffffffffffffff81111561413357600080fd5b60208301915083600182028301111561414b57600080fd5b9250929050565b600082601f83011261416357600080fd5b8135614173848260208601613ff8565b91505092915050565b60008135905061418b81615c2a565b92915050565b6000602082840312156141a357600080fd5b60006141b184828501614036565b91505092915050565b600080604083850312156141cd57600080fd5b60006141db85828601614036565b92505060206141ec85828601614036565b9150509250929050565b600080600080600060a0868803121561420e57600080fd5b600061421c88828901614036565b955050602061422d88828901614036565b945050604086013567ffffffffffffffff81111561424a57600080fd5b61425688828901614075565b935050606086013567ffffffffffffffff81111561427357600080fd5b61427f88828901614075565b925050608086013567ffffffffffffffff81111561429c57600080fd5b6142a8888289016140de565b9150509295509295909350565b6000806000606084860312156142ca57600080fd5b60006142d886828701614036565b93505060206142e986828701614036565b92505060406142fa8682870161417c565b9150509250925092565b600080600080600060a0868803121561431c57600080fd5b600061432a88828901614036565b955050602061433b88828901614036565b945050604061434c8882890161417c565b935050606061435d8882890161417c565b925050608086013567ffffffffffffffff81111561437a57600080fd5b614386888289016140de565b9150509295509295909350565b600080604083850312156143a657600080fd5b60006143b485828601614036565b92505060206143c58582860161409f565b9150509250929050565b600080604083850312156143e257600080fd5b60006143f085828601614036565b92505060206144018582860161417c565b9150509250929050565b6000806040838503121561441e57600080fd5b600083013567ffffffffffffffff81111561443857600080fd5b6144448582860161404b565b925050602083013567ffffffffffffffff81111561446157600080fd5b61446d85828601614075565b9150509250929050565b60006020828403121561448957600080fd5b60006144978482850161409f565b91505092915050565b6000602082840312156144b257600080fd5b60006144c0848285016140b4565b91505092915050565b6000602082840312156144db57600080fd5b60006144e9848285016140c9565b91505092915050565b6000806020838503121561450557600080fd5b600083013567ffffffffffffffff81111561451f57600080fd5b61452b85828601614108565b92509250509250929050565b6000806040838503121561454a57600080fd5b600083013567ffffffffffffffff81111561456457600080fd5b61457085828601614152565b925050602061458185828601614036565b9150509250929050565b60006020828403121561459d57600080fd5b60006145ab8482850161417c565b91505092915050565b60006145c083836150e4565b60208301905092915050565b6145d5816158aa565b82525050565b60006145e682615765565b6145f08185615793565b93506145fb83615755565b8060005b8381101561462c57815161461388826145b4565b975061461e83615786565b9250506001810190506145ff565b5085935050505092915050565b614642816158bc565b82525050565b600061465382615770565b61465d81856157a4565b935061466d818560208601615944565b61467681615b11565b840191505092915050565b600061468c8261577b565b61469681856157b5565b93506146a6818560208601615944565b6146af81615b11565b840191505092915050565b60006146c76034836157b5565b91507f455243313135353a207472616e7366657220746f206e6f6e204552433131353560008301527f526563656976657220696d706c656d656e7465720000000000000000000000006020830152604082019050919050565b600061472d6023836157b5565b91507f45524332303a207472616e7366657220746f20746865207a65726f206164647260008301527f65737300000000000000000000000000000000000000000000000000000000006020830152604082019050919050565b60006147936028836157b5565b91507f455243313135353a204552433131353552656365697665722072656a6563746560008301527f6420746f6b656e730000000000000000000000000000000000000000000000006020830152604082019050919050565b60006147f96022836157b5565b91507f45524332303a206275726e20616d6f756e7420657863656564732062616c616e60008301527f63650000000000000000000000000000000000000000000000000000000000006020830152604082019050919050565b600061485f602b836157b5565b91507f455243313135353a2062616c616e636520717565727920666f7220746865207a60008301527f65726f20616464726573730000000000000000000000000000000000000000006020830152604082019050919050565b60006148c56026836157b5565b91507f4f776e61626c653a206e6577206f776e657220697320746865207a65726f206160008301527f64647265737300000000000000000000000000000000000000000000000000006020830152604082019050919050565b600061492b6022836157b5565b91507f45524332303a20617070726f766520746f20746865207a65726f20616464726560008301527f73730000000000000000000000000000000000000000000000000000000000006020830152604082019050919050565b6000614991603a836157b5565b91507f596f7520617265206e6f742061207665726966696361746f722c20736f20796f60008301527f752063616e277420776974686472617720616e79207374616b650000000000006020830152604082019050919050565b60006149f76029836157b5565b91507f455243313135353a2063616c6c6572206973206e6f74206f776e6572206e6f7260008301527f20617070726f76656400000000000000000000000000000000000000000000006020830152604082019050919050565b6000614a5d6026836157b5565b91507f45524332303a207472616e7366657220616d6f756e742065786365656473206260008301527f616c616e636500000000000000000000000000000000000000000000000000006020830152604082019050919050565b6000614ac3601b836157b5565b91507f596f752061726520616c7265616479207665726966696361746f7200000000006000830152602082019050919050565b6000614b036025836157b5565b91507f455243313135353a207472616e7366657220746f20746865207a65726f20616460008301527f64726573730000000000000000000000000000000000000000000000000000006020830152604082019050919050565b6000614b696032836157b5565b91507f455243313135353a207472616e736665722063616c6c6572206973206e6f742060008301527f6f776e6572206e6f7220617070726f76656400000000000000000000000000006020830152604082019050919050565b6000614bcf6017836157b5565b91507f596f7520617265206e6f74205665726966696361746f720000000000000000006000830152602082019050919050565b6000614c0f602a836157b5565b91507f455243313135353a20696e73756666696369656e742062616c616e636520666f60008301527f72207472616e73666572000000000000000000000000000000000000000000006020830152604082019050919050565b6000614c756028836157b5565b91507f45524332303a207472616e7366657220616d6f756e742065786365656473206160008301527f6c6c6f77616e63650000000000000000000000000000000000000000000000006020830152604082019050919050565b6000614cdb6020836157b5565b91507f4f776e61626c653a2063616c6c6572206973206e6f7420746865206f776e65726000830152602082019050919050565b6000614d1b6021836157b5565b91507f45524332303a206275726e2066726f6d20746865207a65726f2061646472657360008301527f73000000000000000000000000000000000000000000000000000000000000006020830152604082019050919050565b6000614d816025836157b5565b91507f45524332303a207472616e736665722066726f6d20746865207a65726f20616460008301527f64726573730000000000000000000000000000000000000000000000000000006020830152604082019050919050565b6000614de76024836157b5565b91507f45524332303a20617070726f76652066726f6d20746865207a65726f2061646460008301527f72657373000000000000000000000000000000000000000000000000000000006020830152604082019050919050565b6000614e4d6029836157b5565b91507f455243313135353a2073657474696e6720617070726f76616c2073746174757360008301527f20666f722073656c6600000000000000000000000000000000000000000000006020830152604082019050919050565b6000614eb36029836157b5565b91507f455243313135353a206163636f756e747320616e6420696473206c656e67746860008301527f206d69736d6174636800000000000000000000000000000000000000000000006020830152604082019050919050565b6000614f196031836157b5565b91507f596f7520617265206e6f74207665726966696361746f722c20736f20796f752060008301527f646f6e27742068617665207374616b652e0000000000000000000000000000006020830152604082019050919050565b6000614f7f6028836157b5565b91507f455243313135353a2069647320616e6420616d6f756e7473206c656e6774682060008301527f6d69736d617463680000000000000000000000000000000000000000000000006020830152604082019050919050565b6000614fe56021836157b5565b91507f455243313135353a206d696e7420746f20746865207a65726f2061646472657360008301527f73000000000000000000000000000000000000000000000000000000000000006020830152604082019050919050565b600061504b6025836157b5565b91507f45524332303a2064656372656173656420616c6c6f77616e63652062656c6f7760008301527f207a65726f0000000000000000000000000000000000000000000000000000006020830152604082019050919050565b60006150b1601f836157b5565b91507f45524332303a206d696e7420746f20746865207a65726f2061646472657373006000830152602082019050919050565b6150ed8161591e565b82525050565b6150fc8161591e565b82525050565b61510b81615928565b82525050565b600060208201905061512660008301846145cc565b92915050565b600060a08201905061514160008301886145cc565b61514e60208301876145cc565b818103604083015261516081866145db565b9050818103606083015261517481856145db565b905081810360808301526151888184614648565b90509695505050505050565b600060a0820190506151a960008301886145cc565b6151b660208301876145cc565b6151c360408301866150f3565b6151d060608301856150f3565b81810360808301526151e28184614648565b90509695505050505050565b6000602082019050818103600083015261520881846145db565b905092915050565b6000604082019050818103600083015261522a81856145db565b9050818103602083015261523e81846145db565b90509392505050565b600060208201905061525c6000830184614639565b92915050565b60006040820190506152776000830185614639565b61528460208301846150f3565b9392505050565b600060208201905081810360008301526152a58184614681565b905092915050565b600060208201905081810360008301526152c6816146ba565b9050919050565b600060208201905081810360008301526152e681614720565b9050919050565b6000602082019050818103600083015261530681614786565b9050919050565b60006020820190508181036000830152615326816147ec565b9050919050565b6000602082019050818103600083015261534681614852565b9050919050565b60006020820190508181036000830152615366816148b8565b9050919050565b600060208201905081810360008301526153868161491e565b9050919050565b600060208201905081810360008301526153a681614984565b9050919050565b600060208201905081810360008301526153c6816149ea565b9050919050565b600060208201905081810360008301526153e681614a50565b9050919050565b6000602082019050818103600083015261540681614ab6565b9050919050565b6000602082019050818103600083015261542681614af6565b9050919050565b6000602082019050818103600083015261544681614b5c565b9050919050565b6000602082019050818103600083015261546681614bc2565b9050919050565b6000602082019050818103600083015261548681614c02565b9050919050565b600060208201905081810360008301526154a681614c68565b9050919050565b600060208201905081810360008301526154c681614cce565b9050919050565b600060208201905081810360008301526154e681614d0e565b9050919050565b6000602082019050818103600083015261550681614d74565b9050919050565b6000602082019050818103600083015261552681614dda565b9050919050565b6000602082019050818103600083015261554681614e40565b9050919050565b6000602082019050818103600083015261556681614ea6565b9050919050565b6000602082019050818103600083015261558681614f0c565b9050919050565b600060208201905081810360008301526155a681614f72565b9050919050565b600060208201905081810360008301526155c681614fd8565b9050919050565b600060208201905081810360008301526155e68161503e565b9050919050565b60006020820190508181036000830152615606816150a4565b9050919050565b600060208201905061562260008301846150f3565b92915050565b600060408201905061563d60008301856150f3565b61564a60208301846150f3565b9392505050565b60006020820190506156666000830184615102565b92915050565b6000604051905081810181811067ffffffffffffffff8211171561569357615692615ae2565b5b8060405250919050565b600067ffffffffffffffff8211156156b8576156b7615ae2565b5b602082029050602081019050919050565b600067ffffffffffffffff8211156156e4576156e3615ae2565b5b602082029050602081019050919050565b600067ffffffffffffffff8211156157105761570f615ae2565b5b601f19601f8301169050602081019050919050565b600067ffffffffffffffff8211156157405761573f615ae2565b5b601f19601f8301169050602081019050919050565b6000819050602082019050919050565b600081519050919050565b600081519050919050565b600081519050919050565b6000602082019050919050565b600082825260208201905092915050565b600082825260208201905092915050565b600082825260208201905092915050565b60006157d18261591e565b91506157dc8361591e565b9250827fffffffffffffffffffffffffffffffffffffffffffffffffffffffffffffffff0382111561581157615810615a84565b5b828201905092915050565b60006158278261591e565b91506158328361591e565b9250817fffffffffffffffffffffffffffffffffffffffffffffffffffffffffffffffff048311821515161561586b5761586a615a84565b5b828202905092915050565b60006158818261591e565b915061588c8361591e565b92508282101561589f5761589e615a84565b5b828203905092915050565b60006158b5826158fe565b9050919050565b60008115159050919050565b60007fffffffff0000000000000000000000000000000000000000000000000000000082169050919050565b6000819050919050565b600073ffffffffffffffffffffffffffffffffffffffff82169050919050565b6000819050919050565b600060ff82169050919050565b82818337600083830152505050565b60005b83811015615962578082015181840152602081019050615947565b83811115615971576000848401525b50505050565b6000615982826158f4565b91507f80000000000000000000000000000000000000000000000000000000000000008214156159b5576159b4615a84565b5b600182039050919050565b600060028204905060018216806159d857607f821691505b602082108114156159ec576159eb615ab3565b5b50919050565b60006159fd826158f4565b91507f7fffffffffffffffffffffffffffffffffffffffffffffffffffffffffffffff821415615a3057615a2f615a84565b5b600182019050919050565b6000615a468261591e565b91507fffffffffffffffffffffffffffffffffffffffffffffffffffffffffffffffff821415615a7957615a78615a84565b5b600182019050919050565b7f4e487b7100000000000000000000000000000000000000000000000000000000600052601160045260246000fd5b7f4e487b7100000000000000000000000000000000000000000000000000000000600052602260045260246000fd5b7f4e487b7100000000000000000000000000000000000000000000000000000000600052604160045260246000fd5b6000601f19601f8301169050919050565b60008160e01c9050919050565b600060443d1015615b3f57615be2565b60046000803e615b50600051615b22565b6308c379a08114615b615750615be2565b60405160043d036004823e80513d602482011167ffffffffffffffff82111715615b8d57505050615be2565b808201805167ffffffffffffffff811115615bac575050505050615be2565b8060208301013d8501811115615bc757505050505050615be2565b615bd082615b11565b60208401016040528296505050505050505b90565b615bee816158aa565b8114615bf957600080fd5b50565b615c05816158bc565b8114615c1057600080fd5b50565b615c1c816158c8565b8114615c2757600080fd5b50565b615c338161591e565b8114615c3e57600080fd5b5056fea264697066735822122005be4bea10bb9fcc585770f29e74dfbb2209b480f39d316d2f79a775b4a7ce6a64736f6c63430008000033",
  "immutableReferences": {},
  "source": "pragma solidity ^0.8.0;\r\n\r\n// SPDX-License-Identifier: MIT\r\n\r\n\r\nimport \"./Trashtag.sol\";\r\n\r\n\r\n\r\ncontract TrashtagDAPP is  Trashtag {\r\n\r\n    using SafeMath for uint;\r\n\r\n\r\n\r\n    uint nbOfTrashtagValidated;\r\n\r\n    address[] WaitingList;\r\n    string[] WaintingURI;\r\n\r\n\r\n    mapping(address =>uint) TrashtagValidatedByVerificator;\r\n    mapping(address =>uint) TrashtagDoneByTTW;\r\n    mapping(address=>mapping(uint => int)) Judgment;\r\n\r\n\r\n\r\n    modifier IsVerificator (){\r\n        (bool isHe,) = Jobcoin.isVerificator();\r\n        require(isHe == true, \"You are not Verificator\");\r\n        _;\r\n    }\r\n\r\n\r\n\r\n\r\n\r\n\r\n    /*\r\n    * Create an Trashtag token and reward 100 JBC without verification\r\n    * Test function to test YourTrahstags without waiting.\r\n    *Testnet only\r\n    */\r\n    function NFTCreationForTest(string memory _uri, address _to)public{\r\n        Trashtag.rewardTrashtagWarrior(_uri, _to);\r\n        Jobcoin.rewardCoinTrashtagWarrior(_to);\r\n\r\n    }\r\n\r\n\r\n    /*\r\n    * Create an NFT of the trashtag challenge and send it to the Trashtag warrior\r\n    * Reward the Trashtag warrior with 100 Jobcoin\r\n    */\r\n    function TrashtagTagTokenCreation(string memory _uri, address _to)internal{\r\n        Trashtag.rewardTrashtagWarrior(_uri, _to);\r\n        Jobcoin.rewardCoinTrashtagWarrior(_to);\r\n    }\r\n\r\n\r\n    /*\r\n * Store metadata's uri\r\n */\r\n    function NeedToBeValidate(string calldata _uri) public{\r\n        WaitingList.push(msg.sender);\r\n        WaintingURI.push(_uri);\r\n    }\r\n\r\n\r\n    /*\r\n    * Take the first address on the wait list and return metadatas IPFS address of the potential trahstag challenge.\r\n    * And trahstag warrior adaddress\r\n    */\r\n    function WaitingTobeValidate() public view IsVerificator() returns(string memory) {\r\n        uint alreadyValidated = TrashtagValidatedByVerificator[msg.sender];\r\n        uint _waitingNb = WaitingList.length;\r\n        if(alreadyValidated < _waitingNb){\r\n            //Cannot return _uri + _TTWarrior because solidity do not manage\r\n            return WaintingURI[alreadyValidated];\r\n        }\r\n        else{\r\n            //No more trashtag waiting\r\n            return \"0\";\r\n        }\r\n    }\r\n\r\n\r\n    /*\r\n    *return the last trashtag warrior address register ont the waitingList\r\n    */\r\n\r\n    function getWaitingList() public view IsVerificator() returns(address){\r\n        uint alreadyValidated = TrashtagValidatedByVerificator[msg.sender];\r\n        uint _waitingNb = WaitingList.length;\r\n\r\n        if(alreadyValidated < _waitingNb){\r\n            address _TTWarrior = WaitingList[alreadyValidated];\r\n            return _TTWarrior;\r\n        }\r\n        else{\r\n            //No more trashtag waiting\r\n            return address(0);\r\n        }\r\n\r\n    }\r\n\r\n\r\n\r\n    function Verify(bool _judgment) public IsVerificator() returns(bool){\r\n\r\n        uint _TTValidated = TrashtagValidatedByVerificator[msg.sender];\r\n\r\n        if(_TTValidated < WaitingList.length){\r\n\r\n            address _TTWarrior = WaitingList[_TTValidated];\r\n            TrashtagValidatedByVerificator[msg.sender]++;\r\n            uint amountNFT = Trashtag.getAmountNFT(_TTWarrior);\r\n            amountNFT ++;\r\n\r\n            //If positive judgement\r\n            if(_judgment){\r\n\r\n\r\n                Judgment[_TTWarrior][amountNFT] ++;\r\n\r\n                int judgement = Judgment[_TTWarrior][amountNFT];\r\n\r\n                if(judgement == 5){\r\n\r\n                    string memory _uri = WaintingURI[_TTValidated];\r\n                    TrashtagTagTokenCreation(_uri, _TTWarrior);\r\n                    Jobcoin.verificatorReward(msg.sender);\r\n                }\r\n\r\n                if(judgement == 8|| judgement == 14) {\r\n                    Jobcoin.verificatorReward(msg.sender);\r\n                }\r\n\r\n                else if(judgement<-10) {\r\n                    Jobcoin.verificatorPenality(msg.sender);\r\n                }\r\n            }\r\n\r\n            if(!_judgment){\r\n\r\n\r\n                Judgment[_TTWarrior][amountNFT] --;\r\n                int judgement = Judgment[_TTWarrior][amountNFT];\r\n\r\n                if(judgement >5){\r\n                    Jobcoin.verificatorPenality(msg.sender);\r\n                }\r\n                else if(judgement <20){\r\n                    Jobcoin.verificatorReward(msg.sender);\r\n                }\r\n\r\n            }\r\n            return true;\r\n        }\r\n        else{\r\n            //No more trashtag to validate\r\n            return false;\r\n        }\r\n    }\r\n\r\n\r\n\r\n\r\n\r\n}",
  "sourcePath": "C:/Users/FourbeurFourmi/Desktop/Projet Eco Token/V1 React-Typescript/trash-tag-dapp/contracts/TrashtagDAPP.sol",
  "compiler": {
    "name": "solc",
    "version": "0.8.0+commit.c7dfd78e.Emscripten.clang"
  },
  "schemaVersion": "3.3.4",
  "updatedAt": "2021-07-27T16:53:41.698Z",
  "networkType": "ethereum",
  "devdoc": {
    "kind": "dev",
    "methods": {
      "allowance(address,address)": {
        "details": "See {IERC20-allowance}."
      },
      "approve(address,uint256)": {
        "details": "See {IERC20-approve}. Requirements: - `spender` cannot be the zero address."
      },
      "balanceOf(address)": {
        "details": "See {IERC20-balanceOf}."
      },
      "balanceOf(address,uint256)": {
        "details": "See {IERC1155-balanceOf}. Requirements: - `account` cannot be the zero address."
      },
      "balanceOfBatch(address[],uint256[])": {
        "details": "See {IERC1155-balanceOfBatch}. Requirements: - `accounts` and `ids` must have the same length."
      },
      "decimals()": {
        "details": "Returns the number of decimals used to get its user representation. For example, if `decimals` equals `2`, a balance of `505` tokens should be displayed to a user as `5,05` (`505 / 10 ** 2`). Tokens usually opt for a value of 18, imitating the relationship between Ether and Wei. This is the value {ERC20} uses, unless this function is overridden; NOTE: This information is only used for _display_ purposes: it in no way affects any of the arithmetic of the contract, including {IERC20-balanceOf} and {IERC20-transfer}."
      },
      "decreaseAllowance(address,uint256)": {
        "details": "Atomically decreases the allowance granted to `spender` by the caller. This is an alternative to {approve} that can be used as a mitigation for problems described in {IERC20-approve}. Emits an {Approval} event indicating the updated allowance. Requirements: - `spender` cannot be the zero address. - `spender` must have allowance for the caller of at least `subtractedValue`."
      },
      "increaseAllowance(address,uint256)": {
        "details": "Atomically increases the allowance granted to `spender` by the caller. This is an alternative to {approve} that can be used as a mitigation for problems described in {IERC20-approve}. Emits an {Approval} event indicating the updated allowance. Requirements: - `spender` cannot be the zero address."
      },
      "isApprovedForAll(address,address)": {
        "details": "See {IERC1155-isApprovedForAll}."
      },
      "name()": {
        "details": "Returns the name of the token."
      },
      "owner()": {
        "details": "Returns the address of the current owner."
      },
      "renounceOwnership()": {
        "details": "Leaves the contract without owner. It will not be possible to call `onlyOwner` functions anymore. Can only be called by the current owner. NOTE: Renouncing ownership will leave the contract without an owner, thereby removing any functionality that is only available to the owner."
      },
      "safeBatchTransferFrom(address,address,uint256[],uint256[],bytes)": {
        "details": "See {IERC1155-safeBatchTransferFrom}."
      },
      "safeTransferFrom(address,address,uint256,uint256,bytes)": {
        "details": "See {IERC1155-safeTransferFrom}."
      },
      "setApprovalForAll(address,bool)": {
        "details": "See {IERC1155-setApprovalForAll}."
      },
      "supportsInterface(bytes4)": {
        "details": "See {IERC165-supportsInterface}."
      },
      "symbol()": {
        "details": "Returns the symbol of the token, usually a shorter version of the name."
      },
      "totalStakes()": {
        "returns": {
          "_0": "uint256 The aggregated stakes from all stakeholders."
        }
      },
      "totalSupply()": {
        "details": "See {IERC20-totalSupply}."
      },
      "transfer(address,uint256)": {
        "details": "See {IERC20-transfer}. Requirements: - `recipient` cannot be the zero address. - the caller must have a balance of at least `amount`."
      },
      "transferFrom(address,address,uint256)": {
        "details": "See {IERC20-transferFrom}. Emits an {Approval} event indicating the updated allowance. This is not required by the EIP. See the note at the beginning of {ERC20}. Requirements: - `sender` and `recipient` cannot be the zero address. - `sender` must have a balance of at least `amount`. - the caller must have allowance for ``sender``'s tokens of at least `amount`."
      },
      "transferOwnership(address)": {
        "details": "Transfers ownership of the contract to a new account (`newOwner`). Can only be called by the current owner."
      },
      "uri(uint256)": {
        "details": "See {IERC1155MetadataURI-uri}. This implementation returns the same URI for *all* token types. It relies on the token type ID substitution mechanism https://eips.ethereum.org/EIPS/eip-1155#metadata[defined in the EIP]. Clients calling this function must replace the `\\{id\\}` substring with the actual token type ID."
      }
    },
    "version": 1
  },
  "userdoc": {
    "kind": "user",
    "methods": {
      "totalStakes()": {
        "notice": "A method to the aggregated stakes from all stakeholders."
      }
    },
    "version": 1
  }
}