{
  "contractName": "TrashTag",
  "abi": [
    {
      "inputs": [],
      "stateMutability": "nonpayable",
      "type": "constructor"
    },
    {
      "anonymous": false,
      "inputs": [
        {
          "indexed": true,
          "internalType": "address",
          "name": "account",
          "type": "address"
        },
        {
          "indexed": true,
          "internalType": "address",
          "name": "operator",
          "type": "address"
        },
        {
          "indexed": false,
          "internalType": "bool",
          "name": "approved",
          "type": "bool"
        }
      ],
      "name": "ApprovalForAll",
      "type": "event"
    },
    {
      "anonymous": false,
      "inputs": [
        {
          "indexed": true,
          "internalType": "address",
          "name": "operator",
          "type": "address"
        },
        {
          "indexed": true,
          "internalType": "address",
          "name": "from",
          "type": "address"
        },
        {
          "indexed": true,
          "internalType": "address",
          "name": "to",
          "type": "address"
        },
        {
          "indexed": false,
          "internalType": "uint256[]",
          "name": "ids",
          "type": "uint256[]"
        },
        {
          "indexed": false,
          "internalType": "uint256[]",
          "name": "values",
          "type": "uint256[]"
        }
      ],
      "name": "TransferBatch",
      "type": "event"
    },
    {
      "anonymous": false,
      "inputs": [
        {
          "indexed": true,
          "internalType": "address",
          "name": "operator",
          "type": "address"
        },
        {
          "indexed": true,
          "internalType": "address",
          "name": "from",
          "type": "address"
        },
        {
          "indexed": true,
          "internalType": "address",
          "name": "to",
          "type": "address"
        },
        {
          "indexed": false,
          "internalType": "uint256",
          "name": "id",
          "type": "uint256"
        },
        {
          "indexed": false,
          "internalType": "uint256",
          "name": "value",
          "type": "uint256"
        }
      ],
      "name": "TransferSingle",
      "type": "event"
    },
    {
      "anonymous": false,
      "inputs": [
        {
          "indexed": false,
          "internalType": "string",
          "name": "value",
          "type": "string"
        },
        {
          "indexed": true,
          "internalType": "uint256",
          "name": "id",
          "type": "uint256"
        }
      ],
      "name": "URI",
      "type": "event"
    },
    {
      "inputs": [
        {
          "internalType": "address",
          "name": "account",
          "type": "address"
        },
        {
          "internalType": "uint256",
          "name": "id",
          "type": "uint256"
        }
      ],
      "name": "balanceOf",
      "outputs": [
        {
          "internalType": "uint256",
          "name": "",
          "type": "uint256"
        }
      ],
      "stateMutability": "view",
      "type": "function"
    },
    {
      "inputs": [
        {
          "internalType": "address[]",
          "name": "accounts",
          "type": "address[]"
        },
        {
          "internalType": "uint256[]",
          "name": "ids",
          "type": "uint256[]"
        }
      ],
      "name": "balanceOfBatch",
      "outputs": [
        {
          "internalType": "uint256[]",
          "name": "",
          "type": "uint256[]"
        }
      ],
      "stateMutability": "view",
      "type": "function"
    },
    {
      "inputs": [
        {
          "internalType": "address",
          "name": "account",
          "type": "address"
        },
        {
          "internalType": "address",
          "name": "operator",
          "type": "address"
        }
      ],
      "name": "isApprovedForAll",
      "outputs": [
        {
          "internalType": "bool",
          "name": "",
          "type": "bool"
        }
      ],
      "stateMutability": "view",
      "type": "function"
    },
    {
      "inputs": [
        {
          "internalType": "address",
          "name": "from",
          "type": "address"
        },
        {
          "internalType": "address",
          "name": "to",
          "type": "address"
        },
        {
          "internalType": "uint256[]",
          "name": "ids",
          "type": "uint256[]"
        },
        {
          "internalType": "uint256[]",
          "name": "amounts",
          "type": "uint256[]"
        },
        {
          "internalType": "bytes",
          "name": "data",
          "type": "bytes"
        }
      ],
      "name": "safeBatchTransferFrom",
      "outputs": [],
      "stateMutability": "nonpayable",
      "type": "function"
    },
    {
      "inputs": [
        {
          "internalType": "address",
          "name": "from",
          "type": "address"
        },
        {
          "internalType": "address",
          "name": "to",
          "type": "address"
        },
        {
          "internalType": "uint256",
          "name": "id",
          "type": "uint256"
        },
        {
          "internalType": "uint256",
          "name": "amount",
          "type": "uint256"
        },
        {
          "internalType": "bytes",
          "name": "data",
          "type": "bytes"
        }
      ],
      "name": "safeTransferFrom",
      "outputs": [],
      "stateMutability": "nonpayable",
      "type": "function"
    },
    {
      "inputs": [
        {
          "internalType": "address",
          "name": "operator",
          "type": "address"
        },
        {
          "internalType": "bool",
          "name": "approved",
          "type": "bool"
        }
      ],
      "name": "setApprovalForAll",
      "outputs": [],
      "stateMutability": "nonpayable",
      "type": "function"
    },
    {
      "inputs": [
        {
          "internalType": "bytes4",
          "name": "interfaceId",
          "type": "bytes4"
        }
      ],
      "name": "supportsInterface",
      "outputs": [
        {
          "internalType": "bool",
          "name": "",
          "type": "bool"
        }
      ],
      "stateMutability": "view",
      "type": "function"
    },
    {
      "inputs": [
        {
          "internalType": "uint256",
          "name": "",
          "type": "uint256"
        }
      ],
      "name": "uri",
      "outputs": [
        {
          "internalType": "string",
          "name": "",
          "type": "string"
        }
      ],
      "stateMutability": "view",
      "type": "function"
    },
    {
      "inputs": [
        {
          "internalType": "address",
          "name": "_to",
          "type": "address"
        }
      ],
      "name": "approve",
      "outputs": [],
      "stateMutability": "nonpayable",
      "type": "function"
    },
    {
      "inputs": [
        {
          "internalType": "string",
          "name": "_uri",
          "type": "string"
        },
        {
          "internalType": "address",
          "name": "_to",
          "type": "address"
        }
      ],
      "name": "mint",
      "outputs": [],
      "stateMutability": "nonpayable",
      "type": "function"
    },
    {
      "inputs": [
        {
          "internalType": "address",
          "name": "_to",
          "type": "address"
        },
        {
          "internalType": "uint256",
          "name": "_id",
          "type": "uint256"
        }
      ],
      "name": "SendToken",
      "outputs": [],
      "stateMutability": "nonpayable",
      "type": "function"
    },
    {
      "inputs": [
        {
          "internalType": "address",
          "name": "_to",
          "type": "address"
        },
        {
          "internalType": "uint256",
          "name": "amount",
          "type": "uint256"
        }
      ],
      "name": "sendCoin",
      "outputs": [],
      "stateMutability": "nonpayable",
      "type": "function"
    },
    {
      "inputs": [
        {
          "internalType": "address",
          "name": "_receiver",
          "type": "address"
        }
      ],
      "name": "getBalanceCoin",
      "outputs": [
        {
          "internalType": "uint256",
          "name": "",
          "type": "uint256"
        }
      ],
      "stateMutability": "view",
      "type": "function"
    },
    {
      "inputs": [
        {
          "internalType": "address",
          "name": "_receiver",
          "type": "address"
        }
      ],
      "name": "getAmountNFT",
      "outputs": [
        {
          "internalType": "uint256",
          "name": "",
          "type": "uint256"
        }
      ],
      "stateMutability": "view",
      "type": "function"
    },
    {
      "inputs": [
        {
          "internalType": "uint256",
          "name": "_tokenId",
          "type": "uint256"
        }
      ],
      "name": "getURI",
      "outputs": [
        {
          "internalType": "string",
          "name": "",
          "type": "string"
        }
      ],
      "stateMutability": "view",
      "type": "function"
    },
    {
      "inputs": [],
      "name": "getAdmin",
      "outputs": [
        {
          "internalType": "address",
          "name": "",
          "type": "address"
        }
      ],
      "stateMutability": "view",
      "type": "function"
    }
  ],
  "bytecode": "0x60806040523480156200001157600080fd5b506040518060200160405280600081525062000033816200008d60201b60201c565b5033600360006101000a81548173ffffffffffffffffffffffffffffffffffffffff021916908373ffffffffffffffffffffffffffffffffffffffff160217905550620000876064620000a960201b60201c565b62000223565b8060029080519060200190620000a59291906200010e565b5050565b600360009054906101000a900473ffffffffffffffffffffffffffffffffffffffff1673ffffffffffffffffffffffffffffffffffffffff163373ffffffffffffffffffffffffffffffffffffffff16146200010457600080fd5b8060048190555050565b8280546200011c90620001be565b90600052602060002090601f0160209004810192826200014057600085556200018c565b82601f106200015b57805160ff19168380011785556200018c565b828001600101855582156200018c579182015b828111156200018b5782518255916020019190600101906200016e565b5b5090506200019b91906200019f565b5090565b5b80821115620001ba576000816000905550600101620001a0565b5090565b60006002820490506001821680620001d757607f821691505b60208210811415620001ee57620001ed620001f4565b5b50919050565b7f4e487b7100000000000000000000000000000000000000000000000000000000600052602260045260246000fd5b61392e80620002336000396000f3fe608060405234801561001057600080fd5b50600436106100ff5760003560e01c80636e9960c311610097578063d7a3dff511610066578063d7a3dff5146102ce578063daea85c5146102fe578063e985e9c51461031a578063f242432a1461034a576100ff565b80636e9960c31461025c57806390b98a111461027a5780639168000214610296578063a22cb465146102b2576100ff565b80631c351a9d116100d35780631c351a9d146101c45780632db2f8cc146101e05780632eb2c2d6146102105780634e1273f41461022c576100ff565b8062fdd58e1461010457806301ffc9a7146101345780630e89341c146101645780631aa347dc14610194575b600080fd5b61011e600480360381019061011991906129de565b610366565b60405161012b9190613412565b60405180910390f35b61014e60048036038101906101499190612a86565b61042f565b60405161015b9190613255565b60405180910390f35b61017e60048036038101906101799190612b30565b610511565b60405161018b9190613270565b60405180910390f35b6101ae60048036038101906101a99190612b30565b6105a5565b6040516101bb9190613270565b60405180910390f35b6101de60048036038101906101d99190612ad8565b6106cb565b005b6101fa60048036038101906101f591906127ef565b6108c7565b6040516102079190613412565b60405180910390f35b61022a60048036038101906102259190612854565b6108db565b005b61024660048036038101906102419190612a1a565b610cd1565b60405161025391906131fc565b60405180910390f35b610264610e82565b604051610271919061311f565b60405180910390f35b610294600480360381019061028f91906129de565b610eac565b005b6102b060048036038101906102ab91906129de565b61113f565b005b6102cc60048036038101906102c791906129a2565b611434565b005b6102e860048036038101906102e391906127ef565b6115b5565b6040516102f59190613412565b60405180910390f35b610318600480360381019061031391906127ef565b611601565b005b610334600480360381019061032f9190612818565b6116b9565b6040516103419190613255565b60405180910390f35b610364600480360381019061035f9190612913565b61174d565b005b60008073ffffffffffffffffffffffffffffffffffffffff168373ffffffffffffffffffffffffffffffffffffffff1614156103d7576040517f08c379a00000000000000000000000000000000000000000000000000000000081526004016103ce906132d2565b60405180910390fd5b60008083815260200190815260200160002060008473ffffffffffffffffffffffffffffffffffffffff1673ffffffffffffffffffffffffffffffffffffffff16815260200190815260200160002054905092915050565b60007fd9b67a26000000000000000000000000000000000000000000000000000000007bffffffffffffffffffffffffffffffffffffffffffffffffffffffff1916827bffffffffffffffffffffffffffffffffffffffffffffffffffffffff191614806104fa57507f0e89341c000000000000000000000000000000000000000000000000000000007bffffffffffffffffffffffffffffffffffffffffffffffffffffffff1916827bffffffffffffffffffffffffffffffffffffffffffffffffffffffff1916145b8061050a575061050982611a65565b5b9050919050565b606060028054610520906136c0565b80601f016020809104026020016040519081016040528092919081815260200182805461054c906136c0565b80156105995780601f1061056e57610100808354040283529160200191610599565b820191906000526020600020905b81548152906001019060200180831161057c57829003601f168201915b50505050509050919050565b60606000600560003373ffffffffffffffffffffffffffffffffffffffff1673ffffffffffffffffffffffffffffffffffffffff16815260200190815260200160002060008481526020019081526020016000208054610604906136c0565b80601f0160208091040260200160405190810160405280929190818152602001828054610630906136c0565b801561067d5780601f106106525761010080835404028352916020019161067d565b820191906000526020600020905b81548152906001019060200180831161066057829003601f168201915b505050505090506106c36040518060400160405280600781526020017f697066733a2f2f0000000000000000000000000000000000000000000000000081525082611acf565b915050919050565b8060011515600660008373ffffffffffffffffffffffffffffffffffffffff1673ffffffffffffffffffffffffffffffffffffffff16815260200190815260200160002060010160009054906101000a900460ff1615151461072c57600080fd5b600660008373ffffffffffffffffffffffffffffffffffffffff1673ffffffffffffffffffffffffffffffffffffffff168152602001908152602001600020600001600081548092919061077f906136f2565b91905055506000600660008473ffffffffffffffffffffffffffffffffffffffff1673ffffffffffffffffffffffffffffffffffffffff1681526020019081526020016000206000015490508484600560008673ffffffffffffffffffffffffffffffffffffffff1673ffffffffffffffffffffffffffffffffffffffff1681526020019081526020016000206000848152602001908152602001600020919061082a92919061247f565b506108478382600160405180602001604052806000815250611e60565b61086583600060045460405180602001604052806000815250611e60565b6000600660008573ffffffffffffffffffffffffffffffffffffffff1673ffffffffffffffffffffffffffffffffffffffff16815260200190815260200160002060010160006101000a81548160ff0219169083151502179055505050505050565b60006108d4826000610366565b9050919050565b815183511461091f576040517f08c379a0000000000000000000000000000000000000000000000000000000008152600401610916906133d2565b60405180910390fd5b600073ffffffffffffffffffffffffffffffffffffffff168473ffffffffffffffffffffffffffffffffffffffff16141561098f576040517f08c379a000000000000000000000000000000000000000000000000000000000815260040161098690613332565b60405180910390fd5b610997611ff6565b73ffffffffffffffffffffffffffffffffffffffff168573ffffffffffffffffffffffffffffffffffffffff1614806109dd57506109dc856109d7611ff6565b6116b9565b5b610a1c576040517f08c379a0000000000000000000000000000000000000000000000000000000008152600401610a1390613352565b60405180910390fd5b6000610a26611ff6565b9050610a36818787878787611ffe565b60005b8451811015610c3c576000858281518110610a7d577f4e487b7100000000000000000000000000000000000000000000000000000000600052603260045260246000fd5b602002602001015190506000858381518110610ac2577f4e487b7100000000000000000000000000000000000000000000000000000000600052603260045260246000fd5b60200260200101519050600080600084815260200190815260200160002060008b73ffffffffffffffffffffffffffffffffffffffff1673ffffffffffffffffffffffffffffffffffffffff16815260200190815260200160002054905081811015610b63576040517f08c379a0000000000000000000000000000000000000000000000000000000008152600401610b5a90613372565b60405180910390fd5b8181610b6f91906135d6565b60008085815260200190815260200160002060008c73ffffffffffffffffffffffffffffffffffffffff1673ffffffffffffffffffffffffffffffffffffffff168152602001908152602001600020819055508160008085815260200190815260200160002060008b73ffffffffffffffffffffffffffffffffffffffff1673ffffffffffffffffffffffffffffffffffffffff1681526020019081526020016000206000828254610c219190613580565b9250508190555050505080610c35906136f2565b9050610a39565b508473ffffffffffffffffffffffffffffffffffffffff168673ffffffffffffffffffffffffffffffffffffffff168273ffffffffffffffffffffffffffffffffffffffff167f4a39dc06d4c0dbc64b70af90fd698a233a518aa5d07e595d983b8c0526c8f7fb8787604051610cb392919061321e565b60405180910390a4610cc9818787878787612006565b505050505050565b60608151835114610d17576040517f08c379a0000000000000000000000000000000000000000000000000000000008152600401610d0e906133b2565b60405180910390fd5b6000835167ffffffffffffffff811115610d5a577f4e487b7100000000000000000000000000000000000000000000000000000000600052604160045260246000fd5b604051908082528060200260200182016040528015610d885781602001602082028036833780820191505090505b50905060005b8451811015610e7757610e21858281518110610dd3577f4e487b7100000000000000000000000000000000000000000000000000000000600052603260045260246000fd5b6020026020010151858381518110610e14577f4e487b7100000000000000000000000000000000000000000000000000000000600052603260045260246000fd5b6020026020010151610366565b828281518110610e5a577f4e487b7100000000000000000000000000000000000000000000000000000000600052603260045260246000fd5b60200260200101818152505080610e70906136f2565b9050610d8e565b508091505092915050565b6000600360009054906101000a900473ffffffffffffffffffffffffffffffffffffffff16905090565b80610eb8336000610366565b1115610ec357600080fd5b6000600660008473ffffffffffffffffffffffffffffffffffffffff1673ffffffffffffffffffffffffffffffffffffffff1681526020019081526020016000206000016000815480929190610f18906136f2565b919050559050610f29836001611434565b610f4633848360016040518060200160405280600081525061174d565b610f51836000611434565b6000600560003373ffffffffffffffffffffffffffffffffffffffff1673ffffffffffffffffffffffffffffffffffffffff16815260200190815260200160002060008381526020019081526020016000208054610fae906136c0565b80601f0160208091040260200160405190810160405280929190818152602001828054610fda906136c0565b80156110275780601f10610ffc57610100808354040283529160200191611027565b820191906000526020600020905b81548152906001019060200180831161100a57829003601f168201915b5050505050905080600560008673ffffffffffffffffffffffffffffffffffffffff1673ffffffffffffffffffffffffffffffffffffffff16815260200190815260200160002060008481526020019081526020016000209080519060200190611092929190612505565b506040518060400160405280601181526020017f6e6f7420796f75727320616e796d6f7265000000000000000000000000000000815250600560003373ffffffffffffffffffffffffffffffffffffffff1673ffffffffffffffffffffffffffffffffffffffff168152602001908152602001600020600060018561111791906135d6565b81526020019081526020016000209080519060200190611138929190612505565b5050505050565b6000600660003373ffffffffffffffffffffffffffffffffffffffff1673ffffffffffffffffffffffffffffffffffffffff16815260200190815260200160002060000154116111c4576040517f08c379a00000000000000000000000000000000000000000000000000000000081526004016111bb906132f2565b60405180910390fd5b6111cf826001611434565b6111ec33838360016040518060200160405280600081525061174d565b6111f7826000611434565b6000600560003373ffffffffffffffffffffffffffffffffffffffff1673ffffffffffffffffffffffffffffffffffffffff16815260200190815260200160002060008381526020019081526020016000208054611254906136c0565b80601f0160208091040260200160405190810160405280929190818152602001828054611280906136c0565b80156112cd5780601f106112a2576101008083540402835291602001916112cd565b820191906000526020600020905b8154815290600101906020018083116112b057829003601f168201915b505050505090506000600660008573ffffffffffffffffffffffffffffffffffffffff1673ffffffffffffffffffffffffffffffffffffffff1681526020019081526020016000206000016000815480929190611329906136f2565b91905055905081600560008673ffffffffffffffffffffffffffffffffffffffff1673ffffffffffffffffffffffffffffffffffffffff16815260200190815260200160002060008381526020019081526020016000209080519060200190611393929190612505565b506040518060400160405280601181526020017f6e6f7420796f75727320616e796d6f7265000000000000000000000000000000815250600560003373ffffffffffffffffffffffffffffffffffffffff1673ffffffffffffffffffffffffffffffffffffffff1681526020019081526020016000206000858152602001908152602001600020908051906020019061142d929190612505565b5050505050565b8173ffffffffffffffffffffffffffffffffffffffff16611453611ff6565b73ffffffffffffffffffffffffffffffffffffffff1614156114aa576040517f08c379a00000000000000000000000000000000000000000000000000000000081526004016114a190613392565b60405180910390fd5b80600160006114b7611ff6565b73ffffffffffffffffffffffffffffffffffffffff1673ffffffffffffffffffffffffffffffffffffffff16815260200190815260200160002060008473ffffffffffffffffffffffffffffffffffffffff1673ffffffffffffffffffffffffffffffffffffffff16815260200190815260200160002060006101000a81548160ff0219169083151502179055508173ffffffffffffffffffffffffffffffffffffffff16611564611ff6565b73ffffffffffffffffffffffffffffffffffffffff167f17307eab39ab6107e8899845ad3d59bd9653f200f220920489ca2b5937696c31836040516115a99190613255565b60405180910390a35050565b6000600660008373ffffffffffffffffffffffffffffffffffffffff1673ffffffffffffffffffffffffffffffffffffffff168152602001908152602001600020600001549050919050565b600360009054906101000a900473ffffffffffffffffffffffffffffffffffffffff1673ffffffffffffffffffffffffffffffffffffffff163373ffffffffffffffffffffffffffffffffffffffff161461165b57600080fd5b6001600660008373ffffffffffffffffffffffffffffffffffffffff1673ffffffffffffffffffffffffffffffffffffffff16815260200190815260200160002060010160006101000a81548160ff02191690831515021790555050565b6000600160008473ffffffffffffffffffffffffffffffffffffffff1673ffffffffffffffffffffffffffffffffffffffff16815260200190815260200160002060008373ffffffffffffffffffffffffffffffffffffffff1673ffffffffffffffffffffffffffffffffffffffff16815260200190815260200160002060009054906101000a900460ff16905092915050565b600073ffffffffffffffffffffffffffffffffffffffff168473ffffffffffffffffffffffffffffffffffffffff1614156117bd576040517f08c379a00000000000000000000000000000000000000000000000000000000081526004016117b490613332565b60405180910390fd5b6117c5611ff6565b73ffffffffffffffffffffffffffffffffffffffff168573ffffffffffffffffffffffffffffffffffffffff16148061180b575061180a85611805611ff6565b6116b9565b5b61184a576040517f08c379a000000000000000000000000000000000000000000000000000000000815260040161184190613312565b60405180910390fd5b6000611854611ff6565b9050611874818787611865886121d6565b61186e886121d6565b87611ffe565b600080600086815260200190815260200160002060008873ffffffffffffffffffffffffffffffffffffffff1673ffffffffffffffffffffffffffffffffffffffff1681526020019081526020016000205490508381101561190b576040517f08c379a000000000000000000000000000000000000000000000000000000000815260040161190290613372565b60405180910390fd5b838161191791906135d6565b60008087815260200190815260200160002060008973ffffffffffffffffffffffffffffffffffffffff1673ffffffffffffffffffffffffffffffffffffffff168152602001908152602001600020819055508360008087815260200190815260200160002060008873ffffffffffffffffffffffffffffffffffffffff1673ffffffffffffffffffffffffffffffffffffffff16815260200190815260200160002060008282546119c99190613580565b925050819055508573ffffffffffffffffffffffffffffffffffffffff168773ffffffffffffffffffffffffffffffffffffffff168373ffffffffffffffffffffffffffffffffffffffff167fc3d58168c5ae7397731d063d5bbf3d657854427343f4c083240f7aacaa2d0f628888604051611a4692919061342d565b60405180910390a4611a5c82888888888861229c565b50505050505050565b60007f01ffc9a7000000000000000000000000000000000000000000000000000000007bffffffffffffffffffffffffffffffffffffffffffffffffffffffff1916827bffffffffffffffffffffffffffffffffffffffffffffffffffffffff1916149050919050565b606060008084905060008490506000815160028451611aee9190613580565b611af89190613580565b67ffffffffffffffff811115611b37577f4e487b7100000000000000000000000000000000000000000000000000000000600052604160045260246000fd5b6040519080825280601f01601f191660200182016040528015611b695781602001600182028036833780820191505090505b5090506060905060008190506000805b8551811015611c4d57858181518110611bbb577f4e487b7100000000000000000000000000000000000000000000000000000000600052603260045260246000fd5b602001015160f81c60f81b838380611bd2906136f2565b945081518110611c0b577f4e487b7100000000000000000000000000000000000000000000000000000000600052603260045260246000fd5b60200101907effffffffffffffffffffffffffffffffffffffffffffffffffffffffffffff1916908160001a9053508080611c45906136f2565b915050611b79565b507f2c00000000000000000000000000000000000000000000000000000000000000828280611c7b906136f2565b935081518110611cb4577f4e487b7100000000000000000000000000000000000000000000000000000000600052603260045260246000fd5b60200101907effffffffffffffffffffffffffffffffffffffffffffffffffffffffffffff1916908160001a9053507f2000000000000000000000000000000000000000000000000000000000000000828280611d10906136f2565b935081518110611d49577f4e487b7100000000000000000000000000000000000000000000000000000000600052603260045260246000fd5b60200101907effffffffffffffffffffffffffffffffffffffffffffffffffffffffffffff1916908160001a905350600095505b8351861015611e5157838681518110611dbf577f4e487b7100000000000000000000000000000000000000000000000000000000600052603260045260246000fd5b602001015160f81c60f81b828280611dd6906136f2565b935081518110611e0f577f4e487b7100000000000000000000000000000000000000000000000000000000600052603260045260246000fd5b60200101907effffffffffffffffffffffffffffffffffffffffffffffffffffffffffffff1916908160001a9053508580611e49906136f2565b965050611d7d565b81965050505050505092915050565b600073ffffffffffffffffffffffffffffffffffffffff168473ffffffffffffffffffffffffffffffffffffffff161415611ed0576040517f08c379a0000000000000000000000000000000000000000000000000000000008152600401611ec7906133f2565b60405180910390fd5b6000611eda611ff6565b9050611efb81600087611eec886121d6565b611ef5886121d6565b87611ffe565b8260008086815260200190815260200160002060008773ffffffffffffffffffffffffffffffffffffffff1673ffffffffffffffffffffffffffffffffffffffff1681526020019081526020016000206000828254611f5a9190613580565b925050819055508473ffffffffffffffffffffffffffffffffffffffff16600073ffffffffffffffffffffffffffffffffffffffff168273ffffffffffffffffffffffffffffffffffffffff167fc3d58168c5ae7397731d063d5bbf3d657854427343f4c083240f7aacaa2d0f628787604051611fd892919061342d565b60405180910390a4611fef8160008787878761229c565b5050505050565b600033905090565b505050505050565b6120258473ffffffffffffffffffffffffffffffffffffffff1661246c565b156121ce578373ffffffffffffffffffffffffffffffffffffffff1663bc197c8187878686866040518663ffffffff1660e01b815260040161206b95949392919061313a565b602060405180830381600087803b15801561208557600080fd5b505af19250505080156120b657506040513d601f19601f820116820180604052508101906120b39190612aaf565b60015b612145576120c26137e6565b806120cd575061210a565b806040517f08c379a00000000000000000000000000000000000000000000000000000000081526004016121019190613270565b60405180910390fd5b6040517f08c379a000000000000000000000000000000000000000000000000000000000815260040161213c90613292565b60405180910390fd5b63bc197c8160e01b7bffffffffffffffffffffffffffffffffffffffffffffffffffffffff1916817bffffffffffffffffffffffffffffffffffffffffffffffffffffffff1916146121cc576040517f08c379a00000000000000000000000000000000000000000000000000000000081526004016121c3906132b2565b60405180910390fd5b505b505050505050565b60606000600167ffffffffffffffff81111561221b577f4e487b7100000000000000000000000000000000000000000000000000000000600052604160045260246000fd5b6040519080825280602002602001820160405280156122495781602001602082028036833780820191505090505b5090508281600081518110612287577f4e487b7100000000000000000000000000000000000000000000000000000000600052603260045260246000fd5b60200260200101818152505080915050919050565b6122bb8473ffffffffffffffffffffffffffffffffffffffff1661246c565b15612464578373ffffffffffffffffffffffffffffffffffffffff1663f23a6e6187878686866040518663ffffffff1660e01b81526004016123019594939291906131a2565b602060405180830381600087803b15801561231b57600080fd5b505af192505050801561234c57506040513d601f19601f820116820180604052508101906123499190612aaf565b60015b6123db576123586137e6565b8061236357506123a0565b806040517f08c379a00000000000000000000000000000000000000000000000000000000081526004016123979190613270565b60405180910390fd5b6040517f08c379a00000000000000000000000000000000000000000000000000000000081526004016123d290613292565b60405180910390fd5b63f23a6e6160e01b7bffffffffffffffffffffffffffffffffffffffffffffffffffffffff1916817bffffffffffffffffffffffffffffffffffffffffffffffffffffffff191614612462576040517f08c379a0000000000000000000000000000000000000000000000000000000008152600401612459906132b2565b60405180910390fd5b505b505050505050565b600080823b905060008111915050919050565b82805461248b906136c0565b90600052602060002090601f0160209004810192826124ad57600085556124f4565b82601f106124c657803560ff19168380011785556124f4565b828001600101855582156124f4579182015b828111156124f35782358255916020019190600101906124d8565b5b509050612501919061258b565b5090565b828054612511906136c0565b90600052602060002090601f016020900481019282612533576000855561257a565b82601f1061254c57805160ff191683800117855561257a565b8280016001018555821561257a579182015b8281111561257957825182559160200191906001019061255e565b5b509050612587919061258b565b5090565b5b808211156125a457600081600090555060010161258c565b5090565b60006125bb6125b684613487565b613456565b905080838252602082019050828560208602820111156125da57600080fd5b60005b8581101561260a57816125f088826126be565b8452602084019350602083019250506001810190506125dd565b5050509392505050565b6000612627612622846134b3565b613456565b9050808382526020820190508285602086028201111561264657600080fd5b60005b85811015612676578161265c88826127da565b845260208401935060208301925050600181019050612649565b5050509392505050565b600061269361268e846134df565b613456565b9050828152602081018484840111156126ab57600080fd5b6126b684828561367e565b509392505050565b6000813590506126cd8161389c565b92915050565b600082601f8301126126e457600080fd5b81356126f48482602086016125a8565b91505092915050565b600082601f83011261270e57600080fd5b813561271e848260208601612614565b91505092915050565b600081359050612736816138b3565b92915050565b60008135905061274b816138ca565b92915050565b600081519050612760816138ca565b92915050565b600082601f83011261277757600080fd5b8135612787848260208601612680565b91505092915050565b60008083601f8401126127a257600080fd5b8235905067ffffffffffffffff8111156127bb57600080fd5b6020830191508360018202830111156127d357600080fd5b9250929050565b6000813590506127e9816138e1565b92915050565b60006020828403121561280157600080fd5b600061280f848285016126be565b91505092915050565b6000806040838503121561282b57600080fd5b6000612839858286016126be565b925050602061284a858286016126be565b9150509250929050565b600080600080600060a0868803121561286c57600080fd5b600061287a888289016126be565b955050602061288b888289016126be565b945050604086013567ffffffffffffffff8111156128a857600080fd5b6128b4888289016126fd565b935050606086013567ffffffffffffffff8111156128d157600080fd5b6128dd888289016126fd565b925050608086013567ffffffffffffffff8111156128fa57600080fd5b61290688828901612766565b9150509295509295909350565b600080600080600060a0868803121561292b57600080fd5b6000612939888289016126be565b955050602061294a888289016126be565b945050604061295b888289016127da565b935050606061296c888289016127da565b925050608086013567ffffffffffffffff81111561298957600080fd5b61299588828901612766565b9150509295509295909350565b600080604083850312156129b557600080fd5b60006129c3858286016126be565b92505060206129d485828601612727565b9150509250929050565b600080604083850312156129f157600080fd5b60006129ff858286016126be565b9250506020612a10858286016127da565b9150509250929050565b60008060408385031215612a2d57600080fd5b600083013567ffffffffffffffff811115612a4757600080fd5b612a53858286016126d3565b925050602083013567ffffffffffffffff811115612a7057600080fd5b612a7c858286016126fd565b9150509250929050565b600060208284031215612a9857600080fd5b6000612aa68482850161273c565b91505092915050565b600060208284031215612ac157600080fd5b6000612acf84828501612751565b91505092915050565b600080600060408486031215612aed57600080fd5b600084013567ffffffffffffffff811115612b0757600080fd5b612b1386828701612790565b93509350506020612b26868287016126be565b9150509250925092565b600060208284031215612b4257600080fd5b6000612b50848285016127da565b91505092915050565b6000612b658383613101565b60208301905092915050565b612b7a8161360a565b82525050565b6000612b8b8261351f565b612b95818561354d565b9350612ba08361350f565b8060005b83811015612bd1578151612bb88882612b59565b9750612bc383613540565b925050600181019050612ba4565b5085935050505092915050565b612be78161361c565b82525050565b6000612bf88261352a565b612c02818561355e565b9350612c1281856020860161368d565b612c1b816137c8565b840191505092915050565b6000612c3182613535565b612c3b818561356f565b9350612c4b81856020860161368d565b612c54816137c8565b840191505092915050565b6000612c6c60348361356f565b91507f455243313135353a207472616e7366657220746f206e6f6e204552433131353560008301527f526563656976657220696d706c656d656e7465720000000000000000000000006020830152604082019050919050565b6000612cd260288361356f565b91507f455243313135353a204552433131353552656365697665722072656a6563746560008301527f6420746f6b656e730000000000000000000000000000000000000000000000006020830152604082019050919050565b6000612d38602b8361356f565b91507f455243313135353a2062616c616e636520717565727920666f7220746865207a60008301527f65726f20616464726573730000000000000000000000000000000000000000006020830152604082019050919050565b6000612d9e601f8361356f565b91507f596f7520646964206e6f7420636c65616e2074686520776f726c6420796574006000830152602082019050919050565b6000612dde60298361356f565b91507f455243313135353a2063616c6c6572206973206e6f74206f776e6572206e6f7260008301527f20617070726f76656400000000000000000000000000000000000000000000006020830152604082019050919050565b6000612e4460258361356f565b91507f455243313135353a207472616e7366657220746f20746865207a65726f20616460008301527f64726573730000000000000000000000000000000000000000000000000000006020830152604082019050919050565b6000612eaa60328361356f565b91507f455243313135353a207472616e736665722063616c6c6572206973206e6f742060008301527f6f776e6572206e6f7220617070726f76656400000000000000000000000000006020830152604082019050919050565b6000612f10602a8361356f565b91507f455243313135353a20696e73756666696369656e742062616c616e636520666f60008301527f72207472616e73666572000000000000000000000000000000000000000000006020830152604082019050919050565b6000612f7660298361356f565b91507f455243313135353a2073657474696e6720617070726f76616c2073746174757360008301527f20666f722073656c6600000000000000000000000000000000000000000000006020830152604082019050919050565b6000612fdc60298361356f565b91507f455243313135353a206163636f756e747320616e6420696473206c656e67746860008301527f206d69736d6174636800000000000000000000000000000000000000000000006020830152604082019050919050565b600061304260288361356f565b91507f455243313135353a2069647320616e6420616d6f756e7473206c656e6774682060008301527f6d69736d617463680000000000000000000000000000000000000000000000006020830152604082019050919050565b60006130a860218361356f565b91507f455243313135353a206d696e7420746f20746865207a65726f2061646472657360008301527f73000000000000000000000000000000000000000000000000000000000000006020830152604082019050919050565b61310a81613674565b82525050565b61311981613674565b82525050565b60006020820190506131346000830184612b71565b92915050565b600060a08201905061314f6000830188612b71565b61315c6020830187612b71565b818103604083015261316e8186612b80565b905081810360608301526131828185612b80565b905081810360808301526131968184612bed565b90509695505050505050565b600060a0820190506131b76000830188612b71565b6131c46020830187612b71565b6131d16040830186613110565b6131de6060830185613110565b81810360808301526131f08184612bed565b90509695505050505050565b600060208201905081810360008301526132168184612b80565b905092915050565b600060408201905081810360008301526132388185612b80565b9050818103602083015261324c8184612b80565b90509392505050565b600060208201905061326a6000830184612bde565b92915050565b6000602082019050818103600083015261328a8184612c26565b905092915050565b600060208201905081810360008301526132ab81612c5f565b9050919050565b600060208201905081810360008301526132cb81612cc5565b9050919050565b600060208201905081810360008301526132eb81612d2b565b9050919050565b6000602082019050818103600083015261330b81612d91565b9050919050565b6000602082019050818103600083015261332b81612dd1565b9050919050565b6000602082019050818103600083015261334b81612e37565b9050919050565b6000602082019050818103600083015261336b81612e9d565b9050919050565b6000602082019050818103600083015261338b81612f03565b9050919050565b600060208201905081810360008301526133ab81612f69565b9050919050565b600060208201905081810360008301526133cb81612fcf565b9050919050565b600060208201905081810360008301526133eb81613035565b9050919050565b6000602082019050818103600083015261340b8161309b565b9050919050565b60006020820190506134276000830184613110565b92915050565b60006040820190506134426000830185613110565b61344f6020830184613110565b9392505050565b6000604051905081810181811067ffffffffffffffff8211171561347d5761347c613799565b5b8060405250919050565b600067ffffffffffffffff8211156134a2576134a1613799565b5b602082029050602081019050919050565b600067ffffffffffffffff8211156134ce576134cd613799565b5b602082029050602081019050919050565b600067ffffffffffffffff8211156134fa576134f9613799565b5b601f19601f8301169050602081019050919050565b6000819050602082019050919050565b600081519050919050565b600081519050919050565b600081519050919050565b6000602082019050919050565b600082825260208201905092915050565b600082825260208201905092915050565b600082825260208201905092915050565b600061358b82613674565b915061359683613674565b9250827fffffffffffffffffffffffffffffffffffffffffffffffffffffffffffffffff038211156135cb576135ca61373b565b5b828201905092915050565b60006135e182613674565b91506135ec83613674565b9250828210156135ff576135fe61373b565b5b828203905092915050565b600061361582613654565b9050919050565b60008115159050919050565b60007fffffffff0000000000000000000000000000000000000000000000000000000082169050919050565b600073ffffffffffffffffffffffffffffffffffffffff82169050919050565b6000819050919050565b82818337600083830152505050565b60005b838110156136ab578082015181840152602081019050613690565b838111156136ba576000848401525b50505050565b600060028204905060018216806136d857607f821691505b602082108114156136ec576136eb61376a565b5b50919050565b60006136fd82613674565b91507fffffffffffffffffffffffffffffffffffffffffffffffffffffffffffffffff8214156137305761372f61373b565b5b600182019050919050565b7f4e487b7100000000000000000000000000000000000000000000000000000000600052601160045260246000fd5b7f4e487b7100000000000000000000000000000000000000000000000000000000600052602260045260246000fd5b7f4e487b7100000000000000000000000000000000000000000000000000000000600052604160045260246000fd5b6000601f19601f8301169050919050565b60008160e01c9050919050565b600060443d10156137f657613899565b60046000803e6138076000516137d9565b6308c379a081146138185750613899565b60405160043d036004823e80513d602482011167ffffffffffffffff8211171561384457505050613899565b808201805167ffffffffffffffff811115613863575050505050613899565b8060208301013d850181111561387e57505050505050613899565b613887826137c8565b60208401016040528296505050505050505b90565b6138a58161360a565b81146138b057600080fd5b50565b6138bc8161361c565b81146138c757600080fd5b50565b6138d381613628565b81146138de57600080fd5b50565b6138ea81613674565b81146138f557600080fd5b5056fea2646970667358221220d1de7c8062b9a8d77fd0b0a08b659c8395f4cc81a47e52180177655db129cf5364736f6c63430008000033",
  "immutableReferences": {},
  "source": "pragma solidity ^0.8.0;\r\n\r\nimport \"@openzeppelin/contracts/token/ERC1155/ERC1155.sol\";\r\n\r\nimport \"./Strings.sol\";\r\n\r\n\r\ncontract TrashTag is ERC1155{\r\n\r\n    using Strings for string;\r\n\r\n    address private admin;\r\n    uint private amountReward;\r\n\r\n\r\n    mapping(address => mapping(uint256 => string)) tokenURI;\r\n    mapping(address => User) users;\r\n\r\n    string constant private baseMetadataURI = \"ipfs://\";\r\n\r\n    struct User{\r\n        uint NFTAmount;\r\n        bool approved;\r\n    }\r\n\r\n\r\n\r\n    constructor() public ERC1155(\"\"){\r\n        admin = msg.sender;\r\n        setAmountReward(100);\r\n    }\r\n\r\n\r\n    // Only the contract owner can execute\r\n    modifier governance(){\r\n        require(msg.sender == admin);\r\n        _;\r\n    }\r\n\r\n\r\n    //Chekc if the msg.sender is approved to earn rewards\r\n    modifier Approved(address _to){\r\n        require(users[_to].approved == true);\r\n        _;\r\n    }\r\n\r\n\r\n    //Only governance is able to approved a receiver\r\n    function approve(address _to)public governance {\r\n        users[_to].approved = true;\r\n    }\r\n\r\n    function mint(string calldata _uri, address _to)public Approved(_to){\r\n\r\n        //id 0 is for the coin, so NFT's id start at 1\r\n        users[_to].NFTAmount ++;\r\n\r\n        //Id's of toeken is determined by the amount store in struct\r\n        uint id = users[_to].NFTAmount;\r\n\r\n        tokenURI[_to][id] = _uri;\r\n\r\n        _mint(_to, id, 1, \"\"); //NFT\r\n        _mint(_to, 0, amountReward, \"\"); //Crypto\r\n\r\n\r\n        //Next token need to be approved again\r\n        users[_to].approved = false;\r\n    }\r\n\r\n\r\n    function setAmountReward(uint _newAmount)private governance{\r\n        amountReward = _newAmount;\r\n    }\r\n\r\n\r\n    function SendToken(address _to,uint _id) public{\r\n        require(users[msg.sender].NFTAmount >0, \"You did not clean the world yet\");\r\n\r\n        setApprovalForAll(_to, true);\r\n        safeTransferFrom(msg.sender, _to, _id, 1, \"\");\r\n\r\n        setApprovalForAll(_to, false);\r\n\r\n        string memory uri =tokenURI[msg.sender][_id];\r\n\r\n        uint newId = users[_to].NFTAmount++;\r\n\r\n        tokenURI[_to][newId]= uri;\r\n\r\n        tokenURI[msg.sender][_id] = \"not yours anymore\";\r\n    }\r\n\r\n    function sendCoin(address _to,uint amount) public{\r\n        require(balanceOf(msg.sender,0)<= amount);\r\n\r\n        uint id = users[_to].NFTAmount++;\r\n\r\n        setApprovalForAll(_to, true);\r\n\r\n        safeTransferFrom(msg.sender, _to, id, 1, \"\");\r\n\r\n        setApprovalForAll(_to, false);\r\n\r\n        string memory uri =tokenURI[msg.sender][id];\r\n\r\n\r\n        tokenURI[_to][id]= uri;\r\n\r\n        tokenURI[msg.sender][id-1] = \"not yours anymore\";\r\n    }\r\n\r\n\r\n\r\n    function getBalanceCoin(address _receiver) public view returns(uint){\r\n        return balanceOf(_receiver, 0);\r\n    }\r\n\r\n    function getAmountNFT(address _receiver) public view returns(uint){\r\n\r\n        /*To get nft's ID via typescript\r\n\r\n        var ids:number[] = new Array(NFTAmount)\r\n        while (i=1,i<=NFTAmount, i++ ){\r\n            ids[i]=i\r\n        }\r\n        */\r\n\r\n\r\n        return users[_receiver].NFTAmount;\r\n    }\r\n\r\n\r\n    function getURI(uint _tokenId)public view returns(string memory){\r\n        string memory hashURI = tokenURI[msg.sender][_tokenId];\r\n        return Strings.strConcat(\r\n            baseMetadataURI,\r\n            hashURI\r\n        );\r\n    }\r\n\r\n    function getAdmin()public view returns(address){\r\n        return admin;\r\n    }\r\n}\r\n\r\n\r\n\r\n",
  "sourcePath": "C:/Users/FourbeurFourmi/Desktop/Projet Eco Token/V1 React-Typescript/trash-tag-dapp/contracts/Trashtag.sol",
  "compiler": {
    "name": "solc",
    "version": "0.8.0+commit.c7dfd78e.Emscripten.clang"
  },
  "schemaVersion": "3.3.4",
  "updatedAt": "2021-06-04T15:02:57.199Z",
  "devdoc": {
    "kind": "dev",
    "methods": {
      "balanceOf(address,uint256)": {
        "details": "See {IERC1155-balanceOf}. Requirements: - `account` cannot be the zero address."
      },
      "balanceOfBatch(address[],uint256[])": {
        "details": "See {IERC1155-balanceOfBatch}. Requirements: - `accounts` and `ids` must have the same length."
      },
      "isApprovedForAll(address,address)": {
        "details": "See {IERC1155-isApprovedForAll}."
      },
      "safeBatchTransferFrom(address,address,uint256[],uint256[],bytes)": {
        "details": "See {IERC1155-safeBatchTransferFrom}."
      },
      "safeTransferFrom(address,address,uint256,uint256,bytes)": {
        "details": "See {IERC1155-safeTransferFrom}."
      },
      "setApprovalForAll(address,bool)": {
        "details": "See {IERC1155-setApprovalForAll}."
      },
      "supportsInterface(bytes4)": {
        "details": "See {IERC165-supportsInterface}."
      },
      "uri(uint256)": {
        "details": "See {IERC1155MetadataURI-uri}. This implementation returns the same URI for *all* token types. It relies on the token type ID substitution mechanism https://eips.ethereum.org/EIPS/eip-1155#metadata[defined in the EIP]. Clients calling this function must replace the `\\{id\\}` substring with the actual token type ID."
      }
    },
    "version": 1
  },
  "userdoc": {
    "kind": "user",
    "methods": {},
    "version": 1
  }
}